{
  "contractName": "Escrow",
  "abi": [
    {
      "inputs": [
        {
          "internalType": "address",
          "name": "_freelancer",
          "type": "address"
        },
        {
          "internalType": "address",
          "name": "_employer",
          "type": "address"
        },
        {
          "internalType": "address",
          "name": "_requestManager",
          "type": "address"
        },
        {
          "internalType": "uint256",
          "name": "_amount",
          "type": "uint256"
        }
      ],
      "stateMutability": "payable",
      "type": "constructor"
    },
    {
      "anonymous": false,
      "inputs": [
        {
          "indexed": false,
          "internalType": "address",
          "name": "to",
          "type": "address"
        },
        {
          "indexed": false,
          "internalType": "uint256",
          "name": "amount",
          "type": "uint256"
        },
        {
          "indexed": false,
          "internalType": "uint256",
          "name": "contractBalance",
          "type": "uint256"
        }
      ],
      "name": "DebugPayment",
      "type": "event"
    },
    {
      "inputs": [],
      "name": "amount",
      "outputs": [
        {
          "internalType": "uint256",
          "name": "",
          "type": "uint256"
        }
      ],
      "stateMutability": "view",
      "type": "function"
    },
    {
      "inputs": [],
      "name": "employer",
      "outputs": [
        {
          "internalType": "address",
          "name": "",
          "type": "address"
        }
      ],
      "stateMutability": "view",
      "type": "function"
    },
    {
      "inputs": [],
      "name": "freelancer",
      "outputs": [
        {
          "internalType": "address",
          "name": "",
          "type": "address"
        }
      ],
      "stateMutability": "view",
      "type": "function"
    },
    {
      "inputs": [],
      "name": "requestManager",
      "outputs": [
        {
          "internalType": "address",
          "name": "",
          "type": "address"
        }
      ],
      "stateMutability": "view",
      "type": "function"
    },
    {
      "inputs": [],
      "name": "releaseFunds",
      "outputs": [],
      "stateMutability": "nonpayable",
      "type": "function"
    }
  ],
  "bytecode": "0x6080601f61042a38819003918201601f19168301916001600160401b0383118484101760b05780849260809460405283398101031260ab57603e8160c6565b9060496020820160c6565b606060556040840160c6565b920151600080546001600160a01b03199081166001600160a01b03968716179091556001805482169386169390931790925560028054909216939092169290921790915560035560405161035090816100da8239f35b600080fd5b634e487b7160e01b600052604160045260246000fd5b51906001600160a01b038216820360ab5756fe608080604052600436101561001357600080fd5b60003560e01c90816369d89575146100f457508063a37dda2c146100cb578063aa8c217c146100ad578063ae200e79146100845763fd84030c1461005657600080fd5b3461007f57600036600319011261007f576002546040516001600160a01b039091168152602090f35b600080fd5b3461007f57600036600319011261007f576001546040516001600160a01b039091168152602090f35b3461007f57600036600319011261007f576020600354604051908152f35b3461007f57600036600319011261007f576000546040516001600160a01b039091168152602090f35b3461007f57600036600319011261007f576001546001600160a01b031633148015610306575b156102a6576000546001600160a01b0316801561026457479060035480921061021f57600080809381937f1225fd98dfabdd4896857de021e597506830a5f9b8ac44464a41ee4bd9266ff5606047604051908482528560208301526040820152a15af13d1561021a573d6001600160401b0381116102045760405190601f8101601f19908116603f011682016001600160401b03811183821017610204576040528152600060203d92013e5b156101cd57005b60405162461bcd60e51b815260206004820152600f60248201526e151c985b9cd9995c8819985a5b1959608a1b6044820152606490fd5b634e487b7160e01b600052604160045260246000fd5b6101c6565b60405162461bcd60e51b815260206004820152601e60248201527f496e73756666696369656e742062616c616e636520696e20657363726f7700006044820152606490fd5b60405162461bcd60e51b815260206004820152601a602482015279496e76616c696420667265656c616e636572206164647265737360301b6044820152606490fd5b62461bcd60e51b815260206004820152603560248201527f4f6e6c792074686520656d706c6f796572206f7220526571756573744d616e616044820152746765722063616e2072656c656173652066756e647360581b6064820152608490fd5b506002546001600160a01b0316331461011a56fea2646970667358221220408b3b040a3720b83892f6357eeb540be22c2708578e10e1d60ab62ff2e0d78c64736f6c63430008230033",
  "immutableReferences": {},
  "source": "// SPDX-License-Identifier: MIT\r\npragma solidity ^0.8.0;\r\n\r\nimport \"./Projects.sol\";\r\n\r\ncontract Escrow {\r\n    address public freelancer;\r\n    address public employer;\r\n    address public requestManager;\r\n    uint public amount;\r\n\r\n    event DebugPayment(address to, uint amount, uint contractBalance);\r\n\r\n    constructor(address _freelancer, address _employer, address _requestManager, uint _amount) payable {\r\n        freelancer = _freelancer;\r\n        employer = _employer;\r\n        requestManager = _requestManager;\r\n        amount = _amount;\r\n    }\r\n\r\n    function releaseFunds() external {\r\n        require(msg.sender == employer || msg.sender == requestManager, \"Only the employer or RequestManager can release funds\");\r\n        require(freelancer != address(0), \"Invalid freelancer address\");\r\n        require(address(this).balance >= amount, \"Insufficient balance in escrow\");\r\n\r\n        emit DebugPayment(freelancer, amount, address(this).balance);\r\n\r\n        (bool success, ) = payable(freelancer).call{value: amount}(\"\");\r\n        require(success, \"Transfer failed\");\r\n    }\r\n}\r\n\r\ncontract RequestManager {\r\n    Projects public projectsContract;\r\n\r\n    enum RequestStatus { Pending, Accepted, Rejected }\r\n    enum QuotationStatus { Pending, Proposed, Negotiating, Accepted, Rejected }\r\n\r\n    struct Request {\r\n        uint projectId;\r\n        address freelancer;\r\n        uint freelancerRating;\r\n        RequestStatus status;\r\n        Escrow escrowContract;\r\n    }\r\n\r\n    struct Quotation {\r\n        uint projectId;\r\n        address proposedBy;\r\n        uint proposedAmount;\r\n        string description;\r\n        string negotiationNotes;\r\n        QuotationStatus status;\r\n        uint timestamp;\r\n    }\r\n\r\n    struct MilestoneReviewRequest {\r\n        uint id;\r\n        uint milestoneId;\r\n        address freelancer;\r\n        string cid;\r\n        bool reviewed;\r\n    }\r\n\r\n    struct File {\r\n        uint id;\r\n        uint milestoneId;\r\n        string name;\r\n        string rid;\r\n        string cid;\r\n    }\r\n\r\n    struct ReviewResponse{\r\n        uint id;\r\n        uint milestoneId;\r\n        address freelancer;\r\n        string response;\r\n        bool accepted;\r\n    }\r\n    \r\n    mapping(uint => ReviewResponse) public reviewResponses;\r\n    uint public responseCount;\r\n\r\n    // Mapping milestone ID to an array of files\r\n    mapping(uint => File[]) public milestoneFiles;\r\n    uint public fileCount;\r\n\r\n    // Store all requests in a single mapping\r\n    mapping(uint => Request) public requests;\r\n    mapping(uint => uint) public projectToRequest; // projectId => requestId mapping\r\n    uint public requestCount; // To keep track of the total number of requests\r\n\r\n    mapping(uint => Quotation[]) public quotations; // projectId => array of quotations\r\n    mapping(uint => address) public assignedFreelancer; // projectId => freelancer address\r\n\r\n    mapping(uint => MilestoneReviewRequest) public milestoneReviewRequests;\r\n    uint public milestoneReviewRequestCount;\r\n\r\n    event RequestSent(uint requestId, uint projectId, address freelancer);\r\n    event RequestAccepted(uint requestId, address freelancer, address escrowContract);\r\n    event RequestRejected(uint requestId, address freelancer);\r\n    event QuotationProposed(uint projectId, address proposedBy, uint amount);\r\n    event QuotationCounterProposed(uint projectId, address proposedBy, uint amount, string notes);\r\n    event QuotationAccepted(uint projectId, uint newAmount);\r\n    event QuotationRejected(uint projectId);\r\n    event MilestoneReviewRequestSent(uint requestId, uint milestoneId, string cid);\r\n    event MilestoneAccepted(uint projectId, uint milestoneId, uint updatedRating);\r\n    event MilestoneReviewRequestRejected(uint indexed reviewRequestId, string reason);\r\n    event RejectionReasonAccepted(uint _reviewRequestId);\r\n    event EscrowReleased(uint requestId, address escrowContract, uint amount);\r\n\r\n    constructor(address _projectsContract) {\r\n        projectsContract = Projects(_projectsContract);\r\n    }\r\n\r\n    function getProjectsContractAddress() public view returns (address) {\r\n        return address(projectsContract);\r\n    }\r\n\r\n    function debugProjectCount() public view returns (uint) {\r\n        return projectsContract.projectCount();\r\n    }\r\n\r\n    function sendRequest(uint _projectId, uint _freelancerRating) public {\r\n        require(_projectId > 0 && _projectId <= projectsContract.projectCount(), \"Invalid project ID\");\r\n        (,, , , Projects.Status status, , ) = projectsContract.getProject(_projectId);\r\n        require(status == Projects.Status.Open, \"Project is not open\");\r\n\r\n        // Create a new request\r\n        requestCount++; // Increment request count to create a unique ID\r\n        requests[requestCount] = Request({\r\n            projectId: _projectId,\r\n            freelancer: msg.sender,\r\n            freelancerRating: _freelancerRating,\r\n            status: RequestStatus.Pending,\r\n            escrowContract: Escrow(address(0))\r\n        });\r\n        \r\n        // Map projectId to requestId for easy lookup\r\n        projectToRequest[_projectId] = requestCount;\r\n\r\n        emit RequestSent(requestCount, _projectId, msg.sender);\r\n    }\r\n\r\n    function acceptRequest(uint _requestId) public payable {\r\n        Request storage request = requests[_requestId];\r\n        require(request.freelancer != address(0), \"No request exists for this ID\");\r\n        require(request.status == RequestStatus.Pending, \"Request is not pending\");\r\n\r\n        // Fetch project details\r\n        (,, , uint projectReward, Projects.Status status, address employer, ) = projectsContract.getProject(request.projectId);\r\n        require(msg.sender == employer, \"Only the employer can accept the request\");\r\n        require(status == Projects.Status.Open, \"Project must be open\");\r\n\r\n        // Create new escrow contract instance with freelancer and employer details\r\n        request.escrowContract = new Escrow{value: projectReward}(request.freelancer, employer, address(this), projectReward);\r\n\r\n        request.status = RequestStatus.Accepted;\r\n        \r\n        // Mark freelancer as assigned and close the project\r\n        assignedFreelancer[request.projectId] = request.freelancer;\r\n        projectsContract.closeProject(request.projectId);\r\n        \r\n        emit RequestAccepted(_requestId, request.freelancer, address(request.escrowContract));\r\n    }\r\n\r\n    function rejectRequest(uint _requestId) public {\r\n        Request storage request = requests[_requestId];\r\n        require(request.freelancer != address(0), \"No request exists for this ID\");\r\n        require(request.status == RequestStatus.Pending, \"Request already processed\");\r\n\r\n        request.status = RequestStatus.Rejected;\r\n        emit RequestRejected(_requestId, request.freelancer);\r\n    }\r\n\r\n    \r\n\r\n    function getRequest(uint _requestId) public view returns (Request memory) {\r\n        require(requests[_requestId].freelancer != address(0), \"No request exists for this ID\");\r\n        return requests[_requestId];\r\n    }\r\n\r\n    // New function to view all requests\r\n    function viewAllRequests() public view returns (\r\n        uint[] memory requestIds,\r\n        uint[] memory projectIds,\r\n        address[] memory freelancers,\r\n        uint[] memory ratings,\r\n        RequestStatus[] memory statuses,\r\n        address[] memory escrowContracts\r\n    ) {\r\n        uint count = requestCount;\r\n\r\n        // Initialize arrays based on the total request count\r\n        requestIds = new uint[](count);\r\n        projectIds = new uint[](count);\r\n        freelancers = new address[](count);\r\n        ratings = new uint[](count);\r\n        statuses = new RequestStatus[](count);\r\n        escrowContracts = new address[](count);\r\n\r\n        // Populate the arrays with request details\r\n        for (uint i = 1; i <= requestCount; i++) {\r\n            Request storage request = requests[i];\r\n            requestIds[i - 1] = i;\r\n            projectIds[i - 1] = request.projectId;\r\n            freelancers[i - 1] = request.freelancer;\r\n            ratings[i - 1] = request.freelancerRating;\r\n            statuses[i - 1] = request.status;\r\n            escrowContracts[i - 1] = address(request.escrowContract);\r\n        }\r\n\r\n        return (requestIds, projectIds, freelancers, ratings, statuses, escrowContracts);\r\n    }\r\n\r\n\r\n    function viewAllReviewResponses() public view returns (\r\n        uint[] memory responseIds,\r\n        uint[] memory milestoneIds,\r\n        address[] memory freelancers,\r\n        string[] memory responses,\r\n        bool[] memory acceptedStatuses\r\n    ) {\r\n        uint count = responseCount;\r\n\r\n        // Initialize arrays based on the total response count\r\n        responseIds = new uint[](count);\r\n        milestoneIds = new uint[](count);\r\n        freelancers = new address[](count);\r\n        responses = new string[](count);\r\n        acceptedStatuses = new bool[](count);\r\n\r\n        // Populate the arrays with response details\r\n        for (uint i = 1; i <= count; i++) {\r\n            ReviewResponse storage reviewResponse = reviewResponses[i];\r\n            responseIds[i - 1] = reviewResponse.id;\r\n            milestoneIds[i - 1] = reviewResponse.milestoneId;\r\n            freelancers[i - 1] = reviewResponse.freelancer;\r\n            responses[i - 1] = reviewResponse.response;\r\n            acceptedStatuses[i - 1] = reviewResponse.accepted;\r\n        }\r\n\r\n        return (responseIds, milestoneIds, freelancers, responses, acceptedStatuses);\r\n    }\r\n\r\n\r\n    // function acceptMilestone(uint _milestoneId, uint _actualDaysTaken, uint _delayPenalty, uint _requestId) public payable {\r\n    //     Request memory request = getRequest(_requestId); // Retrieve the request using requestId\r\n\r\n    //     // Ensure projectId is valid\r\n    //     require(request.projectId > 0 && request.projectId <= projectsContract.projectCount(), \"Project does not exist\");\r\n\r\n    //     // Retrieve the project details using the getProject function\r\n    //     (, , , uint reward, , address employer) = projectsContract.getProject(request.projectId);\r\n    //     require(msg.sender == employer, \"Only the employer can accept milestones\");\r\n\r\n    //     // Ensure milestoneId is valid\r\n    //     (\r\n    //         uint[] memory ids,\r\n    //         uint[] memory projectIds,\r\n    //         string[] memory names,\r\n    //         string[] memory descriptions,\r\n    //         uint[] memory daycounts,\r\n    //         uint[] memory percentages,\r\n    //         bool[] memory completions,\r\n    //         string[] memory proofFileHashes\r\n    //     ) = projectsContract.getMilestones(request.projectId);\r\n\r\n    //     // Check if the milestone exists and is within bounds\r\n    //     require(_milestoneId > 0 && _milestoneId <= ids.length, \"Milestone does not exist\");\r\n        \r\n    //     // Fetch milestone data by using _milestoneId as an index\r\n    //     uint milestoneIndex = _milestoneId - 1;\r\n    //     require(!completions[milestoneIndex], \"Milestone already completed\");\r\n    //     require(bytes(proofFileHashes[milestoneIndex]).length > 0, \"Proof file not uploaded\");\r\n\r\n    //     // Mark the milestone as completed\r\n    //     projectsContract.completeMilestone(request.projectId, _milestoneId);\r\n\r\n    //     // Calculate and update freelancer rating based on the provided formula\r\n    //     uint currentRating = projectsContract.getFreelancerRating(request.freelancer);\r\n    //     uint rewardWeight = (percentages[milestoneIndex] * reward) / 100;\r\n    //     int ratingChange = int((5 * 100 * rewardWeight * daycounts[milestoneIndex]) / (reward * _actualDaysTaken));\r\n\r\n    //     // Cap the increment at +0.2 if positive\r\n    //     if (ratingChange > 20) {\r\n    //         ratingChange = 20;\r\n    //     }\r\n\r\n    //     uint newRating = uint(int(currentRating) + ratingChange);\r\n\r\n    //     // Ensure new rating doesn't exceed 5.0 (500 basis points)\r\n    //     if (newRating > 500) {\r\n    //         newRating = 500;\r\n    //     }\r\n\r\n    //     // Update the freelancer's rating\r\n    //     projectsContract.setFreelancerRating(request.freelancer, newRating);\r\n\r\n    //     // Release milestone payment from the escrow with the specified penalty\r\n    //     uint milestonePercentage = percentages[milestoneIndex];\r\n    //     request.escrowContract.releaseMilestonePayment(milestonePercentage, _delayPenalty);\r\n\r\n    //     emit MilestoneAccepted(request.projectId, _milestoneId, newRating);\r\n    // }\r\n\r\n\r\n    function viewRequestsByEmployer() public view returns (\r\n            uint[] memory requestIds,\r\n            uint[] memory projectIds,\r\n            address[] memory freelancers,\r\n            uint[] memory ratings,\r\n            RequestStatus[] memory statuses,\r\n            address[] memory escrowContracts\r\n        ) {\r\n            uint count = 0;\r\n\r\n            // Count requests that belong to projects owned by the employer\r\n            for (uint i = 1; i <= requestCount; i++) {\r\n                uint projectId = requests[i].projectId;\r\n                (, , , , , address employer, ) = projectsContract.getProject(projectId);\r\n                if (employer == msg.sender) {\r\n                    count++;\r\n                }\r\n            }\r\n\r\n            // Initialize arrays based on the count of matching requests\r\n            requestIds = new uint[](count);\r\n            projectIds = new uint[](count);\r\n            freelancers = new address[](count);\r\n            ratings = new uint[](count);\r\n            statuses = new RequestStatus[](count);\r\n            escrowContracts = new address[](count);\r\n\r\n            uint index = 0;\r\n\r\n            // Populate the arrays with matching request details\r\n            for (uint i = 1; i <= requestCount; i++) {\r\n                uint projectId = requests[i].projectId;\r\n                (, , , , , address employer, ) = projectsContract.getProject(projectId);\r\n                if (employer == msg.sender) {\r\n                    Request storage request = requests[i];\r\n                    requestIds[index] = i;\r\n                    projectIds[index] = request.projectId;\r\n                    freelancers[index] = request.freelancer;\r\n                    ratings[index] = request.freelancerRating;\r\n                    statuses[index] = request.status;\r\n                    escrowContracts[index] = address(request.escrowContract);\r\n                    index++;\r\n                }\r\n            }\r\n\r\n            return (requestIds, projectIds, freelancers, ratings, statuses, escrowContracts);\r\n    }\r\n\r\n    function sendMilestoneReviewRequest(uint _milestoneId, string calldata _cid, address _freelancer) public {\r\n        // Create a new milestone review request\r\n        milestoneReviewRequestCount++; // Increment count for unique ID\r\n        milestoneReviewRequests[milestoneReviewRequestCount] = MilestoneReviewRequest({\r\n            id: milestoneReviewRequestCount,\r\n            milestoneId: _milestoneId,\r\n            freelancer: _freelancer,\r\n            cid: _cid,\r\n            reviewed: false // Initially, the request is not reviewed\r\n        });\r\n\r\n        emit MilestoneReviewRequestSent(milestoneReviewRequestCount, _milestoneId, _cid); // Emit event\r\n    }\r\n\r\n    function viewAllMilestoneReviewRequests() public view returns (\r\n        uint[] memory requestIds,\r\n        uint[] memory milestoneIds,\r\n        address[] memory freelancers,\r\n        string[] memory cids,\r\n        bool[] memory reviewedStatuses\r\n    ) {\r\n        uint count = milestoneReviewRequestCount;\r\n\r\n        // Initialize arrays based on the total count of review requests\r\n        requestIds = new uint[](count);\r\n        milestoneIds = new uint[](count);\r\n        freelancers = new address[](count);\r\n        cids = new string[](count);\r\n        reviewedStatuses = new bool[](count);\r\n\r\n        // Populate the arrays with review request details\r\n        for (uint i = 1; i <= milestoneReviewRequestCount; i++) {\r\n            MilestoneReviewRequest storage reviewRequest = milestoneReviewRequests[i];\r\n            requestIds[i - 1] = reviewRequest.id;\r\n            milestoneIds[i - 1] = reviewRequest.milestoneId;\r\n            freelancers[i - 1] = reviewRequest.freelancer;\r\n            cids[i - 1] = reviewRequest.cid;\r\n            reviewedStatuses[i - 1] = reviewRequest.reviewed;\r\n        }\r\n\r\n        return (requestIds, milestoneIds, freelancers, cids, reviewedStatuses);\r\n    }\r\n\r\n\r\n    function getEscrowAccountFromReviewRequest(uint _reviewRequestId, uint _projectId) public view returns (Escrow) {\r\n        // Fetch the MilestoneReviewRequest using the provided ID\r\n        MilestoneReviewRequest storage reviewRequest = milestoneReviewRequests[_reviewRequestId];\r\n\r\n        // Ensure the review request exists\r\n        require(reviewRequest.id != 0, \"Review request does not exist\");\r\n        \r\n        // Find the corresponding request based on the project ID and freelancer address\r\n        for (uint i = 1; i <= requestCount; i++) {\r\n            Request storage request = requests[i];\r\n\r\n            // Check if the request matches the provided projectId and the freelancer address from the review request\r\n            if (request.projectId == _projectId && request.freelancer == reviewRequest.freelancer && request.status == RequestStatus.Accepted) {\r\n                return request.escrowContract; // Return the escrow contract associated with the request\r\n            }\r\n        }\r\n\r\n        // If no matching request was found, revert with an error message\r\n        revert(\"No matching request found for this review request\");\r\n    }\r\n\r\n    function acceptMilestoneReviewRequest(uint _reviewRequestId, uint _milestoneId) public payable {\r\n        // Fetch the  request using the ID\r\n        MilestoneReviewRequest storage reviewRequest = milestoneReviewRequests[_reviewRequestId];\r\n        require(!reviewRequest.reviewed, \"Review request already accepted\");\r\n\r\n        // Find the project ID that contains this milestone\r\n        uint _projId = 0;\r\n        uint projectCount = projectsContract.projectCount();\r\n        for (uint p = 1; p <= projectCount; p++) {\r\n            (uint[] memory tempIds, , , , , , , , , , ) = projectsContract.getMilestones(p);\r\n            for (uint m = 0; m < tempIds.length; m++) {\r\n                if (tempIds[m] == _milestoneId) {\r\n                    _projId = p;\r\n                    break;\r\n                }\r\n            }\r\n            if (_projId != 0) break;\r\n        }\r\n        require(_projId != 0, \"Milestone not found in any project\");\r\n\r\n        // Get the milestone ID from the  request\r\n        uint milestoneId = _milestoneId;\r\n\r\n        // Retrieve the associated milestones for the project\r\n        (\r\n            uint[] memory ids,\r\n            uint[] memory _projectIds,\r\n            string[] memory names,\r\n            string[] memory descriptions,\r\n            uint[] memory daycounts,\r\n            uint[] memory percentages,\r\n            Projects.MilestoneStatus[] memory statuses,\r\n            address[] memory freelancers,\r\n            address[] memory clients,\r\n            uint[] memory amounts,\r\n            string[] memory proofFileHashes\r\n        ) = projectsContract.getMilestones(_projId);\r\n\r\n        // Initialize variables to store the milestone data once we find it\r\n        bool milestoneFound = false;\r\n        string memory milestoneName;\r\n        string memory milestoneDescription;\r\n        uint milestoneDaycount;\r\n        uint milestonePercentage;\r\n        Projects.MilestoneStatus milestoneStatus;\r\n        address milestoneFreelancer;\r\n        address milestoneClient;\r\n        uint milestoneAmount;\r\n        string memory milestoneProofFileHash;\r\n\r\n        // Fetch project details and validate the caller is the employer\r\n        (, , , , Projects.Status _status, address employer, ) = projectsContract.getProject(_projId);\r\n        _projectIds.length;\r\n        _status;\r\n        require(msg.sender == employer, \"Only the employer can accept milestone review requests\");\r\n\r\n        // Search for the milestone with the specified milestoneId\r\n        uint milestoneIndex = type(uint).max;\r\n        for (uint i = 0; i < ids.length; i++) {\r\n            if (ids[i] == milestoneId) {\r\n                milestoneFound = true;\r\n                milestoneIndex = i;\r\n                milestoneName = names[i];\r\n                milestoneDescription = descriptions[i];\r\n                milestoneDaycount = daycounts[i];\r\n                milestonePercentage = percentages[i];\r\n                milestoneStatus = statuses[i];\r\n                milestoneFreelancer = freelancers[i];\r\n                milestoneClient = clients[i];\r\n                milestoneAmount = amounts[i];\r\n                milestoneProofFileHash = proofFileHashes[i];\r\n                break;\r\n            }\r\n        }\r\n\r\n        require(milestoneFound, \"Milestone does not exist\");\r\n\r\n        reviewRequest.reviewed = true;\r\n\r\n        // Mark the milestone completed in the Projects contract\r\n        projectsContract.completeMilestone(_projId, milestoneId);\r\n\r\n        // Update our local status snapshot to reflect the change just made in Projects\r\n        if (milestoneIndex != type(uint).max) {\r\n            statuses[milestoneIndex] = Projects.MilestoneStatus.Approved;\r\n        }\r\n\r\n        // Get freelancer's address from the request\r\n        address freelancer = reviewRequest.freelancer;\r\n\r\n        // Update freelancer rating based on the milestone percentage\r\n        uint currentRating = projectsContract.getFreelancerRating(freelancer);\r\n        // uint rewardWeight = projReward / 100;\r\n        uint newRating = currentRating + (5 * milestonePercentage / 100);\r\n\r\n        // Ensure the new rating does not exceed 500\r\n        if (newRating > 500) {\r\n            newRating = 500;\r\n        }\r\n\r\n        // Set the new rating for the freelancer\r\n        projectsContract.setFreelancerRating(freelancer, newRating);\r\n\r\n        // If all milestones are now approved, release escrow funds to the freelancer\r\n        bool allMilestonesApproved = true;\r\n        for (uint i = 0; i < statuses.length; i++) {\r\n            if (statuses[i] != Projects.MilestoneStatus.Approved) {\r\n                allMilestonesApproved = false;\r\n                break;\r\n            }\r\n        }\r\n\r\n        if (allMilestonesApproved) {\r\n            Escrow escrow = getEscrowAccountFromReviewRequest(_reviewRequestId, _projId);\r\n            uint escrowAmount = escrow.amount();\r\n            escrow.releaseFunds();\r\n            emit EscrowReleased(_reviewRequestId, address(escrow), escrowAmount);\r\n        }\r\n\r\n        uint milestoneIdForResponse = milestoneId;\r\n        address _freelancer = reviewRequest.freelancer;\r\n\r\n        responseCount++;\r\n        reviewResponses[responseCount] = ReviewResponse({\r\n            id: responseCount,\r\n            milestoneId: milestoneIdForResponse,\r\n            freelancer: _freelancer,\r\n            response: \"\",\r\n            accepted: true\r\n        });\r\n    }\r\n    //     require(projEmployer == msg.sender, \"Only the employer can accept milestones\");\r\n\r\n    //     // Mark the review request as accepted\r\n    //     reviewRequest.reviewed = true;\r\n\r\n    //     // Get freelancer's address from the request\r\n    //     address freelancer = reviewRequest.freelancer;\r\n\r\n    //     // Update freelancer rating based on the milestone percentage\r\n    //     uint currentRating = projectsContract.getFreelancerRating(freelancer);\r\n    //     uint rewardWeight = projReward / 100;\r\n    //     uint newRating = currentRating + (5 * milestonePercentage / rewardWeight);\r\n\r\n    //     // Ensure the new rating does not exceed 500\r\n    //     if (newRating > 500) {\r\n    //         newRating = 500;\r\n    //     }\r\n\r\n    //     // Set the new rating for the freelancer\r\n    //     projectsContract.setFreelancerRating(freelancer, newRating);\r\n\r\n    //     // Find the request with the matching projectId and freelancer\r\n    //     uint requestIndex;\r\n    //     bool foundRequest = false;\r\n\r\n    //     for (uint i = 0; i < requestCount; i++) {\r\n    //         if (requests[i].projectId == _projId && requests[i].freelancer == freelancer && requests[i].status == RequestStatus.Accepted) {\r\n    //             requestIndex = i;\r\n    //             foundRequest = true;\r\n    //             break;\r\n    //         }\r\n    //     }\r\n    //     require(foundRequest, \"Associated request not found\");\r\n\r\n    //     // Release the milestone payment from escrow using the found request\r\n    //     requests[requestIndex].escrowContract.releaseMilestonePayment(milestonePercentage);\r\n\r\n    //     // Emit an event to record the milestone acceptance\r\n    //     emit MilestoneAccepted(projId, milestoneId, newRating);\r\n    // }\r\n\r\n    // function acceptMilestoneReviewRequest(uint _reviewRequestId, uint _projId) public payable {\r\n    //     // Fetch the request using the ID\r\n    //     MilestoneReviewRequest storage reviewRequest = milestoneReviewRequests[_reviewRequestId];\r\n    //     require(reviewRequest.id != 0, \"Review request does not exist\");\r\n    //     require(!reviewRequest.reviewed, \"Review request already accepted\");\r\n\r\n    //     // Get the milestone ID from the request\r\n    //     uint milestoneId = reviewRequest.milestoneId;\r\n\r\n    //     // Retrieve the associated milestones for the project\r\n    //     (\r\n    //         uint[] memory ids,\r\n    //         ,  // projectIds not used\r\n    //         ,  // names not used\r\n    //         ,  // descriptions not used\r\n    //         uint[] memory daycounts,\r\n    //         uint[] memory percentages,\r\n    //         bool[] memory completions,\r\n    //         string[] memory proofFileHashes\r\n    //     ) = projectsContract.getMilestones(_projId);\r\n\r\n    //     // Verify that the milestone exists and get its index\r\n    //     uint milestoneIndex;\r\n    //     bool milestoneFound = false;\r\n    //     for (uint i = 0; i < ids.length; i++) {\r\n    //         if (ids[i] == milestoneId) {\r\n    //             milestoneIndex = i;\r\n    //             milestoneFound = true;\r\n    //             break;\r\n    //         }\r\n    //     }\r\n    //     require(milestoneFound, \"Milestone does not exist\");\r\n    //     require(!completions[milestoneIndex], \"Milestone already completed\");\r\n    //     require(bytes(proofFileHashes[milestoneIndex]).length > 0, \"Proof file not uploaded\");\r\n\r\n    //     // Get project details\r\n    //     (, , , uint projReward, , address projEmployer) = projectsContract.getProject(_projId);\r\n    //     require(msg.sender == projEmployer, \"Only the employer can accept milestones\");\r\n\r\n    //     // Mark the milestone as completed in the Projects contract\r\n    //     projectsContract.completeMilestone(_projId, milestoneId);\r\n\r\n    //     // Mark the review request as accepted\r\n    //     reviewRequest.reviewed = true;\r\n\r\n    //     // Get freelancer's address from the request\r\n    //     address freelancer = reviewRequest.freelancer;\r\n\r\n    //     // Update freelancer rating\r\n    //     uint currentRating = projectsContract.getFreelancerRating(freelancer);\r\n    //     uint milestonePercentage = percentages[milestoneIndex];\r\n        \r\n    //     // Calculate rating increase based on milestone percentage and project reward\r\n    //     uint ratingIncrease = (5 * milestonePercentage * daycounts[milestoneIndex]) / 100;\r\n    //     uint newRating = currentRating + ratingIncrease;\r\n        \r\n    //     // Cap the rating at 500 (5.0)\r\n    //     if (newRating > 500) {\r\n    //         newRating = 500;\r\n    //     }\r\n\r\n    //     // Update the freelancer's rating\r\n    //     projectsContract.setFreelancerRating(freelancer, newRating);\r\n\r\n    //     // Find the associated request for the escrow\r\n    //     uint requestId;\r\n    //     bool foundRequest = false;\r\n    //     for (uint i = 1; i <= requestCount; i++) {\r\n    //         if (requests[i].projectId == _projId && \r\n    //             requests[i].freelancer == freelancer && \r\n    //             requests[i].status == RequestStatus.Accepted) {\r\n    //             requestId = i;\r\n    //             foundRequest = true;\r\n    //             break;\r\n    //         }\r\n    //     }\r\n    //     require(foundRequest, \"Associated request not found\");\r\n    //     require(address(requests[requestId].escrowContract) != address(0), \"Escrow contract not found\");\r\n\r\n    //     // Release the milestone payment from escrow\r\n    //     requests[requestId].escrowContract.releaseMilestonePayment(milestonePercentage);\r\n\r\n    //     // Emit event\r\n    //     emit MilestoneAccepted(_projId, milestoneId, newRating);\r\n    // }\r\n\r\n\r\n\r\n\r\n    function rejectMilestoneReviewRequest(uint _reviewRequestId, string calldata _reason)  public {\r\n        MilestoneReviewRequest storage reviewRequest = milestoneReviewRequests[_reviewRequestId];\r\n        require(!reviewRequest.reviewed, \"Review request already processed\");\r\n        reviewRequest.reviewed = true;\r\n\r\n        uint _milestoneId = reviewRequest.milestoneId;\r\n        address _freelancer = reviewRequest.freelancer;\r\n\r\n        responseCount++;\r\n        // request.escrowContract = new ReviewResponse{value: projectReward}(request.freelancer, employer);\r\n        reviewResponses[responseCount] = ReviewResponse({\r\n            id: responseCount,\r\n            milestoneId: _milestoneId,\r\n            freelancer: _freelancer,\r\n            response: _reason,\r\n            accepted: false\r\n        });\r\n\r\n        emit MilestoneReviewRequestRejected(_reviewRequestId, _reason);\r\n    }\r\n\r\n    function acceptRejectionReason(uint _reviewRequestId) public {\r\n        // Fetch the request using the ID\r\n        MilestoneReviewRequest storage reviewRequest = milestoneReviewRequests[_reviewRequestId];\r\n        \r\n        // Check if the request exists and if it is not already reviewed\r\n        require(reviewRequest.freelancer == msg.sender, \"Only the freelancer can accept the rejection reason\");\r\n        require(!reviewRequest.reviewed, \"Review request already reviewed\");\r\n\r\n        // Accept the rejection reason and mark the request as reviewed\r\n        reviewRequest.reviewed = true;\r\n\r\n        // Emit an event for this action (optional)\r\n        emit RejectionReasonAccepted(_reviewRequestId);\r\n    }\r\n\r\n\r\n    function addFile(\r\n        uint _milestoneId, \r\n        string memory _name, \r\n        string memory _rid, \r\n        string memory _cid\r\n    ) public {\r\n        // Create a new File struct with a unique ID and add it to the milestoneFiles map\r\n        File memory newFile = File({\r\n            id: fileCount, // unique global ID for each file\r\n            milestoneId: _milestoneId,\r\n            name: _name,\r\n            rid: _rid,\r\n            cid: _cid\r\n        });\r\n        \r\n        milestoneFiles[_milestoneId].push(newFile); // Add file to the array for the specific milestone\r\n        fileCount++; // Increment the global file count\r\n    }\r\n\r\n    function viewAllFilesForMilestone(uint _milestoneId) \r\n        public \r\n        view \r\n        returns (\r\n            uint[] memory ids,\r\n            uint[] memory milestoneIds,\r\n            string[] memory names,\r\n            string[] memory rids,\r\n            string[] memory cids\r\n        ) \r\n    {\r\n        uint count = fileCount; // Assuming 'fileCount' keeps track of the total files added\r\n\r\n        // Initialize arrays based on the total file count for the specified milestone\r\n        ids = new uint[](count);\r\n        milestoneIds = new uint[](count);\r\n        names = new string[](count);\r\n        rids = new string[](count);\r\n        cids = new string[](count);\r\n\r\n        // Populate the arrays with file details for the given milestone\r\n        uint index = 0;\r\n        for (uint i = 0; i < count; i++) {\r\n            if (milestoneFiles[_milestoneId][i].milestoneId == _milestoneId) {\r\n                File storage file = milestoneFiles[_milestoneId][i];\r\n                ids[index] = file.id;\r\n                milestoneIds[index] = file.milestoneId;\r\n                names[index] = file.name;\r\n                rids[index] = file.rid;\r\n                cids[index] = file.cid;\r\n                index++;\r\n            }\r\n        }\r\n\r\n        return (ids, milestoneIds, names, rids, cids);\r\n    }\r\n\r\n    // ===== NEW FUNCTIONS FOR ADDITIONAL FEATURES =====\r\n\r\n    /**\r\n     * Send a request draft from freelancer to employer (client)\r\n     */\r\n    /**\r\n     * Quotation Functions\r\n     */\r\n    \r\n    function proposeQuotation(uint _projectId, uint _proposedAmount, string memory _description) public {\r\n        require(_projectId > 0 && _projectId <= projectsContract.projectCount(), \"Invalid project ID\");\r\n        require(_proposedAmount > 0, \"Amount must be greater than 0\");\r\n        require(bytes(_description).length > 0, \"Description cannot be empty\");\r\n        \r\n        uint requestId = projectToRequest[_projectId];\r\n        require(requestId > 0, \"No request exists for this project\");\r\n        \r\n        (,,,, Projects.Status status, address employer, ) = projectsContract.getProject(_projectId);\r\n        require(status == Projects.Status.Open, \"Project is not open for quotations\");\r\n        \r\n        Request storage request = requests[requestId];\r\n        // Can be proposed by freelancer (requesting the project) or employer (counter-offer)\r\n        require(msg.sender == request.freelancer || msg.sender == employer, \"Only freelancer or employer can propose quotation\");\r\n\r\n        Quotation memory newQuotation = Quotation({\r\n            projectId: _projectId,\r\n            proposedBy: msg.sender,\r\n            proposedAmount: _proposedAmount,\r\n            description: _description,\r\n            negotiationNotes: \"\",\r\n            status: QuotationStatus.Proposed,\r\n            timestamp: block.timestamp\r\n        });\r\n\r\n        quotations[_projectId].push(newQuotation);\r\n        emit QuotationProposed(_projectId, msg.sender, _proposedAmount);\r\n    }\r\n\r\n    function counterPropose(uint _projectId, uint _newAmount, string memory _notes) public {\r\n        require(_projectId > 0 && _projectId <= projectsContract.projectCount(), \"Invalid project ID\");\r\n        require(_newAmount > 0, \"Amount must be greater than 0\");\r\n        require(quotations[_projectId].length > 0, \"No quotations exist for this project\");\r\n        \r\n        uint requestId = projectToRequest[_projectId];\r\n        require(requestId > 0, \"No request exists for this project\");\r\n        \r\n        (,,,, Projects.Status status, address employer, ) = projectsContract.getProject(_projectId);\r\n        require(status == Projects.Status.Open, \"Project is not open for negotiation\");\r\n        \r\n        Request storage request = requests[requestId];\r\n        Quotation[] storage projQuotations = quotations[_projectId];\r\n        uint lastIdx = projQuotations.length - 1;\r\n        Quotation storage lastQuotation = projQuotations[lastIdx];\r\n        \r\n        // Counter offer must come from the other party\r\n        if (lastQuotation.proposedBy == request.freelancer) {\r\n            require(msg.sender == employer, \"Only employer can counter-offer on freelancer's proposal\");\r\n        } else {\r\n            require(msg.sender == request.freelancer, \"Only freelancer can counter-offer on employer's proposal\");\r\n        }\r\n        \r\n        lastQuotation.status = QuotationStatus.Negotiating;\r\n        lastQuotation.proposedAmount = _newAmount;\r\n        lastQuotation.negotiationNotes = _notes;\r\n        \r\n        emit QuotationCounterProposed(_projectId, msg.sender, _newAmount, _notes);\r\n    }\r\n\r\n    function acceptQuotation(uint _projectId, uint _quotationIndex) public payable {\r\n        require(_projectId > 0 && _projectId <= projectsContract.projectCount(), \"Invalid project ID\");\r\n        require(_quotationIndex < quotations[_projectId].length, \"Invalid quotation index\");\r\n        \r\n        uint requestId = projectToRequest[_projectId];\r\n        require(requestId > 0, \"No request exists for this project\");\r\n        \r\n        (,,,, Projects.Status status, address employer, ) = projectsContract.getProject(_projectId);\r\n        require(status == Projects.Status.Open, \"Project is not open\");\r\n        require(msg.sender == employer, \"Only employer can accept quotation\");\r\n        \r\n        Request storage request = requests[requestId];\r\n        Quotation storage quotation = quotations[_projectId][_quotationIndex];\r\n        require(quotation.status == QuotationStatus.Proposed || quotation.status == QuotationStatus.Negotiating, \"Quotation cannot be accepted\");\r\n        require(msg.value == quotation.proposedAmount, \"Sent amount must match proposed amount\");\r\n        \r\n        quotation.status = QuotationStatus.Accepted;\r\n        \r\n        // Create escrow with new amount\r\n        Escrow escrow = new Escrow{value: quotation.proposedAmount}(request.freelancer, employer, address(this), quotation.proposedAmount);\r\n        request.escrowContract = escrow;\r\n        request.status = RequestStatus.Accepted;\r\n        \r\n        assignedFreelancer[_projectId] = request.freelancer;\r\n        projectsContract.closeProject(_projectId);\r\n        \r\n        emit QuotationAccepted(_projectId, quotation.proposedAmount);\r\n    }\r\n\r\n    function rejectQuotation(uint _projectId, uint _quotationIndex) public {\r\n        require(_projectId > 0 && _projectId <= projectsContract.projectCount(), \"Invalid project ID\");\r\n        require(_quotationIndex < quotations[_projectId].length, \"Invalid quotation index\");\r\n        \r\n        (,,,, Projects.Status status, address employer, ) = projectsContract.getProject(_projectId);\r\n        require(status == Projects.Status.Open, \"Project is not open\");\r\n        require(msg.sender == employer, \"Only employer can reject quotation\");\r\n        \r\n        Quotation storage quotation = quotations[_projectId][_quotationIndex];\r\n        quotation.status = QuotationStatus.Rejected;\r\n        \r\n        emit QuotationRejected(_projectId);\r\n    }\r\n\r\n    function getQuotations(uint _projectId) public view returns (Quotation[] memory) {\r\n        return quotations[_projectId];\r\n    }\r\n\r\n    function getLatestQuotation(uint _projectId) public view returns (Quotation memory) {\r\n        require(quotations[_projectId].length > 0, \"No quotations for this project\");\r\n        return quotations[_projectId][quotations[_projectId].length - 1];\r\n    }\r\n\r\n    function isProjectAssigned(uint _projectId) public view returns (bool) {\r\n        return assignedFreelancer[_projectId] != address(0);\r\n    }\r\n}\r\n\r\n",
  "sourcePath": "D:\\Maj_proj\\Lance-With-quote\\truffle_project\\contracts\\RequestManager.sol",
  "compiler": {
    "name": "solc",
    "version": "0.8.35+commit.47b9dedd.Emscripten.clang"
  },
  "schemaVersion": "3.4.16",
  "updatedAt": "2026-05-02T19:03:06.930Z",
  "devdoc": {
    "kind": "dev",
    "methods": {},
    "version": 1
  },
  "userdoc": {
    "kind": "user",
    "methods": {},
    "version": 1
  }
}