{
  "contractName": "RequestManager",
  "abi": [
    {
      "inputs": [
        {
          "internalType": "address",
          "name": "_projectsContract",
          "type": "address"
        }
      ],
      "stateMutability": "nonpayable",
      "type": "constructor"
    },
    {
      "anonymous": false,
      "inputs": [
        {
          "indexed": false,
          "internalType": "uint256",
          "name": "requestId",
          "type": "uint256"
        },
        {
          "indexed": false,
          "internalType": "address",
          "name": "escrowContract",
          "type": "address"
        },
        {
          "indexed": false,
          "internalType": "uint256",
          "name": "amount",
          "type": "uint256"
        }
      ],
      "name": "EscrowReleased",
      "type": "event"
    },
    {
      "anonymous": false,
      "inputs": [
        {
          "indexed": false,
          "internalType": "uint256",
          "name": "projectId",
          "type": "uint256"
        },
        {
          "indexed": false,
          "internalType": "uint256",
          "name": "milestoneId",
          "type": "uint256"
        },
        {
          "indexed": false,
          "internalType": "uint256",
          "name": "updatedRating",
          "type": "uint256"
        }
      ],
      "name": "MilestoneAccepted",
      "type": "event"
    },
    {
      "anonymous": false,
      "inputs": [
        {
          "indexed": true,
          "internalType": "uint256",
          "name": "reviewRequestId",
          "type": "uint256"
        },
        {
          "indexed": false,
          "internalType": "string",
          "name": "reason",
          "type": "string"
        }
      ],
      "name": "MilestoneReviewRequestRejected",
      "type": "event"
    },
    {
      "anonymous": false,
      "inputs": [
        {
          "indexed": false,
          "internalType": "uint256",
          "name": "requestId",
          "type": "uint256"
        },
        {
          "indexed": false,
          "internalType": "uint256",
          "name": "milestoneId",
          "type": "uint256"
        },
        {
          "indexed": false,
          "internalType": "string",
          "name": "cid",
          "type": "string"
        }
      ],
      "name": "MilestoneReviewRequestSent",
      "type": "event"
    },
    {
      "anonymous": false,
      "inputs": [
        {
          "indexed": false,
          "internalType": "uint256",
          "name": "projectId",
          "type": "uint256"
        },
        {
          "indexed": false,
          "internalType": "uint256",
          "name": "newAmount",
          "type": "uint256"
        }
      ],
      "name": "QuotationAccepted",
      "type": "event"
    },
    {
      "anonymous": false,
      "inputs": [
        {
          "indexed": false,
          "internalType": "uint256",
          "name": "projectId",
          "type": "uint256"
        },
        {
          "indexed": false,
          "internalType": "address",
          "name": "proposedBy",
          "type": "address"
        },
        {
          "indexed": false,
          "internalType": "uint256",
          "name": "amount",
          "type": "uint256"
        },
        {
          "indexed": false,
          "internalType": "string",
          "name": "notes",
          "type": "string"
        }
      ],
      "name": "QuotationCounterProposed",
      "type": "event"
    },
    {
      "anonymous": false,
      "inputs": [
        {
          "indexed": false,
          "internalType": "uint256",
          "name": "projectId",
          "type": "uint256"
        },
        {
          "indexed": false,
          "internalType": "address",
          "name": "proposedBy",
          "type": "address"
        },
        {
          "indexed": false,
          "internalType": "uint256",
          "name": "amount",
          "type": "uint256"
        }
      ],
      "name": "QuotationProposed",
      "type": "event"
    },
    {
      "anonymous": false,
      "inputs": [
        {
          "indexed": false,
          "internalType": "uint256",
          "name": "projectId",
          "type": "uint256"
        }
      ],
      "name": "QuotationRejected",
      "type": "event"
    },
    {
      "anonymous": false,
      "inputs": [
        {
          "indexed": false,
          "internalType": "uint256",
          "name": "_reviewRequestId",
          "type": "uint256"
        }
      ],
      "name": "RejectionReasonAccepted",
      "type": "event"
    },
    {
      "anonymous": false,
      "inputs": [
        {
          "indexed": false,
          "internalType": "uint256",
          "name": "requestId",
          "type": "uint256"
        },
        {
          "indexed": false,
          "internalType": "address",
          "name": "freelancer",
          "type": "address"
        },
        {
          "indexed": false,
          "internalType": "address",
          "name": "escrowContract",
          "type": "address"
        }
      ],
      "name": "RequestAccepted",
      "type": "event"
    },
    {
      "anonymous": false,
      "inputs": [
        {
          "indexed": false,
          "internalType": "uint256",
          "name": "requestId",
          "type": "uint256"
        },
        {
          "indexed": false,
          "internalType": "address",
          "name": "freelancer",
          "type": "address"
        }
      ],
      "name": "RequestRejected",
      "type": "event"
    },
    {
      "anonymous": false,
      "inputs": [
        {
          "indexed": false,
          "internalType": "uint256",
          "name": "requestId",
          "type": "uint256"
        },
        {
          "indexed": false,
          "internalType": "uint256",
          "name": "projectId",
          "type": "uint256"
        },
        {
          "indexed": false,
          "internalType": "address",
          "name": "freelancer",
          "type": "address"
        }
      ],
      "name": "RequestSent",
      "type": "event"
    },
    {
      "inputs": [
        {
          "internalType": "uint256",
          "name": "",
          "type": "uint256"
        }
      ],
      "name": "assignedFreelancer",
      "outputs": [
        {
          "internalType": "address",
          "name": "",
          "type": "address"
        }
      ],
      "stateMutability": "view",
      "type": "function"
    },
    {
      "inputs": [],
      "name": "fileCount",
      "outputs": [
        {
          "internalType": "uint256",
          "name": "",
          "type": "uint256"
        }
      ],
      "stateMutability": "view",
      "type": "function"
    },
    {
      "inputs": [
        {
          "internalType": "uint256",
          "name": "",
          "type": "uint256"
        },
        {
          "internalType": "uint256",
          "name": "",
          "type": "uint256"
        }
      ],
      "name": "milestoneFiles",
      "outputs": [
        {
          "internalType": "uint256",
          "name": "id",
          "type": "uint256"
        },
        {
          "internalType": "uint256",
          "name": "milestoneId",
          "type": "uint256"
        },
        {
          "internalType": "string",
          "name": "name",
          "type": "string"
        },
        {
          "internalType": "string",
          "name": "rid",
          "type": "string"
        },
        {
          "internalType": "string",
          "name": "cid",
          "type": "string"
        }
      ],
      "stateMutability": "view",
      "type": "function"
    },
    {
      "inputs": [],
      "name": "milestoneReviewRequestCount",
      "outputs": [
        {
          "internalType": "uint256",
          "name": "",
          "type": "uint256"
        }
      ],
      "stateMutability": "view",
      "type": "function"
    },
    {
      "inputs": [
        {
          "internalType": "uint256",
          "name": "",
          "type": "uint256"
        }
      ],
      "name": "milestoneReviewRequests",
      "outputs": [
        {
          "internalType": "uint256",
          "name": "id",
          "type": "uint256"
        },
        {
          "internalType": "uint256",
          "name": "milestoneId",
          "type": "uint256"
        },
        {
          "internalType": "address",
          "name": "freelancer",
          "type": "address"
        },
        {
          "internalType": "string",
          "name": "cid",
          "type": "string"
        },
        {
          "internalType": "bool",
          "name": "reviewed",
          "type": "bool"
        }
      ],
      "stateMutability": "view",
      "type": "function"
    },
    {
      "inputs": [
        {
          "internalType": "uint256",
          "name": "",
          "type": "uint256"
        }
      ],
      "name": "projectToRequest",
      "outputs": [
        {
          "internalType": "uint256",
          "name": "",
          "type": "uint256"
        }
      ],
      "stateMutability": "view",
      "type": "function"
    },
    {
      "inputs": [],
      "name": "projectsContract",
      "outputs": [
        {
          "internalType": "contract Projects",
          "name": "",
          "type": "address"
        }
      ],
      "stateMutability": "view",
      "type": "function"
    },
    {
      "inputs": [
        {
          "internalType": "uint256",
          "name": "",
          "type": "uint256"
        },
        {
          "internalType": "uint256",
          "name": "",
          "type": "uint256"
        }
      ],
      "name": "quotations",
      "outputs": [
        {
          "internalType": "uint256",
          "name": "projectId",
          "type": "uint256"
        },
        {
          "internalType": "address",
          "name": "proposedBy",
          "type": "address"
        },
        {
          "internalType": "uint256",
          "name": "proposedAmount",
          "type": "uint256"
        },
        {
          "internalType": "string",
          "name": "description",
          "type": "string"
        },
        {
          "internalType": "string",
          "name": "negotiationNotes",
          "type": "string"
        },
        {
          "internalType": "enum RequestManager.QuotationStatus",
          "name": "status",
          "type": "uint8"
        },
        {
          "internalType": "uint256",
          "name": "timestamp",
          "type": "uint256"
        }
      ],
      "stateMutability": "view",
      "type": "function"
    },
    {
      "inputs": [],
      "name": "requestCount",
      "outputs": [
        {
          "internalType": "uint256",
          "name": "",
          "type": "uint256"
        }
      ],
      "stateMutability": "view",
      "type": "function"
    },
    {
      "inputs": [
        {
          "internalType": "uint256",
          "name": "",
          "type": "uint256"
        }
      ],
      "name": "requests",
      "outputs": [
        {
          "internalType": "uint256",
          "name": "projectId",
          "type": "uint256"
        },
        {
          "internalType": "address",
          "name": "freelancer",
          "type": "address"
        },
        {
          "internalType": "uint256",
          "name": "freelancerRating",
          "type": "uint256"
        },
        {
          "internalType": "enum RequestManager.RequestStatus",
          "name": "status",
          "type": "uint8"
        },
        {
          "internalType": "contract Escrow",
          "name": "escrowContract",
          "type": "address"
        }
      ],
      "stateMutability": "view",
      "type": "function"
    },
    {
      "inputs": [],
      "name": "responseCount",
      "outputs": [
        {
          "internalType": "uint256",
          "name": "",
          "type": "uint256"
        }
      ],
      "stateMutability": "view",
      "type": "function"
    },
    {
      "inputs": [
        {
          "internalType": "uint256",
          "name": "",
          "type": "uint256"
        }
      ],
      "name": "reviewResponses",
      "outputs": [
        {
          "internalType": "uint256",
          "name": "id",
          "type": "uint256"
        },
        {
          "internalType": "uint256",
          "name": "milestoneId",
          "type": "uint256"
        },
        {
          "internalType": "address",
          "name": "freelancer",
          "type": "address"
        },
        {
          "internalType": "string",
          "name": "response",
          "type": "string"
        },
        {
          "internalType": "bool",
          "name": "accepted",
          "type": "bool"
        }
      ],
      "stateMutability": "view",
      "type": "function"
    },
    {
      "inputs": [],
      "name": "getProjectsContractAddress",
      "outputs": [
        {
          "internalType": "address",
          "name": "",
          "type": "address"
        }
      ],
      "stateMutability": "view",
      "type": "function"
    },
    {
      "inputs": [],
      "name": "debugProjectCount",
      "outputs": [
        {
          "internalType": "uint256",
          "name": "",
          "type": "uint256"
        }
      ],
      "stateMutability": "view",
      "type": "function"
    },
    {
      "inputs": [
        {
          "internalType": "uint256",
          "name": "_projectId",
          "type": "uint256"
        },
        {
          "internalType": "uint256",
          "name": "_freelancerRating",
          "type": "uint256"
        }
      ],
      "name": "sendRequest",
      "outputs": [],
      "stateMutability": "nonpayable",
      "type": "function"
    },
    {
      "inputs": [
        {
          "internalType": "uint256",
          "name": "_requestId",
          "type": "uint256"
        }
      ],
      "name": "acceptRequest",
      "outputs": [],
      "stateMutability": "payable",
      "type": "function"
    },
    {
      "inputs": [
        {
          "internalType": "uint256",
          "name": "_requestId",
          "type": "uint256"
        }
      ],
      "name": "rejectRequest",
      "outputs": [],
      "stateMutability": "nonpayable",
      "type": "function"
    },
    {
      "inputs": [
        {
          "internalType": "uint256",
          "name": "_requestId",
          "type": "uint256"
        }
      ],
      "name": "getRequest",
      "outputs": [
        {
          "components": [
            {
              "internalType": "uint256",
              "name": "projectId",
              "type": "uint256"
            },
            {
              "internalType": "address",
              "name": "freelancer",
              "type": "address"
            },
            {
              "internalType": "uint256",
              "name": "freelancerRating",
              "type": "uint256"
            },
            {
              "internalType": "enum RequestManager.RequestStatus",
              "name": "status",
              "type": "uint8"
            },
            {
              "internalType": "contract Escrow",
              "name": "escrowContract",
              "type": "address"
            }
          ],
          "internalType": "struct RequestManager.Request",
          "name": "",
          "type": "tuple"
        }
      ],
      "stateMutability": "view",
      "type": "function"
    },
    {
      "inputs": [],
      "name": "viewAllRequests",
      "outputs": [
        {
          "internalType": "uint256[]",
          "name": "requestIds",
          "type": "uint256[]"
        },
        {
          "internalType": "uint256[]",
          "name": "projectIds",
          "type": "uint256[]"
        },
        {
          "internalType": "address[]",
          "name": "freelancers",
          "type": "address[]"
        },
        {
          "internalType": "uint256[]",
          "name": "ratings",
          "type": "uint256[]"
        },
        {
          "internalType": "enum RequestManager.RequestStatus[]",
          "name": "statuses",
          "type": "uint8[]"
        },
        {
          "internalType": "address[]",
          "name": "escrowContracts",
          "type": "address[]"
        }
      ],
      "stateMutability": "view",
      "type": "function"
    },
    {
      "inputs": [],
      "name": "viewAllReviewResponses",
      "outputs": [
        {
          "internalType": "uint256[]",
          "name": "responseIds",
          "type": "uint256[]"
        },
        {
          "internalType": "uint256[]",
          "name": "milestoneIds",
          "type": "uint256[]"
        },
        {
          "internalType": "address[]",
          "name": "freelancers",
          "type": "address[]"
        },
        {
          "internalType": "string[]",
          "name": "responses",
          "type": "string[]"
        },
        {
          "internalType": "bool[]",
          "name": "acceptedStatuses",
          "type": "bool[]"
        }
      ],
      "stateMutability": "view",
      "type": "function"
    },
    {
      "inputs": [],
      "name": "viewRequestsByEmployer",
      "outputs": [
        {
          "internalType": "uint256[]",
          "name": "requestIds",
          "type": "uint256[]"
        },
        {
          "internalType": "uint256[]",
          "name": "projectIds",
          "type": "uint256[]"
        },
        {
          "internalType": "address[]",
          "name": "freelancers",
          "type": "address[]"
        },
        {
          "internalType": "uint256[]",
          "name": "ratings",
          "type": "uint256[]"
        },
        {
          "internalType": "enum RequestManager.RequestStatus[]",
          "name": "statuses",
          "type": "uint8[]"
        },
        {
          "internalType": "address[]",
          "name": "escrowContracts",
          "type": "address[]"
        }
      ],
      "stateMutability": "view",
      "type": "function"
    },
    {
      "inputs": [
        {
          "internalType": "uint256",
          "name": "_milestoneId",
          "type": "uint256"
        },
        {
          "internalType": "string",
          "name": "_cid",
          "type": "string"
        },
        {
          "internalType": "address",
          "name": "_freelancer",
          "type": "address"
        }
      ],
      "name": "sendMilestoneReviewRequest",
      "outputs": [],
      "stateMutability": "nonpayable",
      "type": "function"
    },
    {
      "inputs": [],
      "name": "viewAllMilestoneReviewRequests",
      "outputs": [
        {
          "internalType": "uint256[]",
          "name": "requestIds",
          "type": "uint256[]"
        },
        {
          "internalType": "uint256[]",
          "name": "milestoneIds",
          "type": "uint256[]"
        },
        {
          "internalType": "address[]",
          "name": "freelancers",
          "type": "address[]"
        },
        {
          "internalType": "string[]",
          "name": "cids",
          "type": "string[]"
        },
        {
          "internalType": "bool[]",
          "name": "reviewedStatuses",
          "type": "bool[]"
        }
      ],
      "stateMutability": "view",
      "type": "function"
    },
    {
      "inputs": [
        {
          "internalType": "uint256",
          "name": "_reviewRequestId",
          "type": "uint256"
        },
        {
          "internalType": "uint256",
          "name": "_projectId",
          "type": "uint256"
        }
      ],
      "name": "getEscrowAccountFromReviewRequest",
      "outputs": [
        {
          "internalType": "contract Escrow",
          "name": "",
          "type": "address"
        }
      ],
      "stateMutability": "view",
      "type": "function"
    },
    {
      "inputs": [
        {
          "internalType": "uint256",
          "name": "_reviewRequestId",
          "type": "uint256"
        },
        {
          "internalType": "uint256",
          "name": "_milestoneId",
          "type": "uint256"
        }
      ],
      "name": "acceptMilestoneReviewRequest",
      "outputs": [],
      "stateMutability": "payable",
      "type": "function"
    },
    {
      "inputs": [
        {
          "internalType": "uint256",
          "name": "_reviewRequestId",
          "type": "uint256"
        },
        {
          "internalType": "string",
          "name": "_reason",
          "type": "string"
        }
      ],
      "name": "rejectMilestoneReviewRequest",
      "outputs": [],
      "stateMutability": "nonpayable",
      "type": "function"
    },
    {
      "inputs": [
        {
          "internalType": "uint256",
          "name": "_reviewRequestId",
          "type": "uint256"
        }
      ],
      "name": "acceptRejectionReason",
      "outputs": [],
      "stateMutability": "nonpayable",
      "type": "function"
    },
    {
      "inputs": [
        {
          "internalType": "uint256",
          "name": "_milestoneId",
          "type": "uint256"
        },
        {
          "internalType": "string",
          "name": "_name",
          "type": "string"
        },
        {
          "internalType": "string",
          "name": "_rid",
          "type": "string"
        },
        {
          "internalType": "string",
          "name": "_cid",
          "type": "string"
        }
      ],
      "name": "addFile",
      "outputs": [],
      "stateMutability": "nonpayable",
      "type": "function"
    },
    {
      "inputs": [
        {
          "internalType": "uint256",
          "name": "_milestoneId",
          "type": "uint256"
        }
      ],
      "name": "viewAllFilesForMilestone",
      "outputs": [
        {
          "internalType": "uint256[]",
          "name": "ids",
          "type": "uint256[]"
        },
        {
          "internalType": "uint256[]",
          "name": "milestoneIds",
          "type": "uint256[]"
        },
        {
          "internalType": "string[]",
          "name": "names",
          "type": "string[]"
        },
        {
          "internalType": "string[]",
          "name": "rids",
          "type": "string[]"
        },
        {
          "internalType": "string[]",
          "name": "cids",
          "type": "string[]"
        }
      ],
      "stateMutability": "view",
      "type": "function"
    },
    {
      "inputs": [
        {
          "internalType": "uint256",
          "name": "_projectId",
          "type": "uint256"
        },
        {
          "internalType": "uint256",
          "name": "_proposedAmount",
          "type": "uint256"
        },
        {
          "internalType": "string",
          "name": "_description",
          "type": "string"
        }
      ],
      "name": "proposeQuotation",
      "outputs": [],
      "stateMutability": "nonpayable",
      "type": "function"
    },
    {
      "inputs": [
        {
          "internalType": "uint256",
          "name": "_projectId",
          "type": "uint256"
        },
        {
          "internalType": "uint256",
          "name": "_newAmount",
          "type": "uint256"
        },
        {
          "internalType": "string",
          "name": "_notes",
          "type": "string"
        }
      ],
      "name": "counterPropose",
      "outputs": [],
      "stateMutability": "nonpayable",
      "type": "function"
    },
    {
      "inputs": [
        {
          "internalType": "uint256",
          "name": "_projectId",
          "type": "uint256"
        },
        {
          "internalType": "uint256",
          "name": "_quotationIndex",
          "type": "uint256"
        }
      ],
      "name": "acceptQuotation",
      "outputs": [],
      "stateMutability": "payable",
      "type": "function"
    },
    {
      "inputs": [
        {
          "internalType": "uint256",
          "name": "_projectId",
          "type": "uint256"
        },
        {
          "internalType": "uint256",
          "name": "_quotationIndex",
          "type": "uint256"
        }
      ],
      "name": "rejectQuotation",
      "outputs": [],
      "stateMutability": "nonpayable",
      "type": "function"
    },
    {
      "inputs": [
        {
          "internalType": "uint256",
          "name": "_projectId",
          "type": "uint256"
        }
      ],
      "name": "getQuotations",
      "outputs": [
        {
          "components": [
            {
              "internalType": "uint256",
              "name": "projectId",
              "type": "uint256"
            },
            {
              "internalType": "address",
              "name": "proposedBy",
              "type": "address"
            },
            {
              "internalType": "uint256",
              "name": "proposedAmount",
              "type": "uint256"
            },
            {
              "internalType": "string",
              "name": "description",
              "type": "string"
            },
            {
              "internalType": "string",
              "name": "negotiationNotes",
              "type": "string"
            },
            {
              "internalType": "enum RequestManager.QuotationStatus",
              "name": "status",
              "type": "uint8"
            },
            {
              "internalType": "uint256",
              "name": "timestamp",
              "type": "uint256"
            }
          ],
          "internalType": "struct RequestManager.Quotation[]",
          "name": "",
          "type": "tuple[]"
        }
      ],
      "stateMutability": "view",
      "type": "function"
    },
    {
      "inputs": [
        {
          "internalType": "uint256",
          "name": "_projectId",
          "type": "uint256"
        }
      ],
      "name": "getLatestQuotation",
      "outputs": [
        {
          "components": [
            {
              "internalType": "uint256",
              "name": "projectId",
              "type": "uint256"
            },
            {
              "internalType": "address",
              "name": "proposedBy",
              "type": "address"
            },
            {
              "internalType": "uint256",
              "name": "proposedAmount",
              "type": "uint256"
            },
            {
              "internalType": "string",
              "name": "description",
              "type": "string"
            },
            {
              "internalType": "string",
              "name": "negotiationNotes",
              "type": "string"
            },
            {
              "internalType": "enum RequestManager.QuotationStatus",
              "name": "status",
              "type": "uint8"
            },
            {
              "internalType": "uint256",
              "name": "timestamp",
              "type": "uint256"
            }
          ],
          "internalType": "struct RequestManager.Quotation",
          "name": "",
          "type": "tuple"
        }
      ],
      "stateMutability": "view",
      "type": "function"
    },
    {
      "inputs": [
        {
          "internalType": "uint256",
          "name": "_projectId",
          "type": "uint256"
        }
      ],
      "name": "isProjectAssigned",
      "outputs": [
        {
          "internalType": "bool",
          "name": "",
          "type": "bool"
        }
      ],
      "stateMutability": "view",
      "type": "function"
    }
  ],
  "bytecode": "0x608034607057601f614a9d38819003918201601f19168301916001600160401b03831184841017607557808492602094604052833981010312607057516001600160a01b03811690819003607057600080546001600160a01b031916919091179055604051614a11908161008c8239f35b600080fd5b634e487b7160e01b600052604160045260246000fdfe61012080604052600436101561001457600080fd5b600090813560e01c9081631301586c146133ce5750806313e43248146131a657806318afbf62146131215780631a7963151461294657806322a7fd07146129135780632d7788db1461283157806331eb2af4146126ec57806339028dec146122485780633a760554146120b457806341ff9d1114611d0a5780634395351914611cec5780634ba1f098146119d55780634bd335b81461082b5780634c2fb2551461191b5780635badbe4c146118fd5780635fc9fe37146118b45780637d9effef146112a25780637e670ea21461120257806381d12c581461119257806383f5f2301461115d578063857b55481461108857806386fe6d4f14610f9757806394e1502914610f7957806397302bc814610e765780639be8d8f914610dd9578063a7080a1814610cba578063a817229a14610b98578063b3db5c9414610963578063b4d4fcb714610852578063b7146d0c1461082b578063bb6866e1146107cd578063c5597bbb146107af578063c58343ef146106b5578063c628510014610206578063ed37130c146101dc5763ed3bb680146101ae57600080fd5b346101d95760206101c76101c13661359e565b90614428565b6040516001600160a01b039091168152f35b80fd5b50346101d95760203660031901126101d95760406020916004358152600683522054604051908152f35b50346101d95760803660031901126101d957600435906024356001600160401b0381116106b15761023b9036906004016137d8565b916044356001600160401b0381116106ad5761025b9036906004016137d8565b6064356001600160401b0381116106a95761027a9036906004016137d8565b93600454926040519361028c85613717565b845260208401908082526040850192835260608501938452608085019687528552600360205260408520805490600160401b82101561069557906102d591600182018155613a1a565b9490946106815751845551600184015551805160028401916001600160401b03821161066d57819061030784546138f8565b601f8111610613575b50602090601f83116001146105b05787926105a5575b50508160011b916000199060031b1c19161790555b51805160038301916001600160401b0382116105915761035b83546138f8565b601f811161053f575b50602090601f83116001146104d8576004949392918691836104cd575b50508160011b916000199060031b1c19161790555b01915191825160018060401b0381116104b9576103b382546138f8565b601f8111610467575b506020601f8211600114610406578394829394926103fb575b50508160011b916000199060031b1c19161790555b6103f5600454613cc7565b60045580f35b0151905038806103d5565b82845280842090601f198316855b81811061044f57509583600195969710610436575b505050811b0190556103ea565b015160001960f88460031b161c19169055388080610429565b9192602060018192868b015181550194019201610414565b818111156103bc5782845260208420601f830160051c90602084106104b1575b81601f9101920160051c0390845b8281106104a35750506103bc565b808660019284015501610495565b859150610487565b634e487b7160e01b83526041600452602483fd5b015190503880610381565b8386528186209190601f198416875b81811061052757509160019391856004989796941061050e575b505050811b019055610396565b015160001960f88460031b161c19169055388080610501565b929360206001819287860151815501950193016104e7565b828111156103645783865260208620601f840160051c9060208510610589575b81601f9101920160051c0390865b82811061057b575050610364565b80886001928401550161056d565b87915061055f565b634e487b7160e01b85526041600452602485fd5b015190503880610326565b8488528188209250601f198416885b8181106105fb57509084600195949392106105e2575b505050811b01905561033b565b015160001960f88460031b161c191690553880806105d5565b929360206001819287860151815501950193016105bf565b828111156103105790915083875260208720601f840160051c9060208510610665575b849392601f0160051c8290039101885b828110610654575050610310565b8082018a9055859450600101610646565b889150610636565b634e487b7160e01b86526041600452602486fd5b634e487b7160e01b86526004869052602486fd5b634e487b7160e01b87526041600452602487fd5b8380fd5b8280fd5b5080fd5b50346101d95760203660031901126101d957604060a09160043581608084516106dd81613717565b828152826020820152828682015282606082015201528082526005602052610713600180861b0360018585200154161515614208565b81526005602052206040519061072882613717565b8054825261079e600180851b0360018301541660208401908152600360028401549360408601948552015492606085019161076660ff861684613d49565b6080860194600180891b039060081c16855260405195518652600180881b039051166020860152516040850152516060840190613625565b516000196001841b01166080820152f35b50346101d957806003193601126101d9576020600254604051908152f35b50346101d95760203660031901126101d9576040906004358152600a60205220805461082760018301549260018060a01b036002820154169060ff600461081660038401613932565b9201541691604051958695866139e0565b0390f35b50346101d957806003193601126101d957546040516001600160a01b039091168152602090f35b50346101d957806003193601126101d9576002549061087082613d03565b61087983613d03565b9161088384613d03565b61088c85614318565b9061089686613d03565b9260015b878111156108b657505090610827929160405195869586613aa4565b80825260016020526040822080546000198301919083831161094f5760ff60048493610940936108ea61094a98978e613d35565b5260018101546108fa868f613d35565b5260028101546001600160a01b0316610913868b613d35565b5261092060038201613932565b61092a868c613d35565b52610935858b613d35565b500154169188613d35565b9015159052613cc7565b61089a565b634e487b7160e01b85526011600452602485fd5b50346101d9576109723661359e565b81151580610b22575b61098490613b2b565b8254604051631e1e7e5960e31b815260048101849052908490829060249082906001600160a01b03165afa908115610b17578491610aee575b506002811015610ada5760016109d39114613c85565b6109de600754613cc7565b8060075560036040516109f081613717565b848152336020808301918252604080840196875260608401898152608085018a8152968a52600590925288209251835590516001830180546001600160a01b0319166001600160a01b03929092169190911790559351600282015592519201916003811015610ac6576060927fe697eb68c0228bd7d4e553246a2a86e8402d0895e45092ef8ae87b4cfd29f0169492610a9f9260ff8019845416911617825560018060a01b039051169061438d565b6007549080855260066020528160408620556040519182526020820152336040820152a180f35b634e487b7160e01b85526021600452602485fd5b634e487b7160e01b84526021600452602484fd5b610b0a91503d8086833e610b028183613763565b810190613c08565b50509350505050386109bd565b6040513d86823e3d90fd5b508254604051631b7dd69360e11b815290602090829060049082906001600160a01b03165afa8015610b17578490610b5f575b831115905061097b565b506020813d602011610b90575b81610b7960209383613763565b81010312610b8b576109849051610b55565b600080fd5b3d9150610b6c565b50346101d95760203660031901126101d957600435808252600a6020526040822060028101546001600160a01b03163303610c59576004019081549060ff8216610c14577f25fa961293610a63a633d14b93d5aa91df30ab4131e3e197fbb148988f45f2fa92600160209360ff1916179055604051908152a180f35b60405162461bcd60e51b815260206004820152601f60248201527f526576696577207265717565737420616c7265616479207265766965776564006044820152606490fd5b60405162461bcd60e51b815260206004820152603360248201527f4f6e6c792074686520667265656c616e6365722063616e2061636365707420746044820152723432903932b532b1ba34b7b7103932b0b9b7b760691b6064820152608490fd5b50346101d957806003193601126101d957600754610cd781613d03565b610ce082613d03565b91610cea81613d03565b610cf382613d03565b610cfc83613d03565b91610d0684613d03565b9360015b81811115610d25575050604051965086956108279587613648565b808952600560205260408920600019820190828211610dc55790610dba600384938d610d65858f8f99610d5b83610dc09c613d35565b5284549350613d35565b5260018101546001600160a01b0316610d7e858a613d35565b526002810154610d8e858b613d35565b520154610da760ff8216610da2858c613d35565b613d49565b60081c6001600160a01b03169189613d35565b52613cc7565b610d0a565b634e487b7160e01b8b52601160045260248bfd5b50346101d957806003193601126101d957600b5490610df782613d03565b610e0083613d03565b91610e0a84613d03565b610e1385614318565b90610e1d86613d03565b9260015b87811115610e3d57505090610827929160405195869586613aa4565b808252600a6020526040822080546000198301919083831161094f5760ff60048493610940936108ea610e7198978e613d35565b610e21565b50346101d95760203660031901126101d9576004358160c0604051610e9a81613748565b828152826020820152826040820152606080820152606060808201528260a082015201528082526008602052604082205415610f345780825260086020526040822090825260086020526040822054916000198301928311610f2057610827610f0c610f0685856138c6565b506143b2565b604051918291602083526020830190613a36565b634e487b7160e01b81526011600452602490fd5b60405162461bcd60e51b815260206004820152601e60248201527f4e6f2071756f746174696f6e7320666f7220746869732070726f6a65637400006044820152606490fd5b50346101d957806003193601126101d9576020600b54604051908152f35b50346101d95760603660031901126101d9576004356024356001600160401b0381116106ad57610fcb9036906004016136ea565b9091906044356001600160a01b03811690819003611084577fbfc58ffde775327d37ac02c637219967f9f1d0d5dae07e75af5d1ad5be3543609361105c61107e92611017600b54613cc7565b80600b556040519161102883613717565b81835287602084015260408301526110413687866137a1565b60608301528860808301528852600a6020526040882061408e565b600b549260405194859485526020850152606060408501526060840191614254565b0390a180f35b8480fd5b50346101d95760203660031901126101d957600435815260086020526040812080546110b381613cec565b906110c16040519283613763565b80825260208201809385526020852085915b83831061113f57868587604051928392602084019060208552518091526040840160408260051b8601019392905b82821061111057505050500390f35b9193600191939550602061112f8192603f198a82030186528851613a36565b9601920192018594939192611101565b6007602060019261114f856143b2565b8152019201920191906110d3565b50346101d95760203660031901126101d957602090600435815260098252604060018060a01b03912054161515604051908152f35b50346101d95760203660031901126101d957604060a0916004358152600560205220805490600180841b03600182015416906003600282015491015491604051938452602084015260408301526111ef6060830160ff8316613625565b60081c6000196001841b01166080820152f35b50346101d9576112113661359e565b90825260036020526040822080548210156106ad576112309250613a1a565b50805461082760018301549261129461124b60028301613932565b91611286611267600461126060038501613932565b9301613932565b936040519788978852602088015260a0604088015260a0870190613848565b908582036060870152613848565b908382036080850152613848565b50346101d9576112b1366137f3565b929180151580611843575b6112c590613b2b565b6112d0821515614275565b835115611800578083526006602052602460408420546112f18115156142c1565b8454604051631e1e7e5960e31b81526004810185905292869184919082906001600160a01b03165afa9182156117f557859086936117d0575b5060028110156117bc5760010361176c578452600560205260408420600101546001600160a01b03163314908115611759575b50156116fa5760405161136f81613748565b81815260208101943386526040820190848252606083019081526020604051916113998284613763565b8783526080850192835260a08501936001855260c0860199428b52878a526008845260408a20805490600160401b8210156116e657906113de916001820181556138c6565b9790976116d257518755516001870180546001600160a01b0319166001600160a01b039290921691909117905551600286015551805160038601916001600160401b0382116116be57819061143384546138f8565b601f8111611666575b508490601f8311600114611603578b926115f8575b50508160011b916000199060031b1c19161790555b90518051600485019290916001600160401b0383116115e45761148984546138f8565b601f8111611594575b5081601f841160011461151957509180899a94926006969460008051602061499c8339815191529b9261150e575b50508160011b916000199060031b1c19161790555b6005840190516114e4816139d6565b6114ed816139d6565b60ff801983541691161790555191015561107e60405192839233908461406d565b0151905038806114c0565b9190601f198416858b52838b20938b905b82821061157c5750509260019285926006989660008051602061499c8339815191529d9e989610611563575b505050811b0190556114d5565b015160001960f88460031b161c19169055388080611556565b8060018697829497870151815501960194019061152a565b8381111561149257848a52828a20601f850160051c908486106115dc575b81601f9101920160051c03908a5b8281106115ce575050611492565b808c600192840155016115c0565b8b91506115b2565b634e487b7160e01b89526041600452602489fd5b015190503880611451565b848c52858c209250601f1984168c5b87828210611650575050908460019594939210611637575b505050811b019055611466565b015160001960f88460031b161c1916905538808061162a565b6001859682939686015181550195019301611612565b8281111561143c57909150838b52848b20601f840160051c908685106116b6575b849392601f0160051c82900391018c5b8281106116a557505061143c565b8082018e9055859450600101611697565b8c9150611687565b634e487b7160e01b8a52604160045260248afd5b634e487b7160e01b8b5260048b905260248bfd5b634e487b7160e01b8c52604160045260248cfd5b60405162461bcd60e51b815260206004820152603160248201527f4f6e6c7920667265656c616e636572206f7220656d706c6f7965722063616e20604482015270383937b837b9b29038bab7ba30ba34b7b760791b6064820152608490fd5b6001600160a01b0316331490503861135d565b60405162461bcd60e51b815260206004820152602260248201527f50726f6a656374206973206e6f74206f70656e20666f722071756f746174696f6044820152616e7360f01b6064820152608490fd5b634e487b7160e01b86526021600452602486fd5b90506117e79192503d8087833e610b028183613763565b50959450925050503861132a565b6040513d87823e3d90fd5b60405162461bcd60e51b815260206004820152601b60248201527a4465736372697074696f6e2063616e6e6f7420626520656d70747960281b6044820152606490fd5b508254604051631b7dd69360e11b815290602090829060049082906001600160a01b03165afa8015610b17578490611880575b82111590506112bc565b506020813d6020116118ac575b8161189a60209383613763565b81010312610b8b576112c59051611876565b3d915061188d565b50346101d95760203660031901126101d9576040906004358152600160205220805461082760018301549260018060a01b036002820154169060ff600461081660038401613932565b50346101d957806003193601126101d9576020600754604051908152f35b50346101d95761192a3661359e565b90825260086020526040822080548210156106ad5761194992506138c6565b50805460018060a01b036001830154169160028101546119bd61196e60038401613932565b6119af61197d60048601613932565b91600660ff6005880154169601549460405198899889526020890152604088015260e0606088015260e0870190613848565b908582036080870152613848565b916119c7816139d6565b60a084015260c08301520390f35b5060203660031901126101d9576004358082526005602052604082206001810180546001600160a01b03169291611a0d841515614208565b600381019360ff8554166003811015611cd857611c9a5760018060a01b0386541690868354602460405180958193631e1e7e5960e31b835260048301525afa908115611c8f57879288908993611c68575b506001600160a01b0383163303611c12576002811015611bfe57600103611bc2576040519161042a80840192906001600160401b03841185851017611bae57948493819593611ab6938d999861457287393092614362565b0391f08015611ba357611ac9908661438d565b845460ff1916600117855582548154835260096020526040832080546001600160a01b0319166001600160a01b0392831617905582549154911690813b156106ad5782916024839260405194859384926349ee097360e11b845260048401525af18015611ba357611b8a575b5081548454604080518681526001600160a01b03938416602082015260089290921c909216918101919091527fac8064fea85b95641f19e230ba9da498102d474473fe4b103466cb224daf5e0190606090a180f35b81611b9791949394613763565b6106a957908338611b35565b6040513d84823e3d90fd5b634e487b7160e01b8b52604160045260248bfd5b60405162461bcd60e51b8152602060048201526014602482015273283937b532b1ba1036bab9ba1031329037b832b760611b6044820152606490fd5b634e487b7160e01b89526021600452602489fd5b60405162461bcd60e51b815260206004820152602860248201527f4f6e6c792074686520656d706c6f7965722063616e2061636365707420746865604482015267081c995c5d595cdd60c21b6064820152608490fd5b91935050611c8091503d8089833e610b028183613763565b50945094925090509238611a5e565b6040513d89823e3d90fd5b60405162461bcd60e51b815260206004820152601660248201527552657175657374206973206e6f742070656e64696e6760501b6044820152606490fd5b634e487b7160e01b87526021600452602487fd5b50346101d957806003193601126101d9576020600454604051908152f35b50611d143661359e565b81151580612043575b611d2690613b2b565b8183526008602052611d3d60408420548210613b6c565b818352600660205260246040842054611d578115156142c1565b8454604051631e1e7e5960e31b81526004810186905292869184919082906001600160a01b03165afa9182156117f5578590869361201e575b5060028110156117bc576001611da69114613c85565b6001600160a01b0382163303611fce5784526005602052611dd660408520928486526008602052604086206138c6565b5091600583019283549060ff8216611ded816139d6565b60018114908115611fba575b5015611f765760020193845491823403611f225760ff19166003179055600182018054604051919461042a808401926001600160a01b0316906001600160401b03841185851017611bae5792611e59928692869561457287393092614362565b0391f09081156117f5576003611e719101918261438d565b805460ff191660011790555482845260096020526040842080546001600160a01b0319166001600160a01b039283161790558354849116803b156106b1578180916024604051809481936349ee097360e11b83528960048401525af18015611ba357611f0d575b507f30981c9cd8c9ae5e869821a79087b12d5bd6fc4aeaabf85fbf091cfff2f36797604084845482519182526020820152a180f35b81611f1791613763565b6106ad578238611ed8565b60405162461bcd60e51b815260206004820152602660248201527f53656e7420616d6f756e74206d757374206d617463682070726f706f73656420604482015265185b5bdd5b9d60d21b6064820152608490fd5b60405162461bcd60e51b815260206004820152601c60248201527b145d5bdd185d1a5bdb8818d85b9b9bdd081899481858d8d95c1d195960221b6044820152606490fd5b60029150611fc7816139d6565b1438611df9565b60405162461bcd60e51b815260206004820152602260248201527f4f6e6c7920656d706c6f7965722063616e206163636570742071756f7461746960448201526137b760f11b6064820152608490fd5b90506120359192503d8087833e610b028183613763565b509594509250505038611d90565b508254604051631b7dd69360e11b815290602090829060049082906001600160a01b03165afa8015610b17578490612080575b8311159050611d1d565b506020813d6020116120ac575b8161209a60209383613763565b81010312610b8b57611d269051612076565b3d915061208d565b50346101d95760203660031901126101d95760043590600454906120d782613d03565b916120e181613d03565b6120ea82614318565b916120f481614318565b936120fe82614318565b968190825b84811061216a57612132896108278c61215c8c61214e8d6121408e604051998a9960a08b5260a08b01906135b4565b9089820360208b01526135b4565b90878203604089015261386d565b90858203606087015261386d565b90838203608085015261386d565b81845260036020528989898989888760016121888960408520613a1a565b5001541461219f575b505050505050600101612103565b6004899561221c8761223a999761220f828d9f98998f9a60019f6121d49060408c6122299f6122239e52600360205220613a1a565b50976121e2848a5492613d35565b528f836121f2918a015492613d35565b526121ff60028801613932565b6122098383613d35565b52613d35565b506121ff60038501613932565b5001613932565b92613d35565b52612234818d613d35565b50613cc7565b929050898989898988612191565b50346101d957612257366137f3565b92918015158061267b575b61226b90613b2b565b612276821515614275565b808352600860205260408320541561262a578083526006602052602460408420546122a28115156142c1565b8454604051631e1e7e5960e31b81526004810185905292869184919082906001600160a01b03165afa9182156117f55785908693612605575b5060028110156117bc576001036125b45784526005602052604084209082855260086020526040852080549060001982019182116125a0579061231d916138c6565b5060018082015493015490926001600160a01b039182169116810361252a57506001600160a01b031633036124c4576004905b60058101805460ff19166002908117909155810184905585519591016001600160401b0386116105915761238481546138f8565b601f8111612472575b50602095601f81116001146123fe57908161107e939287986000805160206149bc83398151915298916123f3575b508160011b916000199060031b1c19161790555b60405193849384523360208501526040840152608060608401526080830190613848565b9050830151386123bb565b818652868620601f198216875b81811061245a5750916001916000805160206149bc83398151915298998261107e97969510612441575b5050811b0190556123cf565b85015160001960f88460031b161c191690553880612435565b858a015183556020998a01996001909301920161240b565b8681111561238d5781865260208620601f880160051c90602089106124bc575b81601f9101920160051c0390865b8281106124ae57505061238d565b8088600192840155016124a0565b879150612492565b60405162461bcd60e51b815260206004820152603860248201527f4f6e6c7920656d706c6f7965722063616e20636f756e7465722d6f66666572206044820152771bdb88199c99595b185b98d95c89dcc81c1c9bdc1bdcd85b60421b6064820152608490fd5b9050330361253a57600490612350565b60405162461bcd60e51b815260206004820152603860248201527f4f6e6c7920667265656c616e6365722063616e20636f756e7465722d6f6666656044820152771c881bdb88195b5c1b1bde595c89dcc81c1c9bdc1bdcd85b60421b6064820152608490fd5b634e487b7160e01b87526011600452602487fd5b60405162461bcd60e51b815260206004820152602360248201527f50726f6a656374206973206e6f74206f70656e20666f72206e65676f7469617460448201526234b7b760e91b6064820152608490fd5b905061261c9192503d8087833e610b028183613763565b5095945092505050386122db565b60405162461bcd60e51b8152602060048201526024808201527f4e6f2071756f746174696f6e7320657869737420666f7220746869732070726f6044820152631a9958dd60e21b6064820152608490fd5b508254604051631b7dd69360e11b815290602090829060049082906001600160a01b03165afa8015610b175784906126b8575b8211159050612262565b506020813d6020116126e4575b816126d260209383613763565b81010312610b8b5761226b90516126ae565b3d91506126c5565b50346101d95760403660031901126101d9576004356024356001600160401b0381116106ad576127209036906004016136ea565b90828452600a6020526040842091600483019283549060ff82166127ed577fbaaa1d8ac25adbe9d68fdf1013f60ea647f91e457fb4589976b74dbf9c14968f9460016127d09360ff1916179055600181015490600260018060a01b039101541661278b600254613cc7565b90816002556040519261279d84613717565b828452602084015260408301526127b53685876137a1565b6060830152876080830152875260016020526040872061408e565b6127e7604051928392602084526020840191614254565b0390a280f35b606460405162461bcd60e51b815260206004820152602060248201527f526576696577207265717565737420616c72656164792070726f6365737365646044820152fd5b50346101d95760203660031901126101d957600435808252600560205260408220600181018054909291600391612872906001600160a01b03161515614208565b019060ff8254166003811015610ac6576128d257815460ff19166002179091559054604080519283526001600160a01b039190911660208301527f490ad67e4c8b3b9c1d11dfcd7f02e155190b8f6feff3a9d9e9df3721f0f74e5791a180f35b60405162461bcd60e51b815260206004820152601960248201527814995c5d595cdd08185b1c9958591e481c1c9bd8d95cdcd959603a1b6044820152606490fd5b50346101d95760203660031901126101d957602090600435815260098252604060018060a01b0391205416604051908152f35b506129503661359e565b90808352600a6020526040832091600483015460a05260ff60a051166130dc57839260018060a01b0385541661010052604051631b7dd69360e11b8152602081600481610100515afa908115612db75786916130aa575b506001905b80821115612ffe575b50508315612fae576040519063010b152760e61b82528460048301528582602481610100515afa8015612db757869287918889928a80948160e0528b82998380958198612f6a575b5080608052809260405190631e1e7e5960e31b825260048201528181602481610100515afa918215612f5e578092612f3c575b50506001600160a01b03163303612ed85760c08f90528b916000195b825160c0511015612ec75783612a6460c05185613d35565b5114612a7857600160c0510160c052612a4c565b50505050612b0195612aa3612aad92612aa3612aa3976001608052612aa360c0519c60c05190613d35565b5060c05190613d35565b5197612abd60c05160e051613d35565b51612ac7816139d6565b5060c0516001600160a01b0391612ade9190613d35565b505060c0516001600160a01b0391612af69190613d35565b505060c05190613d35565b505b60805115612e875760a05160ff19166001176004830155865487906001600160a01b0316803b156106b157819060446040518094819363f326206b60e01b83528c60048401528a60248401525af18015612e7c57612e65575b506002919060018101612e51575b500180548654604051633a766ddf60e01b81526001600160a01b03928316600482018190529394929091169291602082602481875afa918215612e46578992612e12575b5080600502906005820403612dfe57606490048101809111612dea57879291906101f48111612de1575b823b156106a9576044849283604051958694859363018f728360e21b8552600485015260248401525af18015611ba357612dcc575b5050600193855b60e05151811015612dc2576002612c2d8260e051613d35565b51612c37816139d6565b612c40816139d6565b03612c4d57600101612c14565b509091929350845b612cc4575b50612cc1925060018060a01b03905416612c75600254613cc7565b908160025560405192612c8784613717565b82845260208401526040830152604051612ca2602082613763565b848152606083015260016080830152835260016020526040832061408e565b80f35b6001600160a01b0390612cd79085614428565b16604051632aa3085f60e21b8152602081600481855afa908115612db7578691612d85575b50813b15612d81576040516369d8957560e01b81528690818160048183885af18015611ba357612d68575b505090612cc194612d5f7f6244ed823ca6be0f11bc890c3fafcf3c29cb23420c14243642e930b5e07e6d0a936040519384938461406d565b0390a138612c5a565b81612d7591949394613763565b612d8157908538612d27565b8580fd5b90506020813d602011612daf575b81612da060209383613763565b81010312610b8b575138612cfc565b3d9150612d93565b6040513d88823e3d90fd5b5090919293612c55565b81612dd691613763565b611084578438612c0d565b506101f4612bd8565b634e487b7160e01b88526011600452602488fd5b634e487b7160e01b89526011600452602489fd5b9091506020813d602011612e3e575b81612e2e60209383613763565b81010312610b8b57519038612bae565b3d9150612e21565b6040513d8b823e3d90fd5b612e5e839160e051613d35565b5238612b6a565b96612e74816002949399613763565b969091612b5c565b6040513d8a823e3d90fd5b60405162461bcd60e51b8152602060048201526018602482015277135a5b195cdd1bdb9948191bd95cc81b9bdd08195e1a5cdd60421b6044820152606490fd5b99509a505050505050505050612b03565b60405162461bcd60e51b815260206004820152603660248201527f4f6e6c792074686520656d706c6f7965722063616e20616363657074206d696c6044820152756573746f6e652072657669657720726571756573747360501b6064820152608490fd5b612f5092503d8091833e610b028183613763565b509450505050508f80612a30565b604051903d90823e3d90fd5b9750985050985050505050612f9191503d8084833e612f898183613763565b810190613e95565b969a9850949691909b9298919996939860e0529a939496386129fd565b60405162461bcd60e51b815260206004820152602260248201527f4d696c6573746f6e65206e6f7420666f756e6420696e20616e792070726f6a6560448201526118dd60f21b6064820152608490fd5b60409492939194519063010b152760e61b82528560048301528782602481610100515afa918215612e7c578892613084575b50875b825181101561307857836130478285613d35565b511461305557600101613033565b5091939294955050845b856130735761306d90613cc7565b906129ac565b6129b5565b5091939294905061305f565b6130999192503d808a833e612f898183613763565b505050505050505050509038613030565b90506020813d6020116130d4575b816130c560209383613763565b81010312612d815751386129a7565b3d91506130b8565b60405162461bcd60e51b815260206004820152601f60248201527f526576696577207265717565737420616c7265616479206163636570746564006044820152606490fd5b50346101d957806003193601126101d9578054604051631b7dd69360e11b815290602090829060049082906001600160a01b03165afa908115611ba3578291613170575b602082604051908152f35b90506020813d60201161319e575b8161318b60209383613763565b810103126106b157602091505138613165565b3d915061317e565b50346101d957806003193601126101d957600754815482906001600160a01b031660015b8381111561334357506131dc82613d03565b916131e681613d03565b936131f082613d03565b6131f983613d03565b9161320c61320685613d03565b94613d03565b94889060015b8381111561322f5789896108278a8a8a8a60405196879687613648565b808b52600560205260408b205460405190631e1e7e5960e31b825260048201528b8082602481875afa8015613336578b928291613315575b506001600160a01b03163314613288575b505061328390613cc7565b613212565b93600361330b92846132aa8460408a846132839a9c5260056020522093613d35565b528d6132b884835492613d35565b5260018101546001600160a01b03166132d1848b613d35565b5260028101546132e1848c613d35565b5201546132f560ff8216610da2848d613d35565b60081c6001600160a01b0316610dba828c613d35565b929050888b613278565b61332991503d8084833e610b028183613763565b5094505050505038613267565b50604051903d90823e3d90fd5b8085526005602052604085205460405190631e1e7e5960e31b825260048201528581602481865afa908115612db75786916133ad575b506001600160a01b03163314613398575b61339390613cc7565b6131ca565b916133a561339391613cc7565b92905061338a565b6133c191503d8088833e610b028183613763565b5094505050505038613379565b9050346106b1576133de3661359e565b90918215158061352e575b6133f39150613b2b565b818352600860205261340a60408420548210613b6c565b8254604051631e1e7e5960e31b815260048101849052908490829060249082906001600160a01b03165afa908115610b17578490859261350b575b506002811015610ac657600161345b9114613c85565b6001600160a01b031633036134bb578160056134a46020937f6ba13ccf38e1630058b978f3457e3c065946df004bbd348544427653ab81f68b95875260088552604087206138c6565b5001805460ff19166004179055604051908152a180f35b60405162461bcd60e51b815260206004820152602260248201527f4f6e6c7920656d706c6f7965722063616e2072656a6563742071756f7461746960448201526137b760f11b6064820152608490fd5b905061352191503d8086833e610b028183613763565b5094509250505038613445565b508354631b7dd69360e11b8252602090829060049082906001600160a01b03165afa8015610b1757849061356a575b6133f391508311156133e9565b506020813d602011613596575b8161358460209383613763565b810103126106a9576133f3905161355d565b3d9150613577565b6040906003190112610b8b576004359060243590565b906020808351928381520192019060005b8181106135d25750505090565b82518452602093840193909201916001016135c5565b906020808351928381520192019060005b8181106136065750505090565b82516001600160a01b03168452602093840193909201916001016135f9565b9060038210156136325752565b634e487b7160e01b600052602160045260246000fd5b9695939192613677613693946136696136859460c08c5260c08c01906135b4565b908a820360208c01526135b4565b9088820360408a01526135e8565b9086820360608801526135b4565b9380850360808201526020808451968781520193016000955b8087106136cb5750506136c893945060a08184039101526135e8565b90565b9093602080826136de6001948951613625565b019501960195906136ac565b9181601f84011215610b8b578235916001600160401b038311610b8b5760208381860195010111610b8b57565b60a081019081106001600160401b0382111761373257604052565b634e487b7160e01b600052604160045260246000fd5b60e081019081106001600160401b0382111761373257604052565b601f909101601f19168101906001600160401b0382119082101761373257604052565b6001600160401b03811161373257601f01601f191660200190565b9291926137ad82613786565b916137bb6040519384613763565b829481845281830111610b8b578281602093846000960137010152565b9080601f83011215610b8b578160206136c8933591016137a1565b6060600319820112610b8b576004359160243591604435906001600160401b038211610b8b576136c8916004016137d8565b60005b8381106138385750506000910152565b8181015183820152602001613828565b9060209161386181518092818552858086019101613825565b601f01601f1916010190565b9080602083519182815201916020808360051b8301019401926000915b83831061389957505050505090565b90919293946020806138b7600193601f198682030187528951613848565b9701930193019193929061388a565b80548210156138e2576000526007602060002091020190600090565b634e487b7160e01b600052603260045260246000fd5b90600182811c92168015613928575b602083101461391257565b634e487b7160e01b600052602260045260246000fd5b91607f1691613907565b9060405191826000825492613946846138f8565b80845293600181169081156139b4575060011461396d575b5061396b92500383613763565b565b90506000929192526020600020906000915b81831061399857505090602061396b928201013861395e565b602091935080600191548385890101520191019091849261397f565b90506020925061396b94915060ff191682840152151560051b8201013861395e565b6005111561363257565b939092613a12926080949796978652602086015260018060a01b0316604085015260a0606085015260a0840190613848565b931515910152565b80548210156138e2576000526005602060002091020190600090565b908151815260018060a01b0360208301511660208201526040820151604082015260c080613a88613a76606086015160e0606087015260e0860190613848565b60808601518582036080870152613848565b9360a0810151613a97816139d6565b60a0850152015191015290565b939192613ad1613aed94613ac3613adf9460a0895260a08901906135b4565b9087820360208901526135b4565b9085820360408701526135e8565b90838203606085015261386d565b9060808183039101526020808351928381520192019060005b818110613b135750505090565b82511515845260209384019390920191600101613b06565b15613b3257565b60405162461bcd60e51b8152602060048201526012602482015271125b9d985b1a59081c1c9bda9958dd08125160721b6044820152606490fd5b15613b7357565b60405162461bcd60e51b8152602060048201526017602482015276092dcecc2d8d2c840e2eadee8c2e8d2dedc40d2dcc8caf604b1b6044820152606490fd5b81601f82011215610b8b578051613bc881613786565b92613bd66040519485613763565b81845260208284010111610b8b576136c89160208085019101613825565b51906001600160a01b0382168203610b8b57565b9160e083830312610b8b57825160208401519093906001600160401b038111610b8b5783613c37918301613bb2565b604082015190936001600160401b038211610b8b57613c57918301613bb2565b9160608201519160808101516002811015610b8b57916136c860c0613c7e60a08501613bf4565b9301613bf4565b15613c8c57565b60405162461bcd60e51b8152602060048201526013602482015272283937b532b1ba1034b9903737ba1037b832b760691b6044820152606490fd5b6000198114613cd65760010190565b634e487b7160e01b600052601160045260246000fd5b6001600160401b0381116137325760051b60200190565b90613d0d82613cec565b613d1a6040519182613763565b8281528092613d2b601f1991613cec565b0190602036910137565b80518210156138e25760209160051b010190565b60038210156136325752565b9080601f83011215610b8b578151613d6c81613cec565b92613d7a6040519485613763565b81845260208085019260051b820101928311610b8b57602001905b828210613da25750505090565b8151815260209182019101613d95565b9080601f83011215610b8b578151613dc981613cec565b92613dd76040519485613763565b81845260208085019260051b82010191838311610b8b5760208201905b838210613e0357505050505090565b81516001600160401b038111610b8b57602091613e2587848094880101613bb2565b815201910190613df4565b9080601f83011215610b8b578151613e4781613cec565b92613e556040519485613763565b81845260208085019260051b820101928311610b8b57602001905b828210613e7d5750505090565b60208091613e8a84613bf4565b815201910190613e70565b91909161016081840312610b8b5780516001600160401b038111610b8b5783613ebf918301613d55565b60208201519093906001600160401b038111610b8b5781613ee1918401613d55565b60408301519093906001600160401b038111610b8b5782613f03918501613db2565b60608401519093906001600160401b038111610b8b5783613f25918301613db2565b60808201519093906001600160401b038111610b8b5781613f47918401613d55565b60a08301519093906001600160401b038111610b8b5782613f69918501613d55565b60c08401519093906001600160401b038111610b8b57810183601f82011215610b8b578051613f9781613cec565b91613fa56040519384613763565b81835260208084019260051b82010190868211610b8b57602001915b8183106140545750505060e08201519093906001600160401b038111610b8b5781613fed918401613e30565b6101008301519093906001600160401b038111610b8b5782614010918501613e30565b6101208401519093906001600160401b038111610b8b5783614033918301613d55565b6101408201519093906001600160401b038111610b8b576136c89201613db2565b82516005811015610b8b57815260209283019201613fc1565b9081526001600160a01b039091166020820152604081019190915260600190565b815181556020820151600182015560408201516002820180546001600160a01b0319166001600160a01b03929092169190911790556060820151805160038301916001600160401b038211613732576140e783546138f8565b601f81116141b2575b50602090601f8311600114614145579180600494926080969460009261413a575b50508160011b916000199060031b1c19161790555b01910151151560ff80198354169116179055565b015190503880614111565b90601f1983169184600052816000209260005b81811061419a5750926001928592608098966004989610614181575b505050811b019055614126565b015160001960f88460031b161c19169055388080614174565b92936020600181928786015181550195019301614158565b828111156140f057836000526020600020601f840160051c90602085106141ff575b81601f9101920160051c039060005b8281106141f15750506140f0565b6000828201556001016141e3565b600091506141d4565b1561420f57565b60405162461bcd60e51b815260206004820152601d60248201527f4e6f20726571756573742065786973747320666f7220746869732049440000006044820152606490fd5b908060209392818452848401376000828201840152601f01601f1916010190565b1561427c57565b60405162461bcd60e51b815260206004820152601d60248201527f416d6f756e74206d7573742062652067726561746572207468616e20300000006044820152606490fd5b156142c857565b60405162461bcd60e51b815260206004820152602260248201527f4e6f20726571756573742065786973747320666f7220746869732070726f6a6560448201526118dd60f21b6064820152608490fd5b9061432282613cec565b61432f6040519182613763565b8281528092614340601f1991613cec565b019060005b82811061435157505050565b806060602080938501015201614345565b6001600160a01b03918216815291811660208301529091166040820152606081019190915260800190565b8054610100600160a81b03191660089290921b610100600160a81b0316919091179055565b906040516143bf81613748565b8254815260018301546001600160a01b031660208201526002830154604082015291829060c0906006906143f560038201613932565b606085015261440660048201613932565b608085015260ff60058201541661441c816139d6565b60a08501520154910152565b600052600a60205260406000209081541561452c576007549160015b838111156144ab5760405162461bcd60e51b815260206004820152603160248201527f4e6f206d61746368696e67207265717565737420666f756e6420666f722074686044820152701a5cc81c995d9a595dc81c995c5d595cdd607a1b6064820152608490fd5b8060005260056020526040600020838154148061450e575b806144f4575b6144dc57506144d790613cc7565b614444565b6003015460081c6001600160a01b0316949350505050565b5060ff6003820154166003811015613632576001146144c9565b50600181015460028401546001600160a01b039081169116146144c3565b60405162461bcd60e51b815260206004820152601d60248201527f526576696577207265717565737420646f6573206e6f742065786973740000006044820152606490fdfe6080601f61042a38819003918201601f19168301916001600160401b0383118484101760b05780849260809460405283398101031260ab57603e8160c6565b9060496020820160c6565b606060556040840160c6565b920151600080546001600160a01b03199081166001600160a01b03968716179091556001805482169386169390931790925560028054909216939092169290921790915560035560405161035090816100da8239f35b600080fd5b634e487b7160e01b600052604160045260246000fd5b51906001600160a01b038216820360ab5756fe608080604052600436101561001357600080fd5b60003560e01c90816369d89575146100f457508063a37dda2c146100cb578063aa8c217c146100ad578063ae200e79146100845763fd84030c1461005657600080fd5b3461007f57600036600319011261007f576002546040516001600160a01b039091168152602090f35b600080fd5b3461007f57600036600319011261007f576001546040516001600160a01b039091168152602090f35b3461007f57600036600319011261007f576020600354604051908152f35b3461007f57600036600319011261007f576000546040516001600160a01b039091168152602090f35b3461007f57600036600319011261007f576001546001600160a01b031633148015610306575b156102a6576000546001600160a01b0316801561026457479060035480921061021f57600080809381937f1225fd98dfabdd4896857de021e597506830a5f9b8ac44464a41ee4bd9266ff5606047604051908482528560208301526040820152a15af13d1561021a573d6001600160401b0381116102045760405190601f8101601f19908116603f011682016001600160401b03811183821017610204576040528152600060203d92013e5b156101cd57005b60405162461bcd60e51b815260206004820152600f60248201526e151c985b9cd9995c8819985a5b1959608a1b6044820152606490fd5b634e487b7160e01b600052604160045260246000fd5b6101c6565b60405162461bcd60e51b815260206004820152601e60248201527f496e73756666696369656e742062616c616e636520696e20657363726f7700006044820152606490fd5b60405162461bcd60e51b815260206004820152601a602482015279496e76616c696420667265656c616e636572206164647265737360301b6044820152606490fd5b62461bcd60e51b815260206004820152603560248201527f4f6e6c792074686520656d706c6f796572206f7220526571756573744d616e616044820152746765722063616e2072656c656173652066756e647360581b6064820152608490fd5b506002546001600160a01b0316331461011a56fea2646970667358221220408b3b040a3720b83892f6357eeb540be22c2708578e10e1d60ab62ff2e0d78c64736f6c63430008230033af24b5c95c71d4afa309bff2d28e48f37eb326d372f70e7020680835383f3fde7041399863d3c4321ae1532f5491889c4d2d545fe190c428f5fd525f5b68c5afa26469706673582212205e54ea324526e0485d9eedb7f865df8d8718e546a3d10ebcc9b70c6bc9ca81dd64736f6c63430008230033",
  "immutableReferences": {},
  "source": "// SPDX-License-Identifier: MIT\r\npragma solidity ^0.8.0;\r\n\r\nimport \"./Projects.sol\";\r\n\r\ncontract Escrow {\r\n    address public freelancer;\r\n    address public employer;\r\n    address public requestManager;\r\n    uint public amount;\r\n\r\n    event DebugPayment(address to, uint amount, uint contractBalance);\r\n\r\n    constructor(address _freelancer, address _employer, address _requestManager, uint _amount) payable {\r\n        freelancer = _freelancer;\r\n        employer = _employer;\r\n        requestManager = _requestManager;\r\n        amount = _amount;\r\n    }\r\n\r\n    function releaseFunds() external {\r\n        require(msg.sender == employer || msg.sender == requestManager, \"Only the employer or RequestManager can release funds\");\r\n        require(freelancer != address(0), \"Invalid freelancer address\");\r\n        require(address(this).balance >= amount, \"Insufficient balance in escrow\");\r\n\r\n        emit DebugPayment(freelancer, amount, address(this).balance);\r\n\r\n        (bool success, ) = payable(freelancer).call{value: amount}(\"\");\r\n        require(success, \"Transfer failed\");\r\n    }\r\n}\r\n\r\ncontract RequestManager {\r\n    Projects public projectsContract;\r\n\r\n    enum RequestStatus { Pending, Accepted, Rejected }\r\n    enum QuotationStatus { Pending, Proposed, Negotiating, Accepted, Rejected }\r\n\r\n    struct Request {\r\n        uint projectId;\r\n        address freelancer;\r\n        uint freelancerRating;\r\n        RequestStatus status;\r\n        Escrow escrowContract;\r\n    }\r\n\r\n    struct Quotation {\r\n        uint projectId;\r\n        address proposedBy;\r\n        uint proposedAmount;\r\n        string description;\r\n        string negotiationNotes;\r\n        QuotationStatus status;\r\n        uint timestamp;\r\n    }\r\n\r\n    struct MilestoneReviewRequest {\r\n        uint id;\r\n        uint milestoneId;\r\n        address freelancer;\r\n        string cid;\r\n        bool reviewed;\r\n    }\r\n\r\n    struct File {\r\n        uint id;\r\n        uint milestoneId;\r\n        string name;\r\n        string rid;\r\n        string cid;\r\n    }\r\n\r\n    struct ReviewResponse{\r\n        uint id;\r\n        uint milestoneId;\r\n        address freelancer;\r\n        string response;\r\n        bool accepted;\r\n    }\r\n    \r\n    mapping(uint => ReviewResponse) public reviewResponses;\r\n    uint public responseCount;\r\n\r\n    // Mapping milestone ID to an array of files\r\n    mapping(uint => File[]) public milestoneFiles;\r\n    uint public fileCount;\r\n\r\n    // Store all requests in a single mapping\r\n    mapping(uint => Request) public requests;\r\n    mapping(uint => uint) public projectToRequest; // projectId => requestId mapping\r\n    uint public requestCount; // To keep track of the total number of requests\r\n\r\n    mapping(uint => Quotation[]) public quotations; // projectId => array of quotations\r\n    mapping(uint => address) public assignedFreelancer; // projectId => freelancer address\r\n\r\n    mapping(uint => MilestoneReviewRequest) public milestoneReviewRequests;\r\n    uint public milestoneReviewRequestCount;\r\n\r\n    event RequestSent(uint requestId, uint projectId, address freelancer);\r\n    event RequestAccepted(uint requestId, address freelancer, address escrowContract);\r\n    event RequestRejected(uint requestId, address freelancer);\r\n    event QuotationProposed(uint projectId, address proposedBy, uint amount);\r\n    event QuotationCounterProposed(uint projectId, address proposedBy, uint amount, string notes);\r\n    event QuotationAccepted(uint projectId, uint newAmount);\r\n    event QuotationRejected(uint projectId);\r\n    event MilestoneReviewRequestSent(uint requestId, uint milestoneId, string cid);\r\n    event MilestoneAccepted(uint projectId, uint milestoneId, uint updatedRating);\r\n    event MilestoneReviewRequestRejected(uint indexed reviewRequestId, string reason);\r\n    event RejectionReasonAccepted(uint _reviewRequestId);\r\n    event EscrowReleased(uint requestId, address escrowContract, uint amount);\r\n\r\n    constructor(address _projectsContract) {\r\n        projectsContract = Projects(_projectsContract);\r\n    }\r\n\r\n    function getProjectsContractAddress() public view returns (address) {\r\n        return address(projectsContract);\r\n    }\r\n\r\n    function debugProjectCount() public view returns (uint) {\r\n        return projectsContract.projectCount();\r\n    }\r\n\r\n    function sendRequest(uint _projectId, uint _freelancerRating) public {\r\n        require(_projectId > 0 && _projectId <= projectsContract.projectCount(), \"Invalid project ID\");\r\n        (,, , , Projects.Status status, , ) = projectsContract.getProject(_projectId);\r\n        require(status == Projects.Status.Open, \"Project is not open\");\r\n\r\n        // Create a new request\r\n        requestCount++; // Increment request count to create a unique ID\r\n        requests[requestCount] = Request({\r\n            projectId: _projectId,\r\n            freelancer: msg.sender,\r\n            freelancerRating: _freelancerRating,\r\n            status: RequestStatus.Pending,\r\n            escrowContract: Escrow(address(0))\r\n        });\r\n        \r\n        // Map projectId to requestId for easy lookup\r\n        projectToRequest[_projectId] = requestCount;\r\n\r\n        emit RequestSent(requestCount, _projectId, msg.sender);\r\n    }\r\n\r\n    function acceptRequest(uint _requestId) public payable {\r\n        Request storage request = requests[_requestId];\r\n        require(request.freelancer != address(0), \"No request exists for this ID\");\r\n        require(request.status == RequestStatus.Pending, \"Request is not pending\");\r\n\r\n        // Fetch project details\r\n        (,, , uint projectReward, Projects.Status status, address employer, ) = projectsContract.getProject(request.projectId);\r\n        require(msg.sender == employer, \"Only the employer can accept the request\");\r\n        require(status == Projects.Status.Open, \"Project must be open\");\r\n\r\n        // Create new escrow contract instance with freelancer and employer details\r\n        request.escrowContract = new Escrow{value: projectReward}(request.freelancer, employer, address(this), projectReward);\r\n\r\n        request.status = RequestStatus.Accepted;\r\n        \r\n        // Mark freelancer as assigned and close the project\r\n        assignedFreelancer[request.projectId] = request.freelancer;\r\n        projectsContract.closeProject(request.projectId);\r\n        \r\n        emit RequestAccepted(_requestId, request.freelancer, address(request.escrowContract));\r\n    }\r\n\r\n    function rejectRequest(uint _requestId) public {\r\n        Request storage request = requests[_requestId];\r\n        require(request.freelancer != address(0), \"No request exists for this ID\");\r\n        require(request.status == RequestStatus.Pending, \"Request already processed\");\r\n\r\n        request.status = RequestStatus.Rejected;\r\n        emit RequestRejected(_requestId, request.freelancer);\r\n    }\r\n\r\n    \r\n\r\n    function getRequest(uint _requestId) public view returns (Request memory) {\r\n        require(requests[_requestId].freelancer != address(0), \"No request exists for this ID\");\r\n        return requests[_requestId];\r\n    }\r\n\r\n    // New function to view all requests\r\n    function viewAllRequests() public view returns (\r\n        uint[] memory requestIds,\r\n        uint[] memory projectIds,\r\n        address[] memory freelancers,\r\n        uint[] memory ratings,\r\n        RequestStatus[] memory statuses,\r\n        address[] memory escrowContracts\r\n    ) {\r\n        uint count = requestCount;\r\n\r\n        // Initialize arrays based on the total request count\r\n        requestIds = new uint[](count);\r\n        projectIds = new uint[](count);\r\n        freelancers = new address[](count);\r\n        ratings = new uint[](count);\r\n        statuses = new RequestStatus[](count);\r\n        escrowContracts = new address[](count);\r\n\r\n        // Populate the arrays with request details\r\n        for (uint i = 1; i <= requestCount; i++) {\r\n            Request storage request = requests[i];\r\n            requestIds[i - 1] = i;\r\n            projectIds[i - 1] = request.projectId;\r\n            freelancers[i - 1] = request.freelancer;\r\n            ratings[i - 1] = request.freelancerRating;\r\n            statuses[i - 1] = request.status;\r\n            escrowContracts[i - 1] = address(request.escrowContract);\r\n        }\r\n\r\n        return (requestIds, projectIds, freelancers, ratings, statuses, escrowContracts);\r\n    }\r\n\r\n\r\n    function viewAllReviewResponses() public view returns (\r\n        uint[] memory responseIds,\r\n        uint[] memory milestoneIds,\r\n        address[] memory freelancers,\r\n        string[] memory responses,\r\n        bool[] memory acceptedStatuses\r\n    ) {\r\n        uint count = responseCount;\r\n\r\n        // Initialize arrays based on the total response count\r\n        responseIds = new uint[](count);\r\n        milestoneIds = new uint[](count);\r\n        freelancers = new address[](count);\r\n        responses = new string[](count);\r\n        acceptedStatuses = new bool[](count);\r\n\r\n        // Populate the arrays with response details\r\n        for (uint i = 1; i <= count; i++) {\r\n            ReviewResponse storage reviewResponse = reviewResponses[i];\r\n            responseIds[i - 1] = reviewResponse.id;\r\n            milestoneIds[i - 1] = reviewResponse.milestoneId;\r\n            freelancers[i - 1] = reviewResponse.freelancer;\r\n            responses[i - 1] = reviewResponse.response;\r\n            acceptedStatuses[i - 1] = reviewResponse.accepted;\r\n        }\r\n\r\n        return (responseIds, milestoneIds, freelancers, responses, acceptedStatuses);\r\n    }\r\n\r\n\r\n    // function acceptMilestone(uint _milestoneId, uint _actualDaysTaken, uint _delayPenalty, uint _requestId) public payable {\r\n    //     Request memory request = getRequest(_requestId); // Retrieve the request using requestId\r\n\r\n    //     // Ensure projectId is valid\r\n    //     require(request.projectId > 0 && request.projectId <= projectsContract.projectCount(), \"Project does not exist\");\r\n\r\n    //     // Retrieve the project details using the getProject function\r\n    //     (, , , uint reward, , address employer) = projectsContract.getProject(request.projectId);\r\n    //     require(msg.sender == employer, \"Only the employer can accept milestones\");\r\n\r\n    //     // Ensure milestoneId is valid\r\n    //     (\r\n    //         uint[] memory ids,\r\n    //         uint[] memory projectIds,\r\n    //         string[] memory names,\r\n    //         string[] memory descriptions,\r\n    //         uint[] memory daycounts,\r\n    //         uint[] memory percentages,\r\n    //         bool[] memory completions,\r\n    //         string[] memory proofFileHashes\r\n    //     ) = projectsContract.getMilestones(request.projectId);\r\n\r\n    //     // Check if the milestone exists and is within bounds\r\n    //     require(_milestoneId > 0 && _milestoneId <= ids.length, \"Milestone does not exist\");\r\n        \r\n    //     // Fetch milestone data by using _milestoneId as an index\r\n    //     uint milestoneIndex = _milestoneId - 1;\r\n    //     require(!completions[milestoneIndex], \"Milestone already completed\");\r\n    //     require(bytes(proofFileHashes[milestoneIndex]).length > 0, \"Proof file not uploaded\");\r\n\r\n    //     // Mark the milestone as completed\r\n    //     projectsContract.completeMilestone(request.projectId, _milestoneId);\r\n\r\n    //     // Calculate and update freelancer rating based on the provided formula\r\n    //     uint currentRating = projectsContract.getFreelancerRating(request.freelancer);\r\n    //     uint rewardWeight = (percentages[milestoneIndex] * reward) / 100;\r\n    //     int ratingChange = int((5 * 100 * rewardWeight * daycounts[milestoneIndex]) / (reward * _actualDaysTaken));\r\n\r\n    //     // Cap the increment at +0.2 if positive\r\n    //     if (ratingChange > 20) {\r\n    //         ratingChange = 20;\r\n    //     }\r\n\r\n    //     uint newRating = uint(int(currentRating) + ratingChange);\r\n\r\n    //     // Ensure new rating doesn't exceed 5.0 (500 basis points)\r\n    //     if (newRating > 500) {\r\n    //         newRating = 500;\r\n    //     }\r\n\r\n    //     // Update the freelancer's rating\r\n    //     projectsContract.setFreelancerRating(request.freelancer, newRating);\r\n\r\n    //     // Release milestone payment from the escrow with the specified penalty\r\n    //     uint milestonePercentage = percentages[milestoneIndex];\r\n    //     request.escrowContract.releaseMilestonePayment(milestonePercentage, _delayPenalty);\r\n\r\n    //     emit MilestoneAccepted(request.projectId, _milestoneId, newRating);\r\n    // }\r\n\r\n\r\n    function viewRequestsByEmployer() public view returns (\r\n            uint[] memory requestIds,\r\n            uint[] memory projectIds,\r\n            address[] memory freelancers,\r\n            uint[] memory ratings,\r\n            RequestStatus[] memory statuses,\r\n            address[] memory escrowContracts\r\n        ) {\r\n            uint count = 0;\r\n\r\n            // Count requests that belong to projects owned by the employer\r\n            for (uint i = 1; i <= requestCount; i++) {\r\n                uint projectId = requests[i].projectId;\r\n                (, , , , , address employer, ) = projectsContract.getProject(projectId);\r\n                if (employer == msg.sender) {\r\n                    count++;\r\n                }\r\n            }\r\n\r\n            // Initialize arrays based on the count of matching requests\r\n            requestIds = new uint[](count);\r\n            projectIds = new uint[](count);\r\n            freelancers = new address[](count);\r\n            ratings = new uint[](count);\r\n            statuses = new RequestStatus[](count);\r\n            escrowContracts = new address[](count);\r\n\r\n            uint index = 0;\r\n\r\n            // Populate the arrays with matching request details\r\n            for (uint i = 1; i <= requestCount; i++) {\r\n                uint projectId = requests[i].projectId;\r\n                (, , , , , address employer, ) = projectsContract.getProject(projectId);\r\n                if (employer == msg.sender) {\r\n                    Request storage request = requests[i];\r\n                    requestIds[index] = i;\r\n                    projectIds[index] = request.projectId;\r\n                    freelancers[index] = request.freelancer;\r\n                    ratings[index] = request.freelancerRating;\r\n                    statuses[index] = request.status;\r\n                    escrowContracts[index] = address(request.escrowContract);\r\n                    index++;\r\n                }\r\n            }\r\n\r\n            return (requestIds, projectIds, freelancers, ratings, statuses, escrowContracts);\r\n    }\r\n\r\n    function sendMilestoneReviewRequest(uint _milestoneId, string calldata _cid, address _freelancer) public {\r\n        // Create a new milestone review request\r\n        milestoneReviewRequestCount++; // Increment count for unique ID\r\n        milestoneReviewRequests[milestoneReviewRequestCount] = MilestoneReviewRequest({\r\n            id: milestoneReviewRequestCount,\r\n            milestoneId: _milestoneId,\r\n            freelancer: _freelancer,\r\n            cid: _cid,\r\n            reviewed: false // Initially, the request is not reviewed\r\n        });\r\n\r\n        emit MilestoneReviewRequestSent(milestoneReviewRequestCount, _milestoneId, _cid); // Emit event\r\n    }\r\n\r\n    function viewAllMilestoneReviewRequests() public view returns (\r\n        uint[] memory requestIds,\r\n        uint[] memory milestoneIds,\r\n        address[] memory freelancers,\r\n        string[] memory cids,\r\n        bool[] memory reviewedStatuses\r\n    ) {\r\n        uint count = milestoneReviewRequestCount;\r\n\r\n        // Initialize arrays based on the total count of review requests\r\n        requestIds = new uint[](count);\r\n        milestoneIds = new uint[](count);\r\n        freelancers = new address[](count);\r\n        cids = new string[](count);\r\n        reviewedStatuses = new bool[](count);\r\n\r\n        // Populate the arrays with review request details\r\n        for (uint i = 1; i <= milestoneReviewRequestCount; i++) {\r\n            MilestoneReviewRequest storage reviewRequest = milestoneReviewRequests[i];\r\n            requestIds[i - 1] = reviewRequest.id;\r\n            milestoneIds[i - 1] = reviewRequest.milestoneId;\r\n            freelancers[i - 1] = reviewRequest.freelancer;\r\n            cids[i - 1] = reviewRequest.cid;\r\n            reviewedStatuses[i - 1] = reviewRequest.reviewed;\r\n        }\r\n\r\n        return (requestIds, milestoneIds, freelancers, cids, reviewedStatuses);\r\n    }\r\n\r\n\r\n    function getEscrowAccountFromReviewRequest(uint _reviewRequestId, uint _projectId) public view returns (Escrow) {\r\n        // Fetch the MilestoneReviewRequest using the provided ID\r\n        MilestoneReviewRequest storage reviewRequest = milestoneReviewRequests[_reviewRequestId];\r\n\r\n        // Ensure the review request exists\r\n        require(reviewRequest.id != 0, \"Review request does not exist\");\r\n        \r\n        // Find the corresponding request based on the project ID and freelancer address\r\n        for (uint i = 1; i <= requestCount; i++) {\r\n            Request storage request = requests[i];\r\n\r\n            // Check if the request matches the provided projectId and the freelancer address from the review request\r\n            if (request.projectId == _projectId && request.freelancer == reviewRequest.freelancer && request.status == RequestStatus.Accepted) {\r\n                return request.escrowContract; // Return the escrow contract associated with the request\r\n            }\r\n        }\r\n\r\n        // If no matching request was found, revert with an error message\r\n        revert(\"No matching request found for this review request\");\r\n    }\r\n\r\n    function acceptMilestoneReviewRequest(uint _reviewRequestId, uint _milestoneId) public payable {\r\n        // Fetch the  request using the ID\r\n        MilestoneReviewRequest storage reviewRequest = milestoneReviewRequests[_reviewRequestId];\r\n        require(!reviewRequest.reviewed, \"Review request already accepted\");\r\n\r\n        // Find the project ID that contains this milestone\r\n        uint _projId = 0;\r\n        uint projectCount = projectsContract.projectCount();\r\n        for (uint p = 1; p <= projectCount; p++) {\r\n            (uint[] memory tempIds, , , , , , , , , , ) = projectsContract.getMilestones(p);\r\n            for (uint m = 0; m < tempIds.length; m++) {\r\n                if (tempIds[m] == _milestoneId) {\r\n                    _projId = p;\r\n                    break;\r\n                }\r\n            }\r\n            if (_projId != 0) break;\r\n        }\r\n        require(_projId != 0, \"Milestone not found in any project\");\r\n\r\n        // Get the milestone ID from the  request\r\n        uint milestoneId = _milestoneId;\r\n\r\n        // Retrieve the associated milestones for the project\r\n        (\r\n            uint[] memory ids,\r\n            uint[] memory _projectIds,\r\n            string[] memory names,\r\n            string[] memory descriptions,\r\n            uint[] memory daycounts,\r\n            uint[] memory percentages,\r\n            Projects.MilestoneStatus[] memory statuses,\r\n            address[] memory freelancers,\r\n            address[] memory clients,\r\n            uint[] memory amounts,\r\n            string[] memory proofFileHashes\r\n        ) = projectsContract.getMilestones(_projId);\r\n\r\n        // Initialize variables to store the milestone data once we find it\r\n        bool milestoneFound = false;\r\n        string memory milestoneName;\r\n        string memory milestoneDescription;\r\n        uint milestoneDaycount;\r\n        uint milestonePercentage;\r\n        Projects.MilestoneStatus milestoneStatus;\r\n        address milestoneFreelancer;\r\n        address milestoneClient;\r\n        uint milestoneAmount;\r\n        string memory milestoneProofFileHash;\r\n\r\n        // Fetch project details and validate the caller is the employer\r\n        (, , , , Projects.Status _status, address employer, ) = projectsContract.getProject(_projId);\r\n        _projectIds.length;\r\n        _status;\r\n        require(msg.sender == employer, \"Only the employer can accept milestone review requests\");\r\n\r\n        // Search for the milestone with the specified milestoneId\r\n        uint milestoneIndex = type(uint).max;\r\n        for (uint i = 0; i < ids.length; i++) {\r\n            if (ids[i] == milestoneId) {\r\n                milestoneFound = true;\r\n                milestoneIndex = i;\r\n                milestoneName = names[i];\r\n                milestoneDescription = descriptions[i];\r\n                milestoneDaycount = daycounts[i];\r\n                milestonePercentage = percentages[i];\r\n                milestoneStatus = statuses[i];\r\n                milestoneFreelancer = freelancers[i];\r\n                milestoneClient = clients[i];\r\n                milestoneAmount = amounts[i];\r\n                milestoneProofFileHash = proofFileHashes[i];\r\n                break;\r\n            }\r\n        }\r\n\r\n        require(milestoneFound, \"Milestone does not exist\");\r\n\r\n        reviewRequest.reviewed = true;\r\n\r\n        // Mark the milestone completed in the Projects contract\r\n        projectsContract.completeMilestone(_projId, milestoneId);\r\n\r\n        // Update our local status snapshot to reflect the change just made in Projects\r\n        if (milestoneIndex != type(uint).max) {\r\n            statuses[milestoneIndex] = Projects.MilestoneStatus.Approved;\r\n        }\r\n\r\n        // Get freelancer's address from the request\r\n        address freelancer = reviewRequest.freelancer;\r\n\r\n        // Update freelancer rating based on the milestone percentage\r\n        uint currentRating = projectsContract.getFreelancerRating(freelancer);\r\n        // uint rewardWeight = projReward / 100;\r\n        uint newRating = currentRating + (5 * milestonePercentage / 100);\r\n\r\n        // Ensure the new rating does not exceed 500\r\n        if (newRating > 500) {\r\n            newRating = 500;\r\n        }\r\n\r\n        // Set the new rating for the freelancer\r\n        projectsContract.setFreelancerRating(freelancer, newRating);\r\n\r\n        // If all milestones are now approved, release escrow funds to the freelancer\r\n        bool allMilestonesApproved = true;\r\n        for (uint i = 0; i < statuses.length; i++) {\r\n            if (statuses[i] != Projects.MilestoneStatus.Approved) {\r\n                allMilestonesApproved = false;\r\n                break;\r\n            }\r\n        }\r\n\r\n        if (allMilestonesApproved) {\r\n            Escrow escrow = getEscrowAccountFromReviewRequest(_reviewRequestId, _projId);\r\n            uint escrowAmount = escrow.amount();\r\n            escrow.releaseFunds();\r\n            emit EscrowReleased(_reviewRequestId, address(escrow), escrowAmount);\r\n        }\r\n\r\n        uint milestoneIdForResponse = milestoneId;\r\n        address _freelancer = reviewRequest.freelancer;\r\n\r\n        responseCount++;\r\n        reviewResponses[responseCount] = ReviewResponse({\r\n            id: responseCount,\r\n            milestoneId: milestoneIdForResponse,\r\n            freelancer: _freelancer,\r\n            response: \"\",\r\n            accepted: true\r\n        });\r\n    }\r\n    //     require(projEmployer == msg.sender, \"Only the employer can accept milestones\");\r\n\r\n    //     // Mark the review request as accepted\r\n    //     reviewRequest.reviewed = true;\r\n\r\n    //     // Get freelancer's address from the request\r\n    //     address freelancer = reviewRequest.freelancer;\r\n\r\n    //     // Update freelancer rating based on the milestone percentage\r\n    //     uint currentRating = projectsContract.getFreelancerRating(freelancer);\r\n    //     uint rewardWeight = projReward / 100;\r\n    //     uint newRating = currentRating + (5 * milestonePercentage / rewardWeight);\r\n\r\n    //     // Ensure the new rating does not exceed 500\r\n    //     if (newRating > 500) {\r\n    //         newRating = 500;\r\n    //     }\r\n\r\n    //     // Set the new rating for the freelancer\r\n    //     projectsContract.setFreelancerRating(freelancer, newRating);\r\n\r\n    //     // Find the request with the matching projectId and freelancer\r\n    //     uint requestIndex;\r\n    //     bool foundRequest = false;\r\n\r\n    //     for (uint i = 0; i < requestCount; i++) {\r\n    //         if (requests[i].projectId == _projId && requests[i].freelancer == freelancer && requests[i].status == RequestStatus.Accepted) {\r\n    //             requestIndex = i;\r\n    //             foundRequest = true;\r\n    //             break;\r\n    //         }\r\n    //     }\r\n    //     require(foundRequest, \"Associated request not found\");\r\n\r\n    //     // Release the milestone payment from escrow using the found request\r\n    //     requests[requestIndex].escrowContract.releaseMilestonePayment(milestonePercentage);\r\n\r\n    //     // Emit an event to record the milestone acceptance\r\n    //     emit MilestoneAccepted(projId, milestoneId, newRating);\r\n    // }\r\n\r\n    // function acceptMilestoneReviewRequest(uint _reviewRequestId, uint _projId) public payable {\r\n    //     // Fetch the request using the ID\r\n    //     MilestoneReviewRequest storage reviewRequest = milestoneReviewRequests[_reviewRequestId];\r\n    //     require(reviewRequest.id != 0, \"Review request does not exist\");\r\n    //     require(!reviewRequest.reviewed, \"Review request already accepted\");\r\n\r\n    //     // Get the milestone ID from the request\r\n    //     uint milestoneId = reviewRequest.milestoneId;\r\n\r\n    //     // Retrieve the associated milestones for the project\r\n    //     (\r\n    //         uint[] memory ids,\r\n    //         ,  // projectIds not used\r\n    //         ,  // names not used\r\n    //         ,  // descriptions not used\r\n    //         uint[] memory daycounts,\r\n    //         uint[] memory percentages,\r\n    //         bool[] memory completions,\r\n    //         string[] memory proofFileHashes\r\n    //     ) = projectsContract.getMilestones(_projId);\r\n\r\n    //     // Verify that the milestone exists and get its index\r\n    //     uint milestoneIndex;\r\n    //     bool milestoneFound = false;\r\n    //     for (uint i = 0; i < ids.length; i++) {\r\n    //         if (ids[i] == milestoneId) {\r\n    //             milestoneIndex = i;\r\n    //             milestoneFound = true;\r\n    //             break;\r\n    //         }\r\n    //     }\r\n    //     require(milestoneFound, \"Milestone does not exist\");\r\n    //     require(!completions[milestoneIndex], \"Milestone already completed\");\r\n    //     require(bytes(proofFileHashes[milestoneIndex]).length > 0, \"Proof file not uploaded\");\r\n\r\n    //     // Get project details\r\n    //     (, , , uint projReward, , address projEmployer) = projectsContract.getProject(_projId);\r\n    //     require(msg.sender == projEmployer, \"Only the employer can accept milestones\");\r\n\r\n    //     // Mark the milestone as completed in the Projects contract\r\n    //     projectsContract.completeMilestone(_projId, milestoneId);\r\n\r\n    //     // Mark the review request as accepted\r\n    //     reviewRequest.reviewed = true;\r\n\r\n    //     // Get freelancer's address from the request\r\n    //     address freelancer = reviewRequest.freelancer;\r\n\r\n    //     // Update freelancer rating\r\n    //     uint currentRating = projectsContract.getFreelancerRating(freelancer);\r\n    //     uint milestonePercentage = percentages[milestoneIndex];\r\n        \r\n    //     // Calculate rating increase based on milestone percentage and project reward\r\n    //     uint ratingIncrease = (5 * milestonePercentage * daycounts[milestoneIndex]) / 100;\r\n    //     uint newRating = currentRating + ratingIncrease;\r\n        \r\n    //     // Cap the rating at 500 (5.0)\r\n    //     if (newRating > 500) {\r\n    //         newRating = 500;\r\n    //     }\r\n\r\n    //     // Update the freelancer's rating\r\n    //     projectsContract.setFreelancerRating(freelancer, newRating);\r\n\r\n    //     // Find the associated request for the escrow\r\n    //     uint requestId;\r\n    //     bool foundRequest = false;\r\n    //     for (uint i = 1; i <= requestCount; i++) {\r\n    //         if (requests[i].projectId == _projId && \r\n    //             requests[i].freelancer == freelancer && \r\n    //             requests[i].status == RequestStatus.Accepted) {\r\n    //             requestId = i;\r\n    //             foundRequest = true;\r\n    //             break;\r\n    //         }\r\n    //     }\r\n    //     require(foundRequest, \"Associated request not found\");\r\n    //     require(address(requests[requestId].escrowContract) != address(0), \"Escrow contract not found\");\r\n\r\n    //     // Release the milestone payment from escrow\r\n    //     requests[requestId].escrowContract.releaseMilestonePayment(milestonePercentage);\r\n\r\n    //     // Emit event\r\n    //     emit MilestoneAccepted(_projId, milestoneId, newRating);\r\n    // }\r\n\r\n\r\n\r\n\r\n    function rejectMilestoneReviewRequest(uint _reviewRequestId, string calldata _reason)  public {\r\n        MilestoneReviewRequest storage reviewRequest = milestoneReviewRequests[_reviewRequestId];\r\n        require(!reviewRequest.reviewed, \"Review request already processed\");\r\n        reviewRequest.reviewed = true;\r\n\r\n        uint _milestoneId = reviewRequest.milestoneId;\r\n        address _freelancer = reviewRequest.freelancer;\r\n\r\n        responseCount++;\r\n        // request.escrowContract = new ReviewResponse{value: projectReward}(request.freelancer, employer);\r\n        reviewResponses[responseCount] = ReviewResponse({\r\n            id: responseCount,\r\n            milestoneId: _milestoneId,\r\n            freelancer: _freelancer,\r\n            response: _reason,\r\n            accepted: false\r\n        });\r\n\r\n        emit MilestoneReviewRequestRejected(_reviewRequestId, _reason);\r\n    }\r\n\r\n    function acceptRejectionReason(uint _reviewRequestId) public {\r\n        // Fetch the request using the ID\r\n        MilestoneReviewRequest storage reviewRequest = milestoneReviewRequests[_reviewRequestId];\r\n        \r\n        // Check if the request exists and if it is not already reviewed\r\n        require(reviewRequest.freelancer == msg.sender, \"Only the freelancer can accept the rejection reason\");\r\n        require(!reviewRequest.reviewed, \"Review request already reviewed\");\r\n\r\n        // Accept the rejection reason and mark the request as reviewed\r\n        reviewRequest.reviewed = true;\r\n\r\n        // Emit an event for this action (optional)\r\n        emit RejectionReasonAccepted(_reviewRequestId);\r\n    }\r\n\r\n\r\n    function addFile(\r\n        uint _milestoneId, \r\n        string memory _name, \r\n        string memory _rid, \r\n        string memory _cid\r\n    ) public {\r\n        // Create a new File struct with a unique ID and add it to the milestoneFiles map\r\n        File memory newFile = File({\r\n            id: fileCount, // unique global ID for each file\r\n            milestoneId: _milestoneId,\r\n            name: _name,\r\n            rid: _rid,\r\n            cid: _cid\r\n        });\r\n        \r\n        milestoneFiles[_milestoneId].push(newFile); // Add file to the array for the specific milestone\r\n        fileCount++; // Increment the global file count\r\n    }\r\n\r\n    function viewAllFilesForMilestone(uint _milestoneId) \r\n        public \r\n        view \r\n        returns (\r\n            uint[] memory ids,\r\n            uint[] memory milestoneIds,\r\n            string[] memory names,\r\n            string[] memory rids,\r\n            string[] memory cids\r\n        ) \r\n    {\r\n        uint count = fileCount; // Assuming 'fileCount' keeps track of the total files added\r\n\r\n        // Initialize arrays based on the total file count for the specified milestone\r\n        ids = new uint[](count);\r\n        milestoneIds = new uint[](count);\r\n        names = new string[](count);\r\n        rids = new string[](count);\r\n        cids = new string[](count);\r\n\r\n        // Populate the arrays with file details for the given milestone\r\n        uint index = 0;\r\n        for (uint i = 0; i < count; i++) {\r\n            if (milestoneFiles[_milestoneId][i].milestoneId == _milestoneId) {\r\n                File storage file = milestoneFiles[_milestoneId][i];\r\n                ids[index] = file.id;\r\n                milestoneIds[index] = file.milestoneId;\r\n                names[index] = file.name;\r\n                rids[index] = file.rid;\r\n                cids[index] = file.cid;\r\n                index++;\r\n            }\r\n        }\r\n\r\n        return (ids, milestoneIds, names, rids, cids);\r\n    }\r\n\r\n    // ===== NEW FUNCTIONS FOR ADDITIONAL FEATURES =====\r\n\r\n    /**\r\n     * Send a request draft from freelancer to employer (client)\r\n     */\r\n    /**\r\n     * Quotation Functions\r\n     */\r\n    \r\n    function proposeQuotation(uint _projectId, uint _proposedAmount, string memory _description) public {\r\n        require(_projectId > 0 && _projectId <= projectsContract.projectCount(), \"Invalid project ID\");\r\n        require(_proposedAmount > 0, \"Amount must be greater than 0\");\r\n        require(bytes(_description).length > 0, \"Description cannot be empty\");\r\n        \r\n        uint requestId = projectToRequest[_projectId];\r\n        require(requestId > 0, \"No request exists for this project\");\r\n        \r\n        (,,,, Projects.Status status, address employer, ) = projectsContract.getProject(_projectId);\r\n        require(status == Projects.Status.Open, \"Project is not open for quotations\");\r\n        \r\n        Request storage request = requests[requestId];\r\n        // Can be proposed by freelancer (requesting the project) or employer (counter-offer)\r\n        require(msg.sender == request.freelancer || msg.sender == employer, \"Only freelancer or employer can propose quotation\");\r\n\r\n        Quotation memory newQuotation = Quotation({\r\n            projectId: _projectId,\r\n            proposedBy: msg.sender,\r\n            proposedAmount: _proposedAmount,\r\n            description: _description,\r\n            negotiationNotes: \"\",\r\n            status: QuotationStatus.Proposed,\r\n            timestamp: block.timestamp\r\n        });\r\n\r\n        quotations[_projectId].push(newQuotation);\r\n        emit QuotationProposed(_projectId, msg.sender, _proposedAmount);\r\n    }\r\n\r\n    function counterPropose(uint _projectId, uint _newAmount, string memory _notes) public {\r\n        require(_projectId > 0 && _projectId <= projectsContract.projectCount(), \"Invalid project ID\");\r\n        require(_newAmount > 0, \"Amount must be greater than 0\");\r\n        require(quotations[_projectId].length > 0, \"No quotations exist for this project\");\r\n        \r\n        uint requestId = projectToRequest[_projectId];\r\n        require(requestId > 0, \"No request exists for this project\");\r\n        \r\n        (,,,, Projects.Status status, address employer, ) = projectsContract.getProject(_projectId);\r\n        require(status == Projects.Status.Open, \"Project is not open for negotiation\");\r\n        \r\n        Request storage request = requests[requestId];\r\n        Quotation[] storage projQuotations = quotations[_projectId];\r\n        uint lastIdx = projQuotations.length - 1;\r\n        Quotation storage lastQuotation = projQuotations[lastIdx];\r\n        \r\n        // Counter offer must come from the other party\r\n        if (lastQuotation.proposedBy == request.freelancer) {\r\n            require(msg.sender == employer, \"Only employer can counter-offer on freelancer's proposal\");\r\n        } else {\r\n            require(msg.sender == request.freelancer, \"Only freelancer can counter-offer on employer's proposal\");\r\n        }\r\n        \r\n        lastQuotation.status = QuotationStatus.Negotiating;\r\n        lastQuotation.proposedAmount = _newAmount;\r\n        lastQuotation.negotiationNotes = _notes;\r\n        \r\n        emit QuotationCounterProposed(_projectId, msg.sender, _newAmount, _notes);\r\n    }\r\n\r\n    function acceptQuotation(uint _projectId, uint _quotationIndex) public payable {\r\n        require(_projectId > 0 && _projectId <= projectsContract.projectCount(), \"Invalid project ID\");\r\n        require(_quotationIndex < quotations[_projectId].length, \"Invalid quotation index\");\r\n        \r\n        uint requestId = projectToRequest[_projectId];\r\n        require(requestId > 0, \"No request exists for this project\");\r\n        \r\n        (,,,, Projects.Status status, address employer, ) = projectsContract.getProject(_projectId);\r\n        require(status == Projects.Status.Open, \"Project is not open\");\r\n        require(msg.sender == employer, \"Only employer can accept quotation\");\r\n        \r\n        Request storage request = requests[requestId];\r\n        Quotation storage quotation = quotations[_projectId][_quotationIndex];\r\n        require(quotation.status == QuotationStatus.Proposed || quotation.status == QuotationStatus.Negotiating, \"Quotation cannot be accepted\");\r\n        require(msg.value == quotation.proposedAmount, \"Sent amount must match proposed amount\");\r\n        \r\n        quotation.status = QuotationStatus.Accepted;\r\n        \r\n        // Create escrow with new amount\r\n        Escrow escrow = new Escrow{value: quotation.proposedAmount}(request.freelancer, employer, address(this), quotation.proposedAmount);\r\n        request.escrowContract = escrow;\r\n        request.status = RequestStatus.Accepted;\r\n        \r\n        assignedFreelancer[_projectId] = request.freelancer;\r\n        projectsContract.closeProject(_projectId);\r\n        \r\n        emit QuotationAccepted(_projectId, quotation.proposedAmount);\r\n    }\r\n\r\n    function rejectQuotation(uint _projectId, uint _quotationIndex) public {\r\n        require(_projectId > 0 && _projectId <= projectsContract.projectCount(), \"Invalid project ID\");\r\n        require(_quotationIndex < quotations[_projectId].length, \"Invalid quotation index\");\r\n        \r\n        (,,,, Projects.Status status, address employer, ) = projectsContract.getProject(_projectId);\r\n        require(status == Projects.Status.Open, \"Project is not open\");\r\n        require(msg.sender == employer, \"Only employer can reject quotation\");\r\n        \r\n        Quotation storage quotation = quotations[_projectId][_quotationIndex];\r\n        quotation.status = QuotationStatus.Rejected;\r\n        \r\n        emit QuotationRejected(_projectId);\r\n    }\r\n\r\n    function getQuotations(uint _projectId) public view returns (Quotation[] memory) {\r\n        return quotations[_projectId];\r\n    }\r\n\r\n    function getLatestQuotation(uint _projectId) public view returns (Quotation memory) {\r\n        require(quotations[_projectId].length > 0, \"No quotations for this project\");\r\n        return quotations[_projectId][quotations[_projectId].length - 1];\r\n    }\r\n\r\n    function isProjectAssigned(uint _projectId) public view returns (bool) {\r\n        return assignedFreelancer[_projectId] != address(0);\r\n    }\r\n}\r\n\r\n",
  "sourcePath": "D:\\Maj_proj\\Lance-With-quote\\truffle_project\\contracts\\RequestManager.sol",
  "compiler": {
    "name": "solc",
    "version": "0.8.35+commit.47b9dedd.Emscripten.clang"
  },
  "schemaVersion": "3.4.16",
  "updatedAt": "2026-05-02T19:03:06.965Z",
  "devdoc": {
    "kind": "dev",
    "methods": {},
    "version": 1
  },
  "userdoc": {
    "kind": "user",
    "methods": {
      "proposeQuotation(uint256,uint256,string)": {
        "notice": "Quotation Functions"
      }
    },
    "version": 1
  }
}