{
  "contractName": "RequestManager",
  "abi": [
    {
      "inputs": [
        {
          "internalType": "address",
          "name": "_projectsContract",
          "type": "address"
        }
      ],
      "stateMutability": "nonpayable",
      "type": "constructor"
    },
    {
      "anonymous": false,
      "inputs": [
        {
          "indexed": false,
          "internalType": "uint256",
          "name": "requestId",
          "type": "uint256"
        },
        {
          "indexed": false,
          "internalType": "address",
          "name": "escrowContract",
          "type": "address"
        },
        {
          "indexed": false,
          "internalType": "uint256",
          "name": "amount",
          "type": "uint256"
        }
      ],
      "name": "EscrowReleased",
      "type": "event"
    },
    {
      "anonymous": false,
      "inputs": [
        {
          "indexed": false,
          "internalType": "uint256",
          "name": "projectId",
          "type": "uint256"
        },
        {
          "indexed": false,
          "internalType": "uint256",
          "name": "milestoneId",
          "type": "uint256"
        },
        {
          "indexed": false,
          "internalType": "uint256",
          "name": "updatedRating",
          "type": "uint256"
        }
      ],
      "name": "MilestoneAccepted",
      "type": "event"
    },
    {
      "anonymous": false,
      "inputs": [
        {
          "indexed": true,
          "internalType": "uint256",
          "name": "reviewRequestId",
          "type": "uint256"
        },
        {
          "indexed": false,
          "internalType": "string",
          "name": "reason",
          "type": "string"
        }
      ],
      "name": "MilestoneReviewRequestRejected",
      "type": "event"
    },
    {
      "anonymous": false,
      "inputs": [
        {
          "indexed": false,
          "internalType": "uint256",
          "name": "requestId",
          "type": "uint256"
        },
        {
          "indexed": false,
          "internalType": "uint256",
          "name": "milestoneId",
          "type": "uint256"
        },
        {
          "indexed": false,
          "internalType": "string",
          "name": "cid",
          "type": "string"
        }
      ],
      "name": "MilestoneReviewRequestSent",
      "type": "event"
    },
    {
      "anonymous": false,
      "inputs": [
        {
          "indexed": false,
          "internalType": "uint256",
          "name": "projectId",
          "type": "uint256"
        },
        {
          "indexed": false,
          "internalType": "uint256",
          "name": "newAmount",
          "type": "uint256"
        }
      ],
      "name": "QuotationAccepted",
      "type": "event"
    },
    {
      "anonymous": false,
      "inputs": [
        {
          "indexed": false,
          "internalType": "uint256",
          "name": "projectId",
          "type": "uint256"
        },
        {
          "indexed": false,
          "internalType": "address",
          "name": "proposedBy",
          "type": "address"
        },
        {
          "indexed": false,
          "internalType": "uint256",
          "name": "amount",
          "type": "uint256"
        },
        {
          "indexed": false,
          "internalType": "string",
          "name": "notes",
          "type": "string"
        }
      ],
      "name": "QuotationCounterProposed",
      "type": "event"
    },
    {
      "anonymous": false,
      "inputs": [
        {
          "indexed": false,
          "internalType": "uint256",
          "name": "projectId",
          "type": "uint256"
        },
        {
          "indexed": false,
          "internalType": "address",
          "name": "proposedBy",
          "type": "address"
        },
        {
          "indexed": false,
          "internalType": "uint256",
          "name": "amount",
          "type": "uint256"
        }
      ],
      "name": "QuotationProposed",
      "type": "event"
    },
    {
      "anonymous": false,
      "inputs": [
        {
          "indexed": false,
          "internalType": "uint256",
          "name": "projectId",
          "type": "uint256"
        }
      ],
      "name": "QuotationRejected",
      "type": "event"
    },
    {
      "anonymous": false,
      "inputs": [
        {
          "indexed": false,
          "internalType": "uint256",
          "name": "_reviewRequestId",
          "type": "uint256"
        }
      ],
      "name": "RejectionReasonAccepted",
      "type": "event"
    },
    {
      "anonymous": false,
      "inputs": [
        {
          "indexed": false,
          "internalType": "uint256",
          "name": "requestId",
          "type": "uint256"
        },
        {
          "indexed": false,
          "internalType": "address",
          "name": "freelancer",
          "type": "address"
        },
        {
          "indexed": false,
          "internalType": "address",
          "name": "escrowContract",
          "type": "address"
        }
      ],
      "name": "RequestAccepted",
      "type": "event"
    },
    {
      "anonymous": false,
      "inputs": [
        {
          "indexed": false,
          "internalType": "uint256",
          "name": "requestId",
          "type": "uint256"
        },
        {
          "indexed": false,
          "internalType": "address",
          "name": "freelancer",
          "type": "address"
        }
      ],
      "name": "RequestRejected",
      "type": "event"
    },
    {
      "anonymous": false,
      "inputs": [
        {
          "indexed": false,
          "internalType": "uint256",
          "name": "requestId",
          "type": "uint256"
        },
        {
          "indexed": false,
          "internalType": "uint256",
          "name": "projectId",
          "type": "uint256"
        },
        {
          "indexed": false,
          "internalType": "address",
          "name": "freelancer",
          "type": "address"
        }
      ],
      "name": "RequestSent",
      "type": "event"
    },
    {
      "inputs": [
        {
          "internalType": "uint256",
          "name": "",
          "type": "uint256"
        }
      ],
      "name": "assignedFreelancer",
      "outputs": [
        {
          "internalType": "address",
          "name": "",
          "type": "address"
        }
      ],
      "stateMutability": "view",
      "type": "function",
      "constant": true
    },
    {
      "inputs": [],
      "name": "fileCount",
      "outputs": [
        {
          "internalType": "uint256",
          "name": "",
          "type": "uint256"
        }
      ],
      "stateMutability": "view",
      "type": "function",
      "constant": true
    },
    {
      "inputs": [
        {
          "internalType": "uint256",
          "name": "",
          "type": "uint256"
        },
        {
          "internalType": "uint256",
          "name": "",
          "type": "uint256"
        }
      ],
      "name": "milestoneFiles",
      "outputs": [
        {
          "internalType": "uint256",
          "name": "id",
          "type": "uint256"
        },
        {
          "internalType": "uint256",
          "name": "milestoneId",
          "type": "uint256"
        },
        {
          "internalType": "string",
          "name": "name",
          "type": "string"
        },
        {
          "internalType": "string",
          "name": "rid",
          "type": "string"
        },
        {
          "internalType": "string",
          "name": "cid",
          "type": "string"
        }
      ],
      "stateMutability": "view",
      "type": "function",
      "constant": true
    },
    {
      "inputs": [],
      "name": "milestoneReviewRequestCount",
      "outputs": [
        {
          "internalType": "uint256",
          "name": "",
          "type": "uint256"
        }
      ],
      "stateMutability": "view",
      "type": "function",
      "constant": true
    },
    {
      "inputs": [
        {
          "internalType": "uint256",
          "name": "",
          "type": "uint256"
        }
      ],
      "name": "milestoneReviewRequests",
      "outputs": [
        {
          "internalType": "uint256",
          "name": "id",
          "type": "uint256"
        },
        {
          "internalType": "uint256",
          "name": "milestoneId",
          "type": "uint256"
        },
        {
          "internalType": "address",
          "name": "freelancer",
          "type": "address"
        },
        {
          "internalType": "string",
          "name": "cid",
          "type": "string"
        },
        {
          "internalType": "bool",
          "name": "reviewed",
          "type": "bool"
        }
      ],
      "stateMutability": "view",
      "type": "function",
      "constant": true
    },
    {
      "inputs": [
        {
          "internalType": "uint256",
          "name": "",
          "type": "uint256"
        }
      ],
      "name": "projectToRequest",
      "outputs": [
        {
          "internalType": "uint256",
          "name": "",
          "type": "uint256"
        }
      ],
      "stateMutability": "view",
      "type": "function",
      "constant": true
    },
    {
      "inputs": [],
      "name": "projectsContract",
      "outputs": [
        {
          "internalType": "contract Projects",
          "name": "",
          "type": "address"
        }
      ],
      "stateMutability": "view",
      "type": "function",
      "constant": true
    },
    {
      "inputs": [
        {
          "internalType": "uint256",
          "name": "",
          "type": "uint256"
        },
        {
          "internalType": "uint256",
          "name": "",
          "type": "uint256"
        }
      ],
      "name": "quotations",
      "outputs": [
        {
          "internalType": "uint256",
          "name": "projectId",
          "type": "uint256"
        },
        {
          "internalType": "address",
          "name": "proposedBy",
          "type": "address"
        },
        {
          "internalType": "uint256",
          "name": "proposedAmount",
          "type": "uint256"
        },
        {
          "internalType": "string",
          "name": "description",
          "type": "string"
        },
        {
          "internalType": "string",
          "name": "negotiationNotes",
          "type": "string"
        },
        {
          "internalType": "enum RequestManager.QuotationStatus",
          "name": "status",
          "type": "uint8"
        },
        {
          "internalType": "uint256",
          "name": "timestamp",
          "type": "uint256"
        }
      ],
      "stateMutability": "view",
      "type": "function",
      "constant": true
    },
    {
      "inputs": [],
      "name": "requestCount",
      "outputs": [
        {
          "internalType": "uint256",
          "name": "",
          "type": "uint256"
        }
      ],
      "stateMutability": "view",
      "type": "function",
      "constant": true
    },
    {
      "inputs": [
        {
          "internalType": "uint256",
          "name": "",
          "type": "uint256"
        }
      ],
      "name": "requests",
      "outputs": [
        {
          "internalType": "uint256",
          "name": "projectId",
          "type": "uint256"
        },
        {
          "internalType": "address",
          "name": "freelancer",
          "type": "address"
        },
        {
          "internalType": "uint256",
          "name": "freelancerRating",
          "type": "uint256"
        },
        {
          "internalType": "enum RequestManager.RequestStatus",
          "name": "status",
          "type": "uint8"
        },
        {
          "internalType": "contract Escrow",
          "name": "escrowContract",
          "type": "address"
        }
      ],
      "stateMutability": "view",
      "type": "function",
      "constant": true
    },
    {
      "inputs": [],
      "name": "responseCount",
      "outputs": [
        {
          "internalType": "uint256",
          "name": "",
          "type": "uint256"
        }
      ],
      "stateMutability": "view",
      "type": "function",
      "constant": true
    },
    {
      "inputs": [
        {
          "internalType": "uint256",
          "name": "",
          "type": "uint256"
        }
      ],
      "name": "reviewResponses",
      "outputs": [
        {
          "internalType": "uint256",
          "name": "id",
          "type": "uint256"
        },
        {
          "internalType": "uint256",
          "name": "milestoneId",
          "type": "uint256"
        },
        {
          "internalType": "address",
          "name": "freelancer",
          "type": "address"
        },
        {
          "internalType": "string",
          "name": "response",
          "type": "string"
        },
        {
          "internalType": "bool",
          "name": "accepted",
          "type": "bool"
        }
      ],
      "stateMutability": "view",
      "type": "function",
      "constant": true
    },
    {
      "inputs": [],
      "name": "getProjectsContractAddress",
      "outputs": [
        {
          "internalType": "address",
          "name": "",
          "type": "address"
        }
      ],
      "stateMutability": "view",
      "type": "function",
      "constant": true
    },
    {
      "inputs": [],
      "name": "debugProjectCount",
      "outputs": [
        {
          "internalType": "uint256",
          "name": "",
          "type": "uint256"
        }
      ],
      "stateMutability": "view",
      "type": "function",
      "constant": true
    },
    {
      "inputs": [
        {
          "internalType": "uint256",
          "name": "_projectId",
          "type": "uint256"
        },
        {
          "internalType": "uint256",
          "name": "_freelancerRating",
          "type": "uint256"
        }
      ],
      "name": "sendRequest",
      "outputs": [],
      "stateMutability": "nonpayable",
      "type": "function"
    },
    {
      "inputs": [
        {
          "internalType": "uint256",
          "name": "_requestId",
          "type": "uint256"
        }
      ],
      "name": "acceptRequest",
      "outputs": [],
      "stateMutability": "payable",
      "type": "function",
      "payable": true
    },
    {
      "inputs": [
        {
          "internalType": "uint256",
          "name": "_requestId",
          "type": "uint256"
        }
      ],
      "name": "rejectRequest",
      "outputs": [],
      "stateMutability": "nonpayable",
      "type": "function"
    },
    {
      "inputs": [
        {
          "internalType": "uint256",
          "name": "_requestId",
          "type": "uint256"
        }
      ],
      "name": "getRequest",
      "outputs": [
        {
          "components": [
            {
              "internalType": "uint256",
              "name": "projectId",
              "type": "uint256"
            },
            {
              "internalType": "address",
              "name": "freelancer",
              "type": "address"
            },
            {
              "internalType": "uint256",
              "name": "freelancerRating",
              "type": "uint256"
            },
            {
              "internalType": "enum RequestManager.RequestStatus",
              "name": "status",
              "type": "uint8"
            },
            {
              "internalType": "contract Escrow",
              "name": "escrowContract",
              "type": "address"
            }
          ],
          "internalType": "struct RequestManager.Request",
          "name": "",
          "type": "tuple"
        }
      ],
      "stateMutability": "view",
      "type": "function",
      "constant": true
    },
    {
      "inputs": [],
      "name": "viewAllRequests",
      "outputs": [
        {
          "internalType": "uint256[]",
          "name": "requestIds",
          "type": "uint256[]"
        },
        {
          "internalType": "uint256[]",
          "name": "projectIds",
          "type": "uint256[]"
        },
        {
          "internalType": "address[]",
          "name": "freelancers",
          "type": "address[]"
        },
        {
          "internalType": "uint256[]",
          "name": "ratings",
          "type": "uint256[]"
        },
        {
          "internalType": "enum RequestManager.RequestStatus[]",
          "name": "statuses",
          "type": "uint8[]"
        },
        {
          "internalType": "address[]",
          "name": "escrowContracts",
          "type": "address[]"
        }
      ],
      "stateMutability": "view",
      "type": "function",
      "constant": true
    },
    {
      "inputs": [],
      "name": "viewAllReviewResponses",
      "outputs": [
        {
          "internalType": "uint256[]",
          "name": "responseIds",
          "type": "uint256[]"
        },
        {
          "internalType": "uint256[]",
          "name": "milestoneIds",
          "type": "uint256[]"
        },
        {
          "internalType": "address[]",
          "name": "freelancers",
          "type": "address[]"
        },
        {
          "internalType": "string[]",
          "name": "responses",
          "type": "string[]"
        },
        {
          "internalType": "bool[]",
          "name": "acceptedStatuses",
          "type": "bool[]"
        }
      ],
      "stateMutability": "view",
      "type": "function",
      "constant": true
    },
    {
      "inputs": [],
      "name": "viewRequestsByEmployer",
      "outputs": [
        {
          "internalType": "uint256[]",
          "name": "requestIds",
          "type": "uint256[]"
        },
        {
          "internalType": "uint256[]",
          "name": "projectIds",
          "type": "uint256[]"
        },
        {
          "internalType": "address[]",
          "name": "freelancers",
          "type": "address[]"
        },
        {
          "internalType": "uint256[]",
          "name": "ratings",
          "type": "uint256[]"
        },
        {
          "internalType": "enum RequestManager.RequestStatus[]",
          "name": "statuses",
          "type": "uint8[]"
        },
        {
          "internalType": "address[]",
          "name": "escrowContracts",
          "type": "address[]"
        }
      ],
      "stateMutability": "view",
      "type": "function",
      "constant": true
    },
    {
      "inputs": [
        {
          "internalType": "uint256",
          "name": "_milestoneId",
          "type": "uint256"
        },
        {
          "internalType": "string",
          "name": "_cid",
          "type": "string"
        },
        {
          "internalType": "address",
          "name": "_freelancer",
          "type": "address"
        }
      ],
      "name": "sendMilestoneReviewRequest",
      "outputs": [],
      "stateMutability": "nonpayable",
      "type": "function"
    },
    {
      "inputs": [],
      "name": "viewAllMilestoneReviewRequests",
      "outputs": [
        {
          "internalType": "uint256[]",
          "name": "requestIds",
          "type": "uint256[]"
        },
        {
          "internalType": "uint256[]",
          "name": "milestoneIds",
          "type": "uint256[]"
        },
        {
          "internalType": "address[]",
          "name": "freelancers",
          "type": "address[]"
        },
        {
          "internalType": "string[]",
          "name": "cids",
          "type": "string[]"
        },
        {
          "internalType": "bool[]",
          "name": "reviewedStatuses",
          "type": "bool[]"
        }
      ],
      "stateMutability": "view",
      "type": "function",
      "constant": true
    },
    {
      "inputs": [
        {
          "internalType": "uint256",
          "name": "_reviewRequestId",
          "type": "uint256"
        },
        {
          "internalType": "uint256",
          "name": "_projectId",
          "type": "uint256"
        }
      ],
      "name": "getEscrowAccountFromReviewRequest",
      "outputs": [
        {
          "internalType": "contract Escrow",
          "name": "",
          "type": "address"
        }
      ],
      "stateMutability": "view",
      "type": "function",
      "constant": true
    },
    {
      "inputs": [
        {
          "internalType": "uint256",
          "name": "_reviewRequestId",
          "type": "uint256"
        },
        {
          "internalType": "uint256",
          "name": "_projId",
          "type": "uint256"
        }
      ],
      "name": "acceptMilestoneReviewRequest",
      "outputs": [],
      "stateMutability": "payable",
      "type": "function",
      "payable": true
    },
    {
      "inputs": [
        {
          "internalType": "uint256",
          "name": "_reviewRequestId",
          "type": "uint256"
        },
        {
          "internalType": "string",
          "name": "_reason",
          "type": "string"
        }
      ],
      "name": "rejectMilestoneReviewRequest",
      "outputs": [],
      "stateMutability": "nonpayable",
      "type": "function"
    },
    {
      "inputs": [
        {
          "internalType": "uint256",
          "name": "_reviewRequestId",
          "type": "uint256"
        }
      ],
      "name": "acceptRejectionReason",
      "outputs": [],
      "stateMutability": "nonpayable",
      "type": "function"
    },
    {
      "inputs": [
        {
          "internalType": "uint256",
          "name": "_milestoneId",
          "type": "uint256"
        },
        {
          "internalType": "string",
          "name": "_name",
          "type": "string"
        },
        {
          "internalType": "string",
          "name": "_rid",
          "type": "string"
        },
        {
          "internalType": "string",
          "name": "_cid",
          "type": "string"
        }
      ],
      "name": "addFile",
      "outputs": [],
      "stateMutability": "nonpayable",
      "type": "function"
    },
    {
      "inputs": [
        {
          "internalType": "uint256",
          "name": "_milestoneId",
          "type": "uint256"
        }
      ],
      "name": "viewAllFilesForMilestone",
      "outputs": [
        {
          "internalType": "uint256[]",
          "name": "ids",
          "type": "uint256[]"
        },
        {
          "internalType": "uint256[]",
          "name": "milestoneIds",
          "type": "uint256[]"
        },
        {
          "internalType": "string[]",
          "name": "names",
          "type": "string[]"
        },
        {
          "internalType": "string[]",
          "name": "rids",
          "type": "string[]"
        },
        {
          "internalType": "string[]",
          "name": "cids",
          "type": "string[]"
        }
      ],
      "stateMutability": "view",
      "type": "function",
      "constant": true
    },
    {
      "inputs": [
        {
          "internalType": "uint256",
          "name": "_projectId",
          "type": "uint256"
        },
        {
          "internalType": "uint256",
          "name": "_proposedAmount",
          "type": "uint256"
        },
        {
          "internalType": "string",
          "name": "_description",
          "type": "string"
        }
      ],
      "name": "proposeQuotation",
      "outputs": [],
      "stateMutability": "nonpayable",
      "type": "function"
    },
    {
      "inputs": [
        {
          "internalType": "uint256",
          "name": "_projectId",
          "type": "uint256"
        },
        {
          "internalType": "uint256",
          "name": "_newAmount",
          "type": "uint256"
        },
        {
          "internalType": "string",
          "name": "_notes",
          "type": "string"
        }
      ],
      "name": "counterPropose",
      "outputs": [],
      "stateMutability": "nonpayable",
      "type": "function"
    },
    {
      "inputs": [
        {
          "internalType": "uint256",
          "name": "_projectId",
          "type": "uint256"
        },
        {
          "internalType": "uint256",
          "name": "_quotationIndex",
          "type": "uint256"
        }
      ],
      "name": "acceptQuotation",
      "outputs": [],
      "stateMutability": "payable",
      "type": "function",
      "payable": true
    },
    {
      "inputs": [
        {
          "internalType": "uint256",
          "name": "_projectId",
          "type": "uint256"
        },
        {
          "internalType": "uint256",
          "name": "_quotationIndex",
          "type": "uint256"
        }
      ],
      "name": "rejectQuotation",
      "outputs": [],
      "stateMutability": "nonpayable",
      "type": "function"
    },
    {
      "inputs": [
        {
          "internalType": "uint256",
          "name": "_projectId",
          "type": "uint256"
        }
      ],
      "name": "getQuotations",
      "outputs": [
        {
          "components": [
            {
              "internalType": "uint256",
              "name": "projectId",
              "type": "uint256"
            },
            {
              "internalType": "address",
              "name": "proposedBy",
              "type": "address"
            },
            {
              "internalType": "uint256",
              "name": "proposedAmount",
              "type": "uint256"
            },
            {
              "internalType": "string",
              "name": "description",
              "type": "string"
            },
            {
              "internalType": "string",
              "name": "negotiationNotes",
              "type": "string"
            },
            {
              "internalType": "enum RequestManager.QuotationStatus",
              "name": "status",
              "type": "uint8"
            },
            {
              "internalType": "uint256",
              "name": "timestamp",
              "type": "uint256"
            }
          ],
          "internalType": "struct RequestManager.Quotation[]",
          "name": "",
          "type": "tuple[]"
        }
      ],
      "stateMutability": "view",
      "type": "function",
      "constant": true
    },
    {
      "inputs": [
        {
          "internalType": "uint256",
          "name": "_projectId",
          "type": "uint256"
        }
      ],
      "name": "getLatestQuotation",
      "outputs": [
        {
          "components": [
            {
              "internalType": "uint256",
              "name": "projectId",
              "type": "uint256"
            },
            {
              "internalType": "address",
              "name": "proposedBy",
              "type": "address"
            },
            {
              "internalType": "uint256",
              "name": "proposedAmount",
              "type": "uint256"
            },
            {
              "internalType": "string",
              "name": "description",
              "type": "string"
            },
            {
              "internalType": "string",
              "name": "negotiationNotes",
              "type": "string"
            },
            {
              "internalType": "enum RequestManager.QuotationStatus",
              "name": "status",
              "type": "uint8"
            },
            {
              "internalType": "uint256",
              "name": "timestamp",
              "type": "uint256"
            }
          ],
          "internalType": "struct RequestManager.Quotation",
          "name": "",
          "type": "tuple"
        }
      ],
      "stateMutability": "view",
      "type": "function",
      "constant": true
    },
    {
      "inputs": [
        {
          "internalType": "uint256",
          "name": "_projectId",
          "type": "uint256"
        }
      ],
      "name": "isProjectAssigned",
      "outputs": [
        {
          "internalType": "bool",
          "name": "",
          "type": "bool"
        }
      ],
      "stateMutability": "view",
      "type": "function",
      "constant": true
    }
  ],
  "bytecode": "0x608034607057601f61488a38819003918201601f19168301916001600160401b03831184841017607557808492602094604052833981010312607057516001600160a01b03811690819003607057600080546001600160a01b0319169190911790556040516147fe908161008c8239f35b600080fd5b634e487b7160e01b600052604160045260246000fdfe61012080604052600436101561001457600080fd5b600060a05260a0513560e01c9081631301586c1461344a5750806313e432481461321757806318afbf62146131915780631a7963151461295e57806322a7fd07146129285780632d7788db1461284457806331eb2af4146126f357806339028dec1461223d5780633a760554146120ab57806341ff9d1114611cde5780634395351914611cbf5780634ba1f098146119e95780634bd335b8146108485780634c2fb2551461192c5780635badbe4c1461190d5780635fc9fe37146118c15780637d9effef146112e25780637e670ea21461123f57806381d12c58146111cd57806383f5f23014611195578063857b5548146110b357806386fe6d4f14610fbe57806394e1502914610f9f57806397302bc814610e9b5780639be8d8f914610dfc578063a7080a1814610cf3578063a817229a14610bcc578063b3db5c941461098a578063b4d4fcb714610873578063b7146d0c14610848578063bb6866e1146107e7578063c5597bbb146107c8578063c58343ef146106b9578063c628510014610211578063ed37130c146101e35763ed3bb680146101b257600080fd5b346101dd5760206101cb6101c536613630565b906142e2565b6040516001600160a01b039091168152f35b60a05180fd5b346101dd5760203660031901126101dd5760043560a0515260066020526020604060a0512054604051908152f35b346101dd5760803660031901126101dd576004356024356001600160401b0381116101dd5761024490369060040161386a565b6044356001600160401b0381116101dd5761026390369060040161386a565b916064356001600160401b0381116101dd5761028390369060040161386a565b916004549160405192610295846137a9565b8352602083019080825260408401928352606084019586526080840194855260a051526003602052604060a051208054600160401b8110156104de576102e091600182018155613aac565b9390936106a05751835551600183015551805160028301916001600160401b0382116104de578190610312845461398a565b601f811161063b575b506020906001601f8411146105d35760a051926105c8575b50508160011b916000199060031b1c19161790555b9151805190929060038201906001600160401b0381116104de5761036c825461398a565b601f811161056d575b5060206001601f8311146105015781906004959660a051926104f6575b50508160011b916000199060031b1c19161790555b01905190815160018060401b0381116104de576103c4825461398a565b601f8111610483575b506020926001601f83111461041d579281929360a05192610412575b50508160011b916000199060031b1c19161790555b610409600454613d59565b60045560a05180f35b0151905083806103e9565b601f198216938360a051528060a051209160a0515b86811061046b5750836001959610610452575b505050811b0190556103fe565b015160001960f88460031b161c19169055838080610445565b91926020600181928685015181550194019201610432565b818111156103cd578260a05152602060a05120601f830160051c90602084106104d4575b81601f9101920160051c039060a0515b8281106104c55750506103cd565b60a051828201556001016104b7565b60a05191506104a7565b634e487b7160e01b60a051526041600452602460a051fd5b015190508680610392565b601f198216958360a051528160a051209660a0515b818110610555575091600496979184600195941061053c575b505050811b0190556103a7565b015160001960f88460031b161c1916905586808061052f565b83830151895560019098019760209384019301610516565b81811115610375578260a05152602060a05120601f830160051c90602084106105be575b81601f9101920160051c039060a0515b8281106105af575050610375565b60a051828201556001016105a1565b60a0519150610591565b015190508680610333565b60a08051869052518281209350601f198516905b818110610623575090846001959493921061060a575b505050811b019055610348565b015160001960f88460031b161c191690558680806105fd565b929360206001819287860151815501950193016105e7565b8281111561031b579091508360a05152602060a05120601f840160051c9060208510610696575b90601f818695949301920160051c039060a0515b82811061068457505061031b565b60a05181830155859450600101610676565b60a0519150610662565b634e487b7160e01b60a0515260a051600452602460a051fd5b346101dd5760203660031901126101dd576004356040516106d9816137a9565b60a051815260a051602082015260a051604082015260a0516060820152608060a0519101528060a05152600560205261072460018060a01b036001604060a0512001541615156140c2565b60a05152600560205260a0604081512060405190610741826137a9565b805482526107b7600180851b0360018301541660208401908152600360028401549360408601948552015492606085019161077f60ff861684613ddb565b6080860194600180891b039060081c16855260405195518652600180881b0390511660208601525160408501525160608401906136b7565b516000196001841b01166080820152f35b346101dd5760a0513660031901126101dd576020600254604051908152f35b346101dd5760203660031901126101dd5760043560a05152600a602052604060a05120805461084460018301549260018060a01b036002820154169060ff6004610833600384016139c4565b920154169160405195869586613a72565b0390f35b346101dd5760a0513660031901126101dd5760a051546040516001600160a01b039091168152602090f35b346101dd5760a0513660031901126101dd5760025461089181613d95565b61089a82613d95565b916108a481613d95565b6108ad826141d2565b906108b783613d95565b9260015b818111156108d757505090610844929160405195869586613b36565b8060a051526001602052604060a051209081546000198201908282116109725760ff600461096d956109639361090d868e613dc7565b52600181015461091d868f613dc7565b5260028101546001600160a01b0316610936868b613dc7565b52610943600382016139c4565b61094d868c613dc7565b52610958858b613dc7565b500154169188613dc7565b9015159052613d59565b6108bb565b634e487b7160e01b60a051526011600452602460a051fd5b346101dd5761099836613630565b9080151580610b52575b6109ab90613bbd565b60a0805154604051631e1e7e5960e31b815260048101849052915190829060249082906001600160a01b03165afa908115610b455760a05191610b1a575b506002811015610b025760016109ff9114613d17565b610a0a600754613d59565b90816007556003604051610a1d816137a9565b828152336020808301918252604080840197885260a0805160608601908152815160808701908152825199909952600590935251209251835590516001830180546001600160a01b0319166001600160a01b03929092169190911790559451600282015593519301926003811015610b02577fe697eb68c0228bd7d4e553246a2a86e8402d0895e45092ef8ae87b4cfd29f01693606093610ad49260ff8019845416911617825560018060a01b0390511690614247565b600754908060a05152600660205281604060a05120556040519182526020820152336040820152a160a05180f35b634e487b7160e01b60a051526021600452602460a051fd5b610b3891503d8060a051833e610b3081836137f5565b810190613c9a565b50509350505050836109e9565b6040513d60a051823e3d90fd5b5060a05154604051631b7dd69360e11b815290602090829060049082906001600160a01b03165afa8015610b455760a05190610b93575b82111590506109a2565b506020813d602011610bc4575b81610bad602093836137f5565b81010312610bbf576109ab9051610b89565b600080fd5b3d9150610ba0565b346101dd5760203660031901126101dd576004358060a05152600a602052604060a0512060018060a01b036002820154163303610c92576004019081549060ff8216610c4d577f25fa961293610a63a633d14b93d5aa91df30ab4131e3e197fbb148988f45f2fa92600160209360ff1916179055604051908152a160a05180f35b60405162461bcd60e51b815260206004820152601f60248201527f526576696577207265717565737420616c7265616479207265766965776564006044820152606490fd5b60405162461bcd60e51b815260206004820152603360248201527f4f6e6c792074686520667265656c616e6365722063616e2061636365707420746044820152723432903932b532b1ba34b7b7103932b0b9b7b760691b6064820152608490fd5b346101dd5760a0513660031901126101dd57600754610d1181613d95565b610d1a82613d95565b90610d2483613d95565b610d2d84613d95565b610d3685613d95565b90610d4086613d95565b9260015b87811115610d5e57506040519650869561084495876136da565b8060a051526005602052604060a0512090600019810181811161097257610df16003610df79484610d8f858d613dc7565b528054610d9c858e613dc7565b5260018101546001600160a01b0316610db58589613dc7565b526002810154610dc5858a613dc7565b520154610dde60ff8216610dd9858b613dc7565b613ddb565b60081c6001600160a01b03169188613dc7565b52613d59565b610d44565b346101dd5760a0513660031901126101dd57600b54610e1a81613d95565b610e2382613d95565b91610e2d81613d95565b610e36826141d2565b90610e4083613d95565b9260015b81811115610e6057505090610844929160405195869586613b36565b8060a05152600a602052604060a051209081546000198201908282116109725760ff6004610e96956109639361090d868e613dc7565b610e44565b346101dd5760203660031901126101dd57600435604051610ebb816137da565b60a051815260a051602082015260a05160408201526060808201526060608082015260a05160a082015260c060a0519101528060a051526008602052604060a051205415610f5a578060a051526008602052604060a051209060a051526008602052604060a0512054600019810190811161097257610f40610f469161084493613958565b5061426c565b604051918291602083526020830190613ac8565b60405162461bcd60e51b815260206004820152601e60248201527f4e6f2071756f746174696f6e7320666f7220746869732070726f6a65637400006044820152606490fd5b346101dd5760a0513660031901126101dd576020600b54604051908152f35b346101dd5760603660031901126101dd576004356024356001600160401b0381116101dd57610ff190369060040161377c565b9091906044356001600160a01b038116908190036101dd577fbfc58ffde775327d37ac02c637219967f9f1d0d5dae07e75af5d1ad5be354360936110886110aa9261103d600b54613d59565b80600b556040519161104e836137a9565b8183528760208401526040830152611067368786613833565b606083015260a051608083015260a05152600a602052604060a05120613f48565b600b54926040519485948552602085015260606040850152606084019161410e565b0390a160a05180f35b346101dd5760203660031901126101dd5760043560a051526008602052604060a051208054906110e282613d7e565b916110f060405193846137f5565b80835260208301809260a05152602060a0512060a051915b83831061117757848660405191829160208301906020845251809152604083019060408160051b850101929160a051905b82821061114857505050500390f35b919360019193955060206111678192603f198a82030186528851613ac8565b9601920192018594939192611139565b600760206001926111878561426c565b815201920192019190611108565b346101dd5760203660031901126101dd5760043560a051526009602052602060018060a01b03604060a0512054161515604051908152f35b346101dd5760203660031901126101dd5760043560a05152600560205260a06040815120805490600180841b036001820154169060036002820154910154916040519384526020840152604083015261122c6060830160ff83166136b7565b60081c6000196001841b01166080820152f35b346101dd5761124d36613630565b9060a051526003602052604060a051209081548110156101dd5761127091613aac565b5080546108446001830154926112d461128b600283016139c4565b916112c66112a760046112a0600385016139c4565b93016139c4565b936040519788978852602088015260a0604088015260a08701906138da565b9085820360608701526138da565b9083820360808501526138da565b346101dd576112f036613885565b918015158061184c575b61130390613bbd565b61130e82151561412f565b825115611809578060a051526006602052604060a051205461133181151561417b565b60018060a01b0360a05154169060405191631e1e7e5960e31b83528360048401528260248160a051935afa918215610b455760a0519060a051936117e2575b506002811015610b02576001036117925760a05152600560205260018060a01b036001604060a05120015416331490811561177f575b5015611720576040516113b8816137da565b81815260208101933385526040820190848252606083019081526020604051916113e282846137f5565b60a05183526080850192835260a085019360a0515060a051506001855260c0860198428a528760a0515260088452604060a051208054600160401b8110156104de5761143391600182018155613958565b9790976106a057518755516001870180546001600160a01b0319166001600160a01b039290921691909117905551600286015551805160038601916001600160401b0382116104de578190611488845461398a565b601f81116116bd575b5084906001601f8411146116555760a0519261164a575b50508160011b916000199060031b1c19161790555b90518051600485019290916001600160401b0383116104de576114e0845461398a565b601f81116115f1575b50816001601f851114611571575091806000805160206147898339815191529994926006969460a05192611566575b50508160011b916000199060031b1c19161790555b60058401905161153c81613a68565b61154581613a68565b60ff80198354169116179055519101556110aa604051928392339084613f27565b015190508a80611518565b9190601f1984168560a051528360a051209360a051905b8282106115d9575050926001928592600698966000805160206147898339815191529d9896106115c0575b505050811b01905561152d565b015160001960f88460031b161c191690558a80806115b3565b80600186978294978701518155019601940190611588565b838111156114e9578460a051528260a05120601f850160051c90848610611640575b81601f9101920160051c039060a0515b8281106116315750506114e9565b60a05182820155600101611623565b60a0519150611613565b015190508a806114a8565b60a08051869052518681209350601f198516905b878282106116a757505090846001959493921061168e575b505050811b0190556114bd565b015160001960f88460031b161c191690558a8080611681565b6001859682939686015181550195019301611669565b82811115611491579091508360a051528460a05120601f840160051c90868510611716575b90601f818695949301920160051c039060a0515b828110611704575050611491565b60a051818301558594506001016116f6565b60a05191506116e2565b60405162461bcd60e51b815260206004820152603160248201527f4f6e6c7920667265656c616e636572206f7220656d706c6f7965722063616e20604482015270383937b837b9b29038bab7ba30ba34b7b760791b6064820152608490fd5b6001600160a01b031633149050846113a6565b60405162461bcd60e51b815260206004820152602260248201527f50726f6a656374206973206e6f74206f70656e20666f722071756f746174696f6044820152616e7360f01b6064820152608490fd5b90506117fb9192503d8060a051833e610b3081836137f5565b509594509250505086611370565b60405162461bcd60e51b815260206004820152601b60248201527a4465736372697074696f6e2063616e6e6f7420626520656d70747960281b6044820152606490fd5b5060a05154604051631b7dd69360e11b815290602090829060049082906001600160a01b03165afa8015610b455760a0519061188d575b82111590506112fa565b506020813d6020116118b9575b816118a7602093836137f5565b81010312610bbf576113039051611883565b3d915061189a565b346101dd5760203660031901126101dd5760043560a051526001602052604060a05120805461084460018301549260018060a01b036002820154169060ff6004610833600384016139c4565b346101dd5760a0513660031901126101dd576020600754604051908152f35b346101dd5761193a36613630565b9060a051526008602052604060a051209081548110156101dd5761195d91613958565b50805460018060a01b036001830154169160028101546119d1611982600384016139c4565b6119c3611991600486016139c4565b91600660ff6005880154169601549460405198899889526020890152604088015260e0606088015260e08701906138da565b9085820360808701526138da565b916119db81613a68565b60a084015260c08301520390f35b60203660031901126101dd576004358060a051526005602052604060a05120906001820160018060a01b0381541692611a238415156140c2565b600381019360ff8554166003811015610b0257611c815760018060a01b0360a05154169082549160405192631e1e7e5960e31b845260048401528260248160a051935afa8015610b455760a051928391829190611c58575b506001600160a01b0382163303611c02576002811015610b0257600103611bc6576040519161035d8084016001600160401b038111858210176104de578493611acc93879361442c8739309261421c565b0391f08015610b4557611adf9085614247565b835460ff191660011784558154815460a08051919091526009602052516040812080546001600160a01b0319166001600160a01b039384161790555491549116803b156101dd57604051916349ee097360e11b835260048301528160248160a0519360a051905af18015610b4557611ba9575b81548454604080518681526001600160a01b03938416602082015260089290921c909216918101919091527fac8064fea85b95641f19e230ba9da498102d474473fe4b103466cb224daf5e0190606090a160a05180f35b60a051919291611bb8916137f5565b60a0516101dd579083611b52565b60405162461bcd60e51b8152602060048201526014602482015273283937b532b1ba1036bab9ba1031329037b832b760611b6044820152606490fd5b60405162461bcd60e51b815260206004820152602860248201527f4f6e6c792074686520656d706c6f7965722063616e2061636365707420746865604482015267081c995c5d595cdd60c21b6064820152608490fd5b915050611c729192503d8060a051833e610b3081836137f5565b50935094935090509288611a7b565b60405162461bcd60e51b815260206004820152601660248201527552657175657374206973206e6f742070656e64696e6760501b6044820152606490fd5b346101dd5760a0513660031901126101dd576020600454604051908152f35b611ce736613630565b81151580612036575b611cf990613bbd565b8160a051526008602052611d14604060a05120548210613bfe565b8160a051526006602052604060a0512054611d3081151561417b565b60018060a01b0360a05154169060405191631e1e7e5960e31b83528460048401528260248160a051935afa918215610b455760a0519060a0519361200f575b506002811015610b02576001611d859114613d17565b6001600160a01b0382163303611fbf5760a051526005602052611dbd604060a05120928460a051526008602052604060a05120613958565b5060058101805490939160ff8216611dd481613a68565b60018114908115611fab575b5015611f675760020193845491823403611f135760ff191660031790556001820180546040519194906001600160a01b031661035d8084016001600160401b038111858210176104de578493611e3e93879361442c8739309261421c565b0391f0908115610b45576003611e5691019182614247565b805460ff191660011790555460a080518490526009602052516040812080546001600160a01b0319166001600160a01b039384161790555416803b156101dd57604051906349ee097360e11b82528360048301528160248160a0519360a051905af18015610b4557611efa575b7f30981c9cd8c9ae5e869821a79087b12d5bd6fc4aeaabf85fbf091cfff2f36797604084845482519182526020820152a160a05180f35b60a051611f06916137f5565b60a0516101dd5782611ec3565b60405162461bcd60e51b815260206004820152602660248201527f53656e7420616d6f756e74206d757374206d617463682070726f706f73656420604482015265185b5bdd5b9d60d21b6064820152608490fd5b60405162461bcd60e51b815260206004820152601c60248201527b145d5bdd185d1a5bdb8818d85b9b9bdd081899481858d8d95c1d195960221b6044820152606490fd5b60029150611fb881613a68565b1487611de0565b60405162461bcd60e51b815260206004820152602260248201527f4f6e6c7920656d706c6f7965722063616e206163636570742071756f7461746960448201526137b760f11b6064820152608490fd5b90506120289192503d8060a051833e610b3081836137f5565b509594509250505085611d6f565b5060a05154604051631b7dd69360e11b815290602090829060049082906001600160a01b03165afa8015610b455760a05190612077575b8311159050611cf0565b506020813d6020116120a3575b81612091602093836137f5565b81010312610bbf57611cf9905161206d565b3d9150612084565b346101dd5760203660031901126101dd576004356004546120cb81613d95565b906120d581613d95565b6120de826141d2565b906120e8836141d2565b926120f2816141d2565b60a0519096815b83811061216057612128886108448b6121528b6121448c6121368d604051998a9960a08b5260a08b0190613646565b9089820360208b0152613646565b9087820360408901526138ff565b9085820360608701526138ff565b9083820360808501526138ff565b8160a05152600360205281600161217c83604060a05120613aac565b5001541461218d575b6001016120f9565b916122356001918360a05152600360205261221a60046121b287604060a05120613aac565b5080546121bf858f613dc7565b52858101546121ce858c613dc7565b526121db600282016139c4565b6121e5858d613dc7565b526121f0848c613dc7565b508b61220885612202600385016139c4565b92613dc7565b52612213848d613dc7565b50016139c4565b612224828d613dc7565b5261222f818c613dc7565b50613d59565b929050612185565b346101dd5761224b36613885565b918015158061267e575b61225e90613bbd565b61226982151561412f565b8060a051526008602052604060a05120541561262d578060a051526006602052604060a051205461229b81151561417b565b60018060a01b0360a05154169060405191631e1e7e5960e31b83528360048401528260248160a051935afa918215610b455760a0519060a05193612606575b506002811015610b02576001036125b55760a051526005602052604060a05120908260a051526008602052604060a05120805460001981019081116109725761232291613958565b5060018082015493015490926001600160a01b039182169116810361253f57506001600160a01b031633036124d9576004905b60058101805460ff19166002908117909155810184905584519101906001600160401b0381116104de57612389825461398a565b601f811161247e575b5060206001601f8311146124035791816000805160206147a983398151915296926110aa9460a051916123f8575b508160011b916000199060031b1c19161790555b604051938493845233602085015260408401526080606084015260808301906138da565b9050830151886123c0565b601f198216908360a051528060a051209160a0515b8181106124665750926110aa9492600192826000805160206147a98339815191529a961061244d575b5050811b0190556123d4565b85015160001960f88460031b161c191690558880612441565b9192602060018192868c015181550194019201612418565b81811115612392578260a05152602060a05120601f830160051c90602084106124cf575b81601f9101920160051c039060a0515b8281106124c0575050612392565b60a051828201556001016124b2565b60a05191506124a2565b60405162461bcd60e51b815260206004820152603860248201527f4f6e6c7920656d706c6f7965722063616e20636f756e7465722d6f66666572206044820152771bdb88199c99595b185b98d95c89dcc81c1c9bdc1bdcd85b60421b6064820152608490fd5b9050330361254f57600490612355565b60405162461bcd60e51b815260206004820152603860248201527f4f6e6c7920667265656c616e6365722063616e20636f756e7465722d6f6666656044820152771c881bdb88195b5c1b1bde595c89dcc81c1c9bdc1bdcd85b60421b6064820152608490fd5b60405162461bcd60e51b815260206004820152602360248201527f50726f6a656374206973206e6f74206f70656e20666f72206e65676f7469617460448201526234b7b760e91b6064820152608490fd5b905061261f9192503d8060a051833e610b3081836137f5565b5095945092505050866122da565b60405162461bcd60e51b8152602060048201526024808201527f4e6f2071756f746174696f6e7320657869737420666f7220746869732070726f6044820152631a9958dd60e21b6064820152608490fd5b5060a05154604051631b7dd69360e11b815290602090829060049082906001600160a01b03165afa8015610b455760a051906126bf575b8211159050612255565b506020813d6020116126eb575b816126d9602093836137f5565b81010312610bbf5761225e90516126b5565b3d91506126cc565b346101dd5760403660031901126101dd576004356024356001600160401b0381116101dd5761272690369060040161377c565b908260a05152600a602052604060a0512091600483019283549060ff8216612800577fbaaa1d8ac25adbe9d68fdf1013f60ea647f91e457fb4589976b74dbf9c14968f9460016127e09360ff1916179055600181015490600260018060a01b0391015416612795600254613d59565b9081600255604051926127a7846137a9565b828452602084015260408301526127bf368587613833565b606083015260a051608083015260a051526001602052604060a05120613f48565b6127f760405192839260208452602084019161410e565b0390a260a05180f35b606460405162461bcd60e51b815260206004820152602060248201527f526576696577207265717565737420616c72656164792070726f6365737365646044820152fd5b346101dd5760203660031901126101dd576004358060a051526005602052604060a05120906003600183019261288460018060a01b0385541615156140c2565b019060ff8254166003811015610b02576128e757815460ff19166002179091559054604080519283526001600160a01b039190911660208301527f490ad67e4c8b3b9c1d11dfcd7f02e155190b8f6feff3a9d9e9df3721f0f74e5791a160a05180f35b60405162461bcd60e51b815260206004820152601960248201527814995c5d595cdd08185b1c9958591e481c1c9bd8d95cdcd959603a1b6044820152606490fd5b346101dd5760203660031901126101dd5760043560a051526009602052602060018060a01b03604060a051205416604051908152f35b61296736613630565b8160a05152600a602052604060a0512060048101549060ff821661314c57600181015460018060a01b0360a0515416610100526040519263010b152760e61b845284600485015260a05184602481610100515afa8015610b455760a05160e0819052948591829182918291829182918291829190612f0e575b508c60a05160a0515060a0515060a0515060a0515060a0519160a0515060a0515060a0515060a0515060a0515060405190631e1e7e5960e31b8252600482015260a05181602481610100515afa908115610b455760a05191612eeb575b506001600160a01b03163303612e875760a05160c0525b825160c0511015612e77578b612a6c60c05185613dc7565b5114612a8057600160c0510160c052612a54565b505050612b0295612aa4612aae92612aa4612aa497612aa460019c60c05190613dc7565b5060c05190613dc7565b5199612abe60c05160e051613dc7565b51612ac881613a68565b5060c0516001600160a01b0391612adf9190613dc7565b505060c0516001600160a01b0391612af79190613dc7565b505060c05190613dc7565b505b15612e375760ff1916600117600483015560a051546001600160a01b0316803b156101dd576040519163f326206b60e01b835285600484015260248301528160448160a0519360a051905af18015610b4557612e25575b5060028101805460a05154604051633a766ddf60e01b81526001600160a01b039283166004820181905293959290911691602082602481865afa918215610b455760a05192612df1575b508060050290600582040361097257606490048101809111610972576101f48111612de8575b813b156101dd576040519263018f728360e21b8452600484015260248301528160448160a0519360a051905af18015610b4557612dcf575b5060019260a0515b60e05151811015612dc6576002612c248260e051613dc7565b51612c2e81613a68565b612c3781613a68565b03612c4457600101612c0b565b509091925060a0515b612ccc575b60018201548354600254612cc692916001600160a01b031690612c7490613d59565b908160025560405192612c86846137a9565b82845260208401526040830152604051612ca16020826137f5565b60a051815260608301526001608083015260a051526001602052604060a05120613f48565b60a05180f35b6001600160a01b0390612cdf90856142e2565b1692604051632aa3085f60e21b8152602081600481885afa908115610b455760a05191612d94575b50843b156101dd576040516369d8957560e01b815260a05181600481838a5af18015610b4557612d75575b50612cc69460019392612d6c7f6244ed823ca6be0f11bc890c3fafcf3c29cb23420c14243642e930b5e07e6d0a9360405193849384613f27565b0390a190612c52565b60a051929392612d84916137f5565b60a0516101dd5785929192612d32565b90506020813d602011612dbe575b81612daf602093836137f5565b81010312610bbf575185612d07565b3d9150612da2565b50909192612c4d565b60a051612ddb916137f5565b60a0516101dd5784612c03565b506101f4612bcb565b9091506020813d602011612e1d575b81612e0d602093836137f5565b81010312610bbf57519088612ba5565b3d9150612e00565b60a051612e31916137f5565b84612b5b565b60405162461bcd60e51b8152602060048201526018602482015277135a5b195cdd1bdb9948191bd95cc81b9bdd08195e1a5cdd60421b6044820152606490fd5b98509b5050505050505050612b04565b60405162461bcd60e51b815260206004820152603660248201527f4f6e6c792074686520656d706c6f7965722063616e20616363657074206d696c6044820152756573746f6e652072657669657720726571756573747360501b6064820152608490fd5b612f0191503d8060a051833e610b3081836137f5565b5094505050505038612a3d565b9b5050505050505050503d938460a051823e612f2a85826137f5565b6101608186810103126101dd5780516001600160401b0381116101dd57612f5690868301908301613de7565b60208201519091906001600160401b0381116101dd57612f7b90878301908301613de7565b5060408101516001600160401b0381116101dd57612f9e90878301908301613e44565b60805260608101516001600160401b0381116101dd57612fc390878301908301613e44565b60808201519092906001600160401b0381116101dd57612fe890888401908401613de7565b60a08301516001600160401b0381116101dd5761300a90898501908501613de7565b60c0840151939092906001600160401b0385116101dd57898101601f8683010112156101dd57848101519461303e86613d7e565b9561304c60405197886137f5565b80875260208701918c840160208360051b8387010101116101dd5791602083850101925b60208360051b8287010101841061312d575050505060e08101516001600160401b0381116101dd576130a7908b8301908301613ec2565b6101008201519094906001600160401b0381116101dd576130cd908c8401908401613ec2565b610120830151909b906001600160401b0381116101dd576130f390828501908501613de7565b6101408401519093906001600160401b0381116101dd576131179282019101613e44565b92946080519794919660e0529a9192948e6129e0565b83519160058310156101dd576020818194829352019401939150613070565b60405162461bcd60e51b815260206004820152601f60248201527f526576696577207265717565737420616c7265616479206163636570746564006044820152606490fd5b346101dd5760a0513660031901126101dd5760a05154604051631b7dd69360e11b815290602090829060049082906001600160a01b03165afa8015610b455760a051906131e4575b602090604051908152f35b506020813d60201161320f575b816131fe602093836137f5565b810103126101dd57602090516131d9565b3d91506131f1565b346101dd5760a0513660031901126101dd5760a05160075481546001600160a01b0316919060015b818111156133b5575061325182613d95565b9061325b83613d95565b9261326581613d95565b61326e82613d95565b9061328161327b84613d95565b93613d95565b9360a05160015b828111156132a65750505061084494959650604051968796876136da565b8060a051526005602052604060a051205460405190631e1e7e5960e31b825260048201528a8160248160a051935afa908115610b455760a05191613392575b506001600160a01b03163314613304575b6132ff90613d59565b613288565b9061338a6132ff918360a05152600560205260038a8561332a84604060a0512093613dc7565b528054613337848f613dc7565b5260018101546001600160a01b0316613350848a613dc7565b526002810154613360848b613dc7565b52015461337460ff8216610dd9848c613dc7565b60081c6001600160a01b0316610df1828b613dc7565b9190506132f6565b6133a891503d8060a051833e610b3081836137f5565b509450505050508b6132e5565b8060a051526005602052604060a051205460405190631e1e7e5960e31b8252600482015260a05181602481885afa908115610b455760a05191613427575b506001600160a01b03163314613412575b61340d90613d59565b61323f565b9161341f61340d91613d59565b929050613404565b61343d91503d8060a051833e610b3081836137f5565b50945050505050856133f3565b346101dd5761345836613630565b9091821515806135bc575b61346d9150613bbd565b8160a051526008602052613488604060a05120548210613bfe565b60a0805154604051631e1e7e5960e31b815260048101859052915190829060249082906001600160a01b03165afa908115610b455760a0519060a05192613597575b506002811015610b025760016134e09114613d17565b6001600160a01b031633036135475781600561352d6020937f6ba13ccf38e1630058b978f3457e3c065946df004bbd348544427653ab81f68b9560a0515260088552604060a05120613958565b5001805460ff19166004179055604051908152a160a05180f35b60405162461bcd60e51b815260206004820152602260248201527f4f6e6c7920656d706c6f7965722063616e2072656a6563742071756f7461746960448201526137b760f11b6064820152608490fd5b90506135af91503d8060a051833e610b3081836137f5565b50945092505050846134ca565b5060a05154631b7dd69360e11b8252602090829060049082906001600160a01b03165afa8015610b455760a051906135fc575b61346d9150831115613463565b506020813d602011613628575b81613616602093836137f5565b810103126101dd5761346d90516135ef565b3d9150613609565b6040906003190112610bbf576004359060243590565b906020808351928381520192019060005b8181106136645750505090565b8251845260209384019390920191600101613657565b906020808351928381520192019060005b8181106136985750505090565b82516001600160a01b031684526020938401939092019160010161368b565b9060038210156136c45752565b634e487b7160e01b600052602160045260246000fd5b9695939192613709613725946136fb6137179460c08c5260c08c0190613646565b908a820360208c0152613646565b9088820360408a015261367a565b908682036060880152613646565b9380850360808201526020808451968781520193016000955b80871061375d57505061375a93945060a081840391015261367a565b90565b90936020808261377060019489516136b7565b0195019601959061373e565b9181601f84011215610bbf578235916001600160401b038311610bbf5760208381860195010111610bbf57565b60a081019081106001600160401b038211176137c457604052565b634e487b7160e01b600052604160045260246000fd5b60e081019081106001600160401b038211176137c457604052565b601f909101601f19168101906001600160401b038211908210176137c457604052565b6001600160401b0381116137c457601f01601f191660200190565b92919261383f82613818565b9161384d60405193846137f5565b829481845281830111610bbf578281602093846000960137010152565b9080601f83011215610bbf5781602061375a93359101613833565b6060600319820112610bbf576004359160243591604435906001600160401b038211610bbf5761375a9160040161386a565b60005b8381106138ca5750506000910152565b81810151838201526020016138ba565b906020916138f3815180928185528580860191016138b7565b601f01601f1916010190565b9080602083519182815201916020808360051b8301019401926000915b83831061392b57505050505090565b9091929394602080613949600193601f1986820301875289516138da565b9701930193019193929061391c565b8054821015613974576000526007602060002091020190600090565b634e487b7160e01b600052603260045260246000fd5b90600182811c921680156139ba575b60208310146139a457565b634e487b7160e01b600052602260045260246000fd5b91607f1691613999565b90604051918260008254926139d88461398a565b8084529360018116908115613a4657506001146139ff575b506139fd925003836137f5565b565b90506000929192526020600020906000915b818310613a2a5750509060206139fd92820101386139f0565b6020919350806001915483858901015201910190918492613a11565b9050602092506139fd94915060ff191682840152151560051b820101386139f0565b600511156136c457565b939092613aa4926080949796978652602086015260018060a01b0316604085015260a0606085015260a08401906138da565b931515910152565b8054821015613974576000526005602060002091020190600090565b908151815260018060a01b0360208301511660208201526040820151604082015260c080613b1a613b08606086015160e0606087015260e08601906138da565b608086015185820360808701526138da565b9360a0810151613b2981613a68565b60a0850152015191015290565b939192613b63613b7f94613b55613b719460a0895260a0890190613646565b908782036020890152613646565b90858203604087015261367a565b9083820360608501526138ff565b9060808183039101526020808351928381520192019060005b818110613ba55750505090565b82511515845260209384019390920191600101613b98565b15613bc457565b60405162461bcd60e51b8152602060048201526012602482015271125b9d985b1a59081c1c9bda9958dd08125160721b6044820152606490fd5b15613c0557565b60405162461bcd60e51b8152602060048201526017602482015276092dcecc2d8d2c840e2eadee8c2e8d2dedc40d2dcc8caf604b1b6044820152606490fd5b81601f82011215610bbf578051613c5a81613818565b92613c6860405194856137f5565b81845260208284010111610bbf5761375a91602080850191016138b7565b51906001600160a01b0382168203610bbf57565b9160e083830312610bbf57825160208401519093906001600160401b038111610bbf5783613cc9918301613c44565b604082015190936001600160401b038211610bbf57613ce9918301613c44565b9160608201519160808101516002811015610bbf579161375a60c0613d1060a08501613c86565b9301613c86565b15613d1e57565b60405162461bcd60e51b8152602060048201526013602482015272283937b532b1ba1034b9903737ba1037b832b760691b6044820152606490fd5b6000198114613d685760010190565b634e487b7160e01b600052601160045260246000fd5b6001600160401b0381116137c45760051b60200190565b90613d9f82613d7e565b613dac60405191826137f5565b8281528092613dbd601f1991613d7e565b0190602036910137565b80518210156139745760209160051b010190565b60038210156136c45752565b9080601f83011215610bbf578151613dfe81613d7e565b92613e0c60405194856137f5565b81845260208085019260051b820101928311610bbf57602001905b828210613e345750505090565b8151815260209182019101613e27565b9080601f83011215610bbf578151613e5b81613d7e565b92613e6960405194856137f5565b81845260208085019260051b82010191838311610bbf5760208201905b838210613e9557505050505090565b81516001600160401b038111610bbf57602091613eb787848094880101613c44565b815201910190613e86565b9080601f83011215610bbf578151613ed981613d7e565b92613ee760405194856137f5565b81845260208085019260051b820101928311610bbf57602001905b828210613f0f5750505090565b60208091613f1c84613c86565b815201910190613f02565b9081526001600160a01b039091166020820152604081019190915260600190565b815181556020820151600182015560408201516002820180546001600160a01b0319166001600160a01b03929092169190911790556060820151805160038301916001600160401b0382116137c457613fa1835461398a565b601f811161406c575b50602090601f8311600114613fff5791806004949260809694600092613ff4575b50508160011b916000199060031b1c19161790555b01910151151560ff80198354169116179055565b015190503880613fcb565b90601f1983169184600052816000209260005b818110614054575092600192859260809896600498961061403b575b505050811b019055613fe0565b015160001960f88460031b161c1916905538808061402e565b92936020600181928786015181550195019301614012565b82811115613faa57836000526020600020601f840160051c90602085106140b9575b81601f9101920160051c039060005b8281106140ab575050613faa565b60008282015560010161409d565b6000915061408e565b156140c957565b60405162461bcd60e51b815260206004820152601d60248201527f4e6f20726571756573742065786973747320666f7220746869732049440000006044820152606490fd5b908060209392818452848401376000828201840152601f01601f1916010190565b1561413657565b60405162461bcd60e51b815260206004820152601d60248201527f416d6f756e74206d7573742062652067726561746572207468616e20300000006044820152606490fd5b1561418257565b60405162461bcd60e51b815260206004820152602260248201527f4e6f20726571756573742065786973747320666f7220746869732070726f6a6560448201526118dd60f21b6064820152608490fd5b906141dc82613d7e565b6141e960405191826137f5565b82815280926141fa601f1991613d7e565b019060005b82811061420b57505050565b8060606020809385010152016141ff565b6001600160a01b03918216815291811660208301529091166040820152606081019190915260800190565b8054610100600160a81b03191660089290921b610100600160a81b0316919091179055565b90604051614279816137da565b8254815260018301546001600160a01b031660208201526002830154604082015291829060c0906006906142af600382016139c4565b60608501526142c0600482016139c4565b608085015260ff6005820154166142d681613a68565b60a08501520154910152565b600052600a6020526040600020908154156143e6576007549160015b838111156143655760405162461bcd60e51b815260206004820152603160248201527f4e6f206d61746368696e67207265717565737420666f756e6420666f722074686044820152701a5cc81c995d9a595dc81c995c5d595cdd607a1b6064820152608490fd5b806000526005602052604060002083815414806143c8575b806143ae575b614396575061439190613d59565b6142fe565b6003015460081c6001600160a01b0316949350505050565b5060ff60038201541660038110156136c457600114614383565b50600181015460028401546001600160a01b0390811691161461437d565b60405162461bcd60e51b815260206004820152601d60248201527f526576696577207265717565737420646f6573206e6f742065786973740000006044820152606490fdfe6080601f61035d38819003918201601f19168301916001600160401b0383118484101760b05780849260809460405283398101031260ab57603e8160c6565b9060496020820160c6565b606060556040840160c6565b920151600080546001600160a01b03199081166001600160a01b03968716179091556001805482169386169390931790925560028054909216939092169290921790915560035560405161028390816100da8239f35b600080fd5b634e487b7160e01b600052604160045260246000fd5b51906001600160a01b038216820360ab5756fe608080604052600436101561001357600080fd5b60003560e01c90816369d89575146100f457508063a37dda2c146100cb578063aa8c217c146100ad578063ae200e79146100845763fd84030c1461005657600080fd5b3461007f57600036600319011261007f576002546040516001600160a01b039091168152602090f35b600080fd5b3461007f57600036600319011261007f576001546040516001600160a01b039091168152602090f35b3461007f57600036600319011261007f576020600354604051908152f35b3461007f57600036600319011261007f576000546040516001600160a01b039091168152602090f35b3461007f57600036600319011261007f576001546001600160a01b031633148015610239575b156101d957600080546003548291829182916001600160a01b03165af13d156101d4573d6001600160401b0381116101be5760405190601f8101601f19908116603f011682016001600160401b038111838210176101be576040528152600060203d92013e5b1561018757005b60405162461bcd60e51b815260206004820152600f60248201526e151c985b9cd9995c8819985a5b1959608a1b6044820152606490fd5b634e487b7160e01b600052604160045260246000fd5b610180565b62461bcd60e51b815260206004820152603560248201527f4f6e6c792074686520656d706c6f796572206f7220526571756573744d616e616044820152746765722063616e2072656c656173652066756e647360581b6064820152608490fd5b506002546001600160a01b0316331461011a56fea26469706673582212203e1fa37dec5e9b2e682eff52b695fc9a1cf27f8a2eb7d9b8387f0c198bfb4b4664736f6c63430008230033af24b5c95c71d4afa309bff2d28e48f37eb326d372f70e7020680835383f3fde7041399863d3c4321ae1532f5491889c4d2d545fe190c428f5fd525f5b68c5afa264697066735822122002f113959c06d0e07a37d03cb7d22b7eea1b4ba34038a7f58ba404fd00c72e9b64736f6c63430008230033",
  "immutableReferences": {},
  "source": "// SPDX-License-Identifier: MIT\r\npragma solidity ^0.8.0;\r\n\r\nimport \"./Projects.sol\";\r\n\r\ncontract Escrow {\r\n    address public freelancer;\r\n    address public employer;\r\n    address public requestManager;\r\n    uint public amount;\r\n\r\n    constructor(address _freelancer, address _employer, address _requestManager, uint _amount) payable {\r\n        freelancer = _freelancer;\r\n        employer = _employer;\r\n        requestManager = _requestManager;\r\n        amount = _amount;\r\n    }\r\n\r\n    function releaseFunds() external {\r\n        require(msg.sender == employer || msg.sender == requestManager, \"Only the employer or RequestManager can release funds\");\r\n        (bool success, ) = payable(freelancer).call{value: amount}(\"\");\r\n        require(success, \"Transfer failed\");\r\n    }\r\n}\r\n\r\ncontract RequestManager {\r\n    Projects public projectsContract;\r\n\r\n    enum RequestStatus { Pending, Accepted, Rejected }\r\n    enum QuotationStatus { Pending, Proposed, Negotiating, Accepted, Rejected }\r\n\r\n    struct Request {\r\n        uint projectId;\r\n        address freelancer;\r\n        uint freelancerRating;\r\n        RequestStatus status;\r\n        Escrow escrowContract;\r\n    }\r\n\r\n    struct Quotation {\r\n        uint projectId;\r\n        address proposedBy;\r\n        uint proposedAmount;\r\n        string description;\r\n        string negotiationNotes;\r\n        QuotationStatus status;\r\n        uint timestamp;\r\n    }\r\n\r\n    struct MilestoneReviewRequest {\r\n        uint id;\r\n        uint milestoneId;\r\n        address freelancer;\r\n        string cid;\r\n        bool reviewed;\r\n    }\r\n\r\n    struct File {\r\n        uint id;\r\n        uint milestoneId;\r\n        string name;\r\n        string rid;\r\n        string cid;\r\n    }\r\n\r\n    struct ReviewResponse{\r\n        uint id;\r\n        uint milestoneId;\r\n        address freelancer;\r\n        string response;\r\n        bool accepted;\r\n    }\r\n    \r\n    mapping(uint => ReviewResponse) public reviewResponses;\r\n    uint public responseCount;\r\n\r\n    // Mapping milestone ID to an array of files\r\n    mapping(uint => File[]) public milestoneFiles;\r\n    uint public fileCount;\r\n\r\n    // Store all requests in a single mapping\r\n    mapping(uint => Request) public requests;\r\n    mapping(uint => uint) public projectToRequest; // projectId => requestId mapping\r\n    uint public requestCount; // To keep track of the total number of requests\r\n\r\n    mapping(uint => Quotation[]) public quotations; // projectId => array of quotations\r\n    mapping(uint => address) public assignedFreelancer; // projectId => freelancer address\r\n\r\n    mapping(uint => MilestoneReviewRequest) public milestoneReviewRequests;\r\n    uint public milestoneReviewRequestCount;\r\n\r\n    event RequestSent(uint requestId, uint projectId, address freelancer);\r\n    event RequestAccepted(uint requestId, address freelancer, address escrowContract);\r\n    event RequestRejected(uint requestId, address freelancer);\r\n    event QuotationProposed(uint projectId, address proposedBy, uint amount);\r\n    event QuotationCounterProposed(uint projectId, address proposedBy, uint amount, string notes);\r\n    event QuotationAccepted(uint projectId, uint newAmount);\r\n    event QuotationRejected(uint projectId);\r\n    event MilestoneReviewRequestSent(uint requestId, uint milestoneId, string cid);\r\n    event MilestoneAccepted(uint projectId, uint milestoneId, uint updatedRating);\r\n    event MilestoneReviewRequestRejected(uint indexed reviewRequestId, string reason);\r\n    event RejectionReasonAccepted(uint _reviewRequestId);\r\n    event EscrowReleased(uint requestId, address escrowContract, uint amount);\r\n\r\n    constructor(address _projectsContract) {\r\n        projectsContract = Projects(_projectsContract);\r\n    }\r\n\r\n    function getProjectsContractAddress() public view returns (address) {\r\n        return address(projectsContract);\r\n    }\r\n\r\n    function debugProjectCount() public view returns (uint) {\r\n        return projectsContract.projectCount();\r\n    }\r\n\r\n    function sendRequest(uint _projectId, uint _freelancerRating) public {\r\n        require(_projectId > 0 && _projectId <= projectsContract.projectCount(), \"Invalid project ID\");\r\n        (,, , , Projects.Status status, , ) = projectsContract.getProject(_projectId);\r\n        require(status == Projects.Status.Open, \"Project is not open\");\r\n\r\n        // Create a new request\r\n        requestCount++; // Increment request count to create a unique ID\r\n        requests[requestCount] = Request({\r\n            projectId: _projectId,\r\n            freelancer: msg.sender,\r\n            freelancerRating: _freelancerRating,\r\n            status: RequestStatus.Pending,\r\n            escrowContract: Escrow(address(0))\r\n        });\r\n        \r\n        // Map projectId to requestId for easy lookup\r\n        projectToRequest[_projectId] = requestCount;\r\n\r\n        emit RequestSent(requestCount, _projectId, msg.sender);\r\n    }\r\n\r\n    function acceptRequest(uint _requestId) public payable {\r\n        Request storage request = requests[_requestId];\r\n        require(request.freelancer != address(0), \"No request exists for this ID\");\r\n        require(request.status == RequestStatus.Pending, \"Request is not pending\");\r\n\r\n        // Fetch project details\r\n        (,, , uint projectReward, Projects.Status status, address employer, ) = projectsContract.getProject(request.projectId);\r\n        require(msg.sender == employer, \"Only the employer can accept the request\");\r\n        require(status == Projects.Status.Open, \"Project must be open\");\r\n\r\n        // Create new escrow contract instance with freelancer and employer details\r\n        request.escrowContract = new Escrow{value: projectReward}(request.freelancer, employer, address(this), projectReward);\r\n\r\n        request.status = RequestStatus.Accepted;\r\n        \r\n        // Mark freelancer as assigned and close the project\r\n        assignedFreelancer[request.projectId] = request.freelancer;\r\n        projectsContract.closeProject(request.projectId);\r\n        \r\n        emit RequestAccepted(_requestId, request.freelancer, address(request.escrowContract));\r\n    }\r\n\r\n    function rejectRequest(uint _requestId) public {\r\n        Request storage request = requests[_requestId];\r\n        require(request.freelancer != address(0), \"No request exists for this ID\");\r\n        require(request.status == RequestStatus.Pending, \"Request already processed\");\r\n\r\n        request.status = RequestStatus.Rejected;\r\n        emit RequestRejected(_requestId, request.freelancer);\r\n    }\r\n\r\n    \r\n\r\n    function getRequest(uint _requestId) public view returns (Request memory) {\r\n        require(requests[_requestId].freelancer != address(0), \"No request exists for this ID\");\r\n        return requests[_requestId];\r\n    }\r\n\r\n    // New function to view all requests\r\n    function viewAllRequests() public view returns (\r\n        uint[] memory requestIds,\r\n        uint[] memory projectIds,\r\n        address[] memory freelancers,\r\n        uint[] memory ratings,\r\n        RequestStatus[] memory statuses,\r\n        address[] memory escrowContracts\r\n    ) {\r\n        uint count = requestCount;\r\n\r\n        // Initialize arrays based on the total request count\r\n        requestIds = new uint[](count);\r\n        projectIds = new uint[](count);\r\n        freelancers = new address[](count);\r\n        ratings = new uint[](count);\r\n        statuses = new RequestStatus[](count);\r\n        escrowContracts = new address[](count);\r\n\r\n        // Populate the arrays with request details\r\n        for (uint i = 1; i <= requestCount; i++) {\r\n            Request storage request = requests[i];\r\n            requestIds[i - 1] = i;\r\n            projectIds[i - 1] = request.projectId;\r\n            freelancers[i - 1] = request.freelancer;\r\n            ratings[i - 1] = request.freelancerRating;\r\n            statuses[i - 1] = request.status;\r\n            escrowContracts[i - 1] = address(request.escrowContract);\r\n        }\r\n\r\n        return (requestIds, projectIds, freelancers, ratings, statuses, escrowContracts);\r\n    }\r\n\r\n\r\n    function viewAllReviewResponses() public view returns (\r\n        uint[] memory responseIds,\r\n        uint[] memory milestoneIds,\r\n        address[] memory freelancers,\r\n        string[] memory responses,\r\n        bool[] memory acceptedStatuses\r\n    ) {\r\n        uint count = responseCount;\r\n\r\n        // Initialize arrays based on the total response count\r\n        responseIds = new uint[](count);\r\n        milestoneIds = new uint[](count);\r\n        freelancers = new address[](count);\r\n        responses = new string[](count);\r\n        acceptedStatuses = new bool[](count);\r\n\r\n        // Populate the arrays with response details\r\n        for (uint i = 1; i <= count; i++) {\r\n            ReviewResponse storage reviewResponse = reviewResponses[i];\r\n            responseIds[i - 1] = reviewResponse.id;\r\n            milestoneIds[i - 1] = reviewResponse.milestoneId;\r\n            freelancers[i - 1] = reviewResponse.freelancer;\r\n            responses[i - 1] = reviewResponse.response;\r\n            acceptedStatuses[i - 1] = reviewResponse.accepted;\r\n        }\r\n\r\n        return (responseIds, milestoneIds, freelancers, responses, acceptedStatuses);\r\n    }\r\n\r\n\r\n    // function acceptMilestone(uint _milestoneId, uint _actualDaysTaken, uint _delayPenalty, uint _requestId) public payable {\r\n    //     Request memory request = getRequest(_requestId); // Retrieve the request using requestId\r\n\r\n    //     // Ensure projectId is valid\r\n    //     require(request.projectId > 0 && request.projectId <= projectsContract.projectCount(), \"Project does not exist\");\r\n\r\n    //     // Retrieve the project details using the getProject function\r\n    //     (, , , uint reward, , address employer) = projectsContract.getProject(request.projectId);\r\n    //     require(msg.sender == employer, \"Only the employer can accept milestones\");\r\n\r\n    //     // Ensure milestoneId is valid\r\n    //     (\r\n    //         uint[] memory ids,\r\n    //         uint[] memory projectIds,\r\n    //         string[] memory names,\r\n    //         string[] memory descriptions,\r\n    //         uint[] memory daycounts,\r\n    //         uint[] memory percentages,\r\n    //         bool[] memory completions,\r\n    //         string[] memory proofFileHashes\r\n    //     ) = projectsContract.getMilestones(request.projectId);\r\n\r\n    //     // Check if the milestone exists and is within bounds\r\n    //     require(_milestoneId > 0 && _milestoneId <= ids.length, \"Milestone does not exist\");\r\n        \r\n    //     // Fetch milestone data by using _milestoneId as an index\r\n    //     uint milestoneIndex = _milestoneId - 1;\r\n    //     require(!completions[milestoneIndex], \"Milestone already completed\");\r\n    //     require(bytes(proofFileHashes[milestoneIndex]).length > 0, \"Proof file not uploaded\");\r\n\r\n    //     // Mark the milestone as completed\r\n    //     projectsContract.completeMilestone(request.projectId, _milestoneId);\r\n\r\n    //     // Calculate and update freelancer rating based on the provided formula\r\n    //     uint currentRating = projectsContract.getFreelancerRating(request.freelancer);\r\n    //     uint rewardWeight = (percentages[milestoneIndex] * reward) / 100;\r\n    //     int ratingChange = int((5 * 100 * rewardWeight * daycounts[milestoneIndex]) / (reward * _actualDaysTaken));\r\n\r\n    //     // Cap the increment at +0.2 if positive\r\n    //     if (ratingChange > 20) {\r\n    //         ratingChange = 20;\r\n    //     }\r\n\r\n    //     uint newRating = uint(int(currentRating) + ratingChange);\r\n\r\n    //     // Ensure new rating doesn't exceed 5.0 (500 basis points)\r\n    //     if (newRating > 500) {\r\n    //         newRating = 500;\r\n    //     }\r\n\r\n    //     // Update the freelancer's rating\r\n    //     projectsContract.setFreelancerRating(request.freelancer, newRating);\r\n\r\n    //     // Release milestone payment from the escrow with the specified penalty\r\n    //     uint milestonePercentage = percentages[milestoneIndex];\r\n    //     request.escrowContract.releaseMilestonePayment(milestonePercentage, _delayPenalty);\r\n\r\n    //     emit MilestoneAccepted(request.projectId, _milestoneId, newRating);\r\n    // }\r\n\r\n\r\n    function viewRequestsByEmployer() public view returns (\r\n            uint[] memory requestIds,\r\n            uint[] memory projectIds,\r\n            address[] memory freelancers,\r\n            uint[] memory ratings,\r\n            RequestStatus[] memory statuses,\r\n            address[] memory escrowContracts\r\n        ) {\r\n            uint count = 0;\r\n\r\n            // Count requests that belong to projects owned by the employer\r\n            for (uint i = 1; i <= requestCount; i++) {\r\n                uint projectId = requests[i].projectId;\r\n                (, , , , , address employer, ) = projectsContract.getProject(projectId);\r\n                if (employer == msg.sender) {\r\n                    count++;\r\n                }\r\n            }\r\n\r\n            // Initialize arrays based on the count of matching requests\r\n            requestIds = new uint[](count);\r\n            projectIds = new uint[](count);\r\n            freelancers = new address[](count);\r\n            ratings = new uint[](count);\r\n            statuses = new RequestStatus[](count);\r\n            escrowContracts = new address[](count);\r\n\r\n            uint index = 0;\r\n\r\n            // Populate the arrays with matching request details\r\n            for (uint i = 1; i <= requestCount; i++) {\r\n                uint projectId = requests[i].projectId;\r\n                (, , , , , address employer, ) = projectsContract.getProject(projectId);\r\n                if (employer == msg.sender) {\r\n                    Request storage request = requests[i];\r\n                    requestIds[index] = i;\r\n                    projectIds[index] = request.projectId;\r\n                    freelancers[index] = request.freelancer;\r\n                    ratings[index] = request.freelancerRating;\r\n                    statuses[index] = request.status;\r\n                    escrowContracts[index] = address(request.escrowContract);\r\n                    index++;\r\n                }\r\n            }\r\n\r\n            return (requestIds, projectIds, freelancers, ratings, statuses, escrowContracts);\r\n    }\r\n\r\n    function sendMilestoneReviewRequest(uint _milestoneId, string calldata _cid, address _freelancer) public {\r\n        // Create a new milestone review request\r\n        milestoneReviewRequestCount++; // Increment count for unique ID\r\n        milestoneReviewRequests[milestoneReviewRequestCount] = MilestoneReviewRequest({\r\n            id: milestoneReviewRequestCount,\r\n            milestoneId: _milestoneId,\r\n            freelancer: _freelancer,\r\n            cid: _cid,\r\n            reviewed: false // Initially, the request is not reviewed\r\n        });\r\n\r\n        emit MilestoneReviewRequestSent(milestoneReviewRequestCount, _milestoneId, _cid); // Emit event\r\n    }\r\n\r\n    function viewAllMilestoneReviewRequests() public view returns (\r\n        uint[] memory requestIds,\r\n        uint[] memory milestoneIds,\r\n        address[] memory freelancers,\r\n        string[] memory cids,\r\n        bool[] memory reviewedStatuses\r\n    ) {\r\n        uint count = milestoneReviewRequestCount;\r\n\r\n        // Initialize arrays based on the total count of review requests\r\n        requestIds = new uint[](count);\r\n        milestoneIds = new uint[](count);\r\n        freelancers = new address[](count);\r\n        cids = new string[](count);\r\n        reviewedStatuses = new bool[](count);\r\n\r\n        // Populate the arrays with review request details\r\n        for (uint i = 1; i <= milestoneReviewRequestCount; i++) {\r\n            MilestoneReviewRequest storage reviewRequest = milestoneReviewRequests[i];\r\n            requestIds[i - 1] = reviewRequest.id;\r\n            milestoneIds[i - 1] = reviewRequest.milestoneId;\r\n            freelancers[i - 1] = reviewRequest.freelancer;\r\n            cids[i - 1] = reviewRequest.cid;\r\n            reviewedStatuses[i - 1] = reviewRequest.reviewed;\r\n        }\r\n\r\n        return (requestIds, milestoneIds, freelancers, cids, reviewedStatuses);\r\n    }\r\n\r\n\r\n    function getEscrowAccountFromReviewRequest(uint _reviewRequestId, uint _projectId) public view returns (Escrow) {\r\n        // Fetch the MilestoneReviewRequest using the provided ID\r\n        MilestoneReviewRequest storage reviewRequest = milestoneReviewRequests[_reviewRequestId];\r\n\r\n        // Ensure the review request exists\r\n        require(reviewRequest.id != 0, \"Review request does not exist\");\r\n        \r\n        // Find the corresponding request based on the project ID and freelancer address\r\n        for (uint i = 1; i <= requestCount; i++) {\r\n            Request storage request = requests[i];\r\n\r\n            // Check if the request matches the provided projectId and the freelancer address from the review request\r\n            if (request.projectId == _projectId && request.freelancer == reviewRequest.freelancer && request.status == RequestStatus.Accepted) {\r\n                return request.escrowContract; // Return the escrow contract associated with the request\r\n            }\r\n        }\r\n\r\n        // If no matching request was found, revert with an error message\r\n        revert(\"No matching request found for this review request\");\r\n    }\r\n\r\n    function acceptMilestoneReviewRequest(uint _reviewRequestId, uint _projId) public payable {\r\n        // Fetch the  request using the ID\r\n        MilestoneReviewRequest storage reviewRequest = milestoneReviewRequests[_reviewRequestId];\r\n        require(!reviewRequest.reviewed, \"Review request already accepted\");\r\n\r\n        // Get the milestone ID from the  request\r\n        uint milestoneId = reviewRequest.milestoneId;\r\n\r\n        // Retrieve the associated milestones for the project\r\n        (\r\n            uint[] memory ids,\r\n            uint[] memory _projectIds,\r\n            string[] memory names,\r\n            string[] memory descriptions,\r\n            uint[] memory daycounts,\r\n            uint[] memory percentages,\r\n            Projects.MilestoneStatus[] memory statuses,\r\n            address[] memory freelancers,\r\n            address[] memory clients,\r\n            uint[] memory amounts,\r\n            string[] memory proofFileHashes\r\n        ) = projectsContract.getMilestones(_projId);\r\n\r\n        // Initialize variables to store the milestone data once we find it\r\n        bool milestoneFound = false;\r\n        string memory milestoneName;\r\n        string memory milestoneDescription;\r\n        uint milestoneDaycount;\r\n        uint milestonePercentage;\r\n        Projects.MilestoneStatus milestoneStatus;\r\n        address milestoneFreelancer;\r\n        address milestoneClient;\r\n        uint milestoneAmount;\r\n        string memory milestoneProofFileHash;\r\n\r\n        // Fetch project details and validate the caller is the employer\r\n        (, , , , Projects.Status _status, address employer, ) = projectsContract.getProject(_projId);\r\n        _projectIds.length;\r\n        _status;\r\n        require(msg.sender == employer, \"Only the employer can accept milestone review requests\");\r\n\r\n        // Search for the milestone with the specified milestoneId\r\n        for (uint i = 0; i < ids.length; i++) {\r\n            if (ids[i] == milestoneId) {\r\n                milestoneFound = true;\r\n                milestoneName = names[i];\r\n                milestoneDescription = descriptions[i];\r\n                milestoneDaycount = daycounts[i];\r\n                milestonePercentage = percentages[i];\r\n                milestoneStatus = statuses[i];\r\n                milestoneFreelancer = freelancers[i];\r\n                milestoneClient = clients[i];\r\n                milestoneAmount = amounts[i];\r\n                milestoneProofFileHash = proofFileHashes[i];\r\n                break;\r\n            }\r\n        }\r\n\r\n        require(milestoneFound, \"Milestone does not exist\");\r\n\r\n        reviewRequest.reviewed = true;\r\n\r\n        // Mark the milestone completed in the Projects contract\r\n        projectsContract.completeMilestone(_projId, milestoneId);\r\n\r\n        // Get freelancer's address from the request\r\n        address freelancer = reviewRequest.freelancer;\r\n\r\n        // Update freelancer rating based on the milestone percentage\r\n        uint currentRating = projectsContract.getFreelancerRating(freelancer);\r\n        // uint rewardWeight = projReward / 100;\r\n        uint newRating = currentRating + (5 * milestonePercentage / 100);\r\n\r\n        // Ensure the new rating does not exceed 500\r\n        if (newRating > 500) {\r\n            newRating = 500;\r\n        }\r\n\r\n        // Set the new rating for the freelancer\r\n        projectsContract.setFreelancerRating(freelancer, newRating);\r\n\r\n        // If all milestones are now approved, release escrow funds to the freelancer\r\n        bool allMilestonesApproved = true;\r\n        for (uint i = 0; i < statuses.length; i++) {\r\n            if (statuses[i] != Projects.MilestoneStatus.Approved) {\r\n                allMilestonesApproved = false;\r\n                break;\r\n            }\r\n        }\r\n\r\n        if (allMilestonesApproved) {\r\n            Escrow escrow = getEscrowAccountFromReviewRequest(_reviewRequestId, _projId);\r\n            uint escrowAmount = escrow.amount();\r\n            escrow.releaseFunds();\r\n            emit EscrowReleased(_reviewRequestId, address(escrow), escrowAmount);\r\n        }\r\n\r\n        uint _milestoneId = reviewRequest.milestoneId;\r\n        address _freelancer = reviewRequest.freelancer;\r\n\r\n        responseCount++;\r\n        reviewResponses[responseCount] = ReviewResponse({\r\n            id: responseCount,\r\n            milestoneId: _milestoneId,\r\n            freelancer: _freelancer,\r\n            response: \"\",\r\n            accepted: true\r\n        });\r\n    }\r\n    //     require(projEmployer == msg.sender, \"Only the employer can accept milestones\");\r\n\r\n    //     // Mark the review request as accepted\r\n    //     reviewRequest.reviewed = true;\r\n\r\n    //     // Get freelancer's address from the request\r\n    //     address freelancer = reviewRequest.freelancer;\r\n\r\n    //     // Update freelancer rating based on the milestone percentage\r\n    //     uint currentRating = projectsContract.getFreelancerRating(freelancer);\r\n    //     uint rewardWeight = projReward / 100;\r\n    //     uint newRating = currentRating + (5 * milestonePercentage / rewardWeight);\r\n\r\n    //     // Ensure the new rating does not exceed 500\r\n    //     if (newRating > 500) {\r\n    //         newRating = 500;\r\n    //     }\r\n\r\n    //     // Set the new rating for the freelancer\r\n    //     projectsContract.setFreelancerRating(freelancer, newRating);\r\n\r\n    //     // Find the request with the matching projectId and freelancer\r\n    //     uint requestIndex;\r\n    //     bool foundRequest = false;\r\n\r\n    //     for (uint i = 0; i < requestCount; i++) {\r\n    //         if (requests[i].projectId == _projId && requests[i].freelancer == freelancer && requests[i].status == RequestStatus.Accepted) {\r\n    //             requestIndex = i;\r\n    //             foundRequest = true;\r\n    //             break;\r\n    //         }\r\n    //     }\r\n    //     require(foundRequest, \"Associated request not found\");\r\n\r\n    //     // Release the milestone payment from escrow using the found request\r\n    //     requests[requestIndex].escrowContract.releaseMilestonePayment(milestonePercentage);\r\n\r\n    //     // Emit an event to record the milestone acceptance\r\n    //     emit MilestoneAccepted(projId, milestoneId, newRating);\r\n    // }\r\n\r\n    // function acceptMilestoneReviewRequest(uint _reviewRequestId, uint _projId) public payable {\r\n    //     // Fetch the request using the ID\r\n    //     MilestoneReviewRequest storage reviewRequest = milestoneReviewRequests[_reviewRequestId];\r\n    //     require(reviewRequest.id != 0, \"Review request does not exist\");\r\n    //     require(!reviewRequest.reviewed, \"Review request already accepted\");\r\n\r\n    //     // Get the milestone ID from the request\r\n    //     uint milestoneId = reviewRequest.milestoneId;\r\n\r\n    //     // Retrieve the associated milestones for the project\r\n    //     (\r\n    //         uint[] memory ids,\r\n    //         ,  // projectIds not used\r\n    //         ,  // names not used\r\n    //         ,  // descriptions not used\r\n    //         uint[] memory daycounts,\r\n    //         uint[] memory percentages,\r\n    //         bool[] memory completions,\r\n    //         string[] memory proofFileHashes\r\n    //     ) = projectsContract.getMilestones(_projId);\r\n\r\n    //     // Verify that the milestone exists and get its index\r\n    //     uint milestoneIndex;\r\n    //     bool milestoneFound = false;\r\n    //     for (uint i = 0; i < ids.length; i++) {\r\n    //         if (ids[i] == milestoneId) {\r\n    //             milestoneIndex = i;\r\n    //             milestoneFound = true;\r\n    //             break;\r\n    //         }\r\n    //     }\r\n    //     require(milestoneFound, \"Milestone does not exist\");\r\n    //     require(!completions[milestoneIndex], \"Milestone already completed\");\r\n    //     require(bytes(proofFileHashes[milestoneIndex]).length > 0, \"Proof file not uploaded\");\r\n\r\n    //     // Get project details\r\n    //     (, , , uint projReward, , address projEmployer) = projectsContract.getProject(_projId);\r\n    //     require(msg.sender == projEmployer, \"Only the employer can accept milestones\");\r\n\r\n    //     // Mark the milestone as completed in the Projects contract\r\n    //     projectsContract.completeMilestone(_projId, milestoneId);\r\n\r\n    //     // Mark the review request as accepted\r\n    //     reviewRequest.reviewed = true;\r\n\r\n    //     // Get freelancer's address from the request\r\n    //     address freelancer = reviewRequest.freelancer;\r\n\r\n    //     // Update freelancer rating\r\n    //     uint currentRating = projectsContract.getFreelancerRating(freelancer);\r\n    //     uint milestonePercentage = percentages[milestoneIndex];\r\n        \r\n    //     // Calculate rating increase based on milestone percentage and project reward\r\n    //     uint ratingIncrease = (5 * milestonePercentage * daycounts[milestoneIndex]) / 100;\r\n    //     uint newRating = currentRating + ratingIncrease;\r\n        \r\n    //     // Cap the rating at 500 (5.0)\r\n    //     if (newRating > 500) {\r\n    //         newRating = 500;\r\n    //     }\r\n\r\n    //     // Update the freelancer's rating\r\n    //     projectsContract.setFreelancerRating(freelancer, newRating);\r\n\r\n    //     // Find the associated request for the escrow\r\n    //     uint requestId;\r\n    //     bool foundRequest = false;\r\n    //     for (uint i = 1; i <= requestCount; i++) {\r\n    //         if (requests[i].projectId == _projId && \r\n    //             requests[i].freelancer == freelancer && \r\n    //             requests[i].status == RequestStatus.Accepted) {\r\n    //             requestId = i;\r\n    //             foundRequest = true;\r\n    //             break;\r\n    //         }\r\n    //     }\r\n    //     require(foundRequest, \"Associated request not found\");\r\n    //     require(address(requests[requestId].escrowContract) != address(0), \"Escrow contract not found\");\r\n\r\n    //     // Release the milestone payment from escrow\r\n    //     requests[requestId].escrowContract.releaseMilestonePayment(milestonePercentage);\r\n\r\n    //     // Emit event\r\n    //     emit MilestoneAccepted(_projId, milestoneId, newRating);\r\n    // }\r\n\r\n\r\n\r\n\r\n    function rejectMilestoneReviewRequest(uint _reviewRequestId, string calldata _reason)  public {\r\n        MilestoneReviewRequest storage reviewRequest = milestoneReviewRequests[_reviewRequestId];\r\n        require(!reviewRequest.reviewed, \"Review request already processed\");\r\n        reviewRequest.reviewed = true;\r\n\r\n        uint _milestoneId = reviewRequest.milestoneId;\r\n        address _freelancer = reviewRequest.freelancer;\r\n\r\n        responseCount++;\r\n        // request.escrowContract = new ReviewResponse{value: projectReward}(request.freelancer, employer);\r\n        reviewResponses[responseCount] = ReviewResponse({\r\n            id: responseCount,\r\n            milestoneId: _milestoneId,\r\n            freelancer: _freelancer,\r\n            response: _reason,\r\n            accepted: false\r\n        });\r\n\r\n        emit MilestoneReviewRequestRejected(_reviewRequestId, _reason);\r\n    }\r\n\r\n    function acceptRejectionReason(uint _reviewRequestId) public {\r\n        // Fetch the request using the ID\r\n        MilestoneReviewRequest storage reviewRequest = milestoneReviewRequests[_reviewRequestId];\r\n        \r\n        // Check if the request exists and if it is not already reviewed\r\n        require(reviewRequest.freelancer == msg.sender, \"Only the freelancer can accept the rejection reason\");\r\n        require(!reviewRequest.reviewed, \"Review request already reviewed\");\r\n\r\n        // Accept the rejection reason and mark the request as reviewed\r\n        reviewRequest.reviewed = true;\r\n\r\n        // Emit an event for this action (optional)\r\n        emit RejectionReasonAccepted(_reviewRequestId);\r\n    }\r\n\r\n\r\n    function addFile(\r\n        uint _milestoneId, \r\n        string memory _name, \r\n        string memory _rid, \r\n        string memory _cid\r\n    ) public {\r\n        // Create a new File struct with a unique ID and add it to the milestoneFiles map\r\n        File memory newFile = File({\r\n            id: fileCount, // unique global ID for each file\r\n            milestoneId: _milestoneId,\r\n            name: _name,\r\n            rid: _rid,\r\n            cid: _cid\r\n        });\r\n        \r\n        milestoneFiles[_milestoneId].push(newFile); // Add file to the array for the specific milestone\r\n        fileCount++; // Increment the global file count\r\n    }\r\n\r\n    function viewAllFilesForMilestone(uint _milestoneId) \r\n        public \r\n        view \r\n        returns (\r\n            uint[] memory ids,\r\n            uint[] memory milestoneIds,\r\n            string[] memory names,\r\n            string[] memory rids,\r\n            string[] memory cids\r\n        ) \r\n    {\r\n        uint count = fileCount; // Assuming 'fileCount' keeps track of the total files added\r\n\r\n        // Initialize arrays based on the total file count for the specified milestone\r\n        ids = new uint[](count);\r\n        milestoneIds = new uint[](count);\r\n        names = new string[](count);\r\n        rids = new string[](count);\r\n        cids = new string[](count);\r\n\r\n        // Populate the arrays with file details for the given milestone\r\n        uint index = 0;\r\n        for (uint i = 0; i < count; i++) {\r\n            if (milestoneFiles[_milestoneId][i].milestoneId == _milestoneId) {\r\n                File storage file = milestoneFiles[_milestoneId][i];\r\n                ids[index] = file.id;\r\n                milestoneIds[index] = file.milestoneId;\r\n                names[index] = file.name;\r\n                rids[index] = file.rid;\r\n                cids[index] = file.cid;\r\n                index++;\r\n            }\r\n        }\r\n\r\n        return (ids, milestoneIds, names, rids, cids);\r\n    }\r\n\r\n    // ===== NEW FUNCTIONS FOR ADDITIONAL FEATURES =====\r\n\r\n    /**\r\n     * Send a request draft from freelancer to employer (client)\r\n     */\r\n    /**\r\n     * Quotation Functions\r\n     */\r\n    \r\n    function proposeQuotation(uint _projectId, uint _proposedAmount, string memory _description) public {\r\n        require(_projectId > 0 && _projectId <= projectsContract.projectCount(), \"Invalid project ID\");\r\n        require(_proposedAmount > 0, \"Amount must be greater than 0\");\r\n        require(bytes(_description).length > 0, \"Description cannot be empty\");\r\n        \r\n        uint requestId = projectToRequest[_projectId];\r\n        require(requestId > 0, \"No request exists for this project\");\r\n        \r\n        (,,,, Projects.Status status, address employer, ) = projectsContract.getProject(_projectId);\r\n        require(status == Projects.Status.Open, \"Project is not open for quotations\");\r\n        \r\n        Request storage request = requests[requestId];\r\n        // Can be proposed by freelancer (requesting the project) or employer (counter-offer)\r\n        require(msg.sender == request.freelancer || msg.sender == employer, \"Only freelancer or employer can propose quotation\");\r\n\r\n        Quotation memory newQuotation = Quotation({\r\n            projectId: _projectId,\r\n            proposedBy: msg.sender,\r\n            proposedAmount: _proposedAmount,\r\n            description: _description,\r\n            negotiationNotes: \"\",\r\n            status: QuotationStatus.Proposed,\r\n            timestamp: block.timestamp\r\n        });\r\n\r\n        quotations[_projectId].push(newQuotation);\r\n        emit QuotationProposed(_projectId, msg.sender, _proposedAmount);\r\n    }\r\n\r\n    function counterPropose(uint _projectId, uint _newAmount, string memory _notes) public {\r\n        require(_projectId > 0 && _projectId <= projectsContract.projectCount(), \"Invalid project ID\");\r\n        require(_newAmount > 0, \"Amount must be greater than 0\");\r\n        require(quotations[_projectId].length > 0, \"No quotations exist for this project\");\r\n        \r\n        uint requestId = projectToRequest[_projectId];\r\n        require(requestId > 0, \"No request exists for this project\");\r\n        \r\n        (,,,, Projects.Status status, address employer, ) = projectsContract.getProject(_projectId);\r\n        require(status == Projects.Status.Open, \"Project is not open for negotiation\");\r\n        \r\n        Request storage request = requests[requestId];\r\n        Quotation[] storage projQuotations = quotations[_projectId];\r\n        uint lastIdx = projQuotations.length - 1;\r\n        Quotation storage lastQuotation = projQuotations[lastIdx];\r\n        \r\n        // Counter offer must come from the other party\r\n        if (lastQuotation.proposedBy == request.freelancer) {\r\n            require(msg.sender == employer, \"Only employer can counter-offer on freelancer's proposal\");\r\n        } else {\r\n            require(msg.sender == request.freelancer, \"Only freelancer can counter-offer on employer's proposal\");\r\n        }\r\n        \r\n        lastQuotation.status = QuotationStatus.Negotiating;\r\n        lastQuotation.proposedAmount = _newAmount;\r\n        lastQuotation.negotiationNotes = _notes;\r\n        \r\n        emit QuotationCounterProposed(_projectId, msg.sender, _newAmount, _notes);\r\n    }\r\n\r\n    function acceptQuotation(uint _projectId, uint _quotationIndex) public payable {\r\n        require(_projectId > 0 && _projectId <= projectsContract.projectCount(), \"Invalid project ID\");\r\n        require(_quotationIndex < quotations[_projectId].length, \"Invalid quotation index\");\r\n        \r\n        uint requestId = projectToRequest[_projectId];\r\n        require(requestId > 0, \"No request exists for this project\");\r\n        \r\n        (,,,, Projects.Status status, address employer, ) = projectsContract.getProject(_projectId);\r\n        require(status == Projects.Status.Open, \"Project is not open\");\r\n        require(msg.sender == employer, \"Only employer can accept quotation\");\r\n        \r\n        Request storage request = requests[requestId];\r\n        Quotation storage quotation = quotations[_projectId][_quotationIndex];\r\n        require(quotation.status == QuotationStatus.Proposed || quotation.status == QuotationStatus.Negotiating, \"Quotation cannot be accepted\");\r\n        require(msg.value == quotation.proposedAmount, \"Sent amount must match proposed amount\");\r\n        \r\n        quotation.status = QuotationStatus.Accepted;\r\n        \r\n        // Create escrow with new amount\r\n        Escrow escrow = new Escrow{value: quotation.proposedAmount}(request.freelancer, employer, address(this), quotation.proposedAmount);\r\n        request.escrowContract = escrow;\r\n        request.status = RequestStatus.Accepted;\r\n        \r\n        assignedFreelancer[_projectId] = request.freelancer;\r\n        projectsContract.closeProject(_projectId);\r\n        \r\n        emit QuotationAccepted(_projectId, quotation.proposedAmount);\r\n    }\r\n\r\n    function rejectQuotation(uint _projectId, uint _quotationIndex) public {\r\n        require(_projectId > 0 && _projectId <= projectsContract.projectCount(), \"Invalid project ID\");\r\n        require(_quotationIndex < quotations[_projectId].length, \"Invalid quotation index\");\r\n        \r\n        (,,,, Projects.Status status, address employer, ) = projectsContract.getProject(_projectId);\r\n        require(status == Projects.Status.Open, \"Project is not open\");\r\n        require(msg.sender == employer, \"Only employer can reject quotation\");\r\n        \r\n        Quotation storage quotation = quotations[_projectId][_quotationIndex];\r\n        quotation.status = QuotationStatus.Rejected;\r\n        \r\n        emit QuotationRejected(_projectId);\r\n    }\r\n\r\n    function getQuotations(uint _projectId) public view returns (Quotation[] memory) {\r\n        return quotations[_projectId];\r\n    }\r\n\r\n    function getLatestQuotation(uint _projectId) public view returns (Quotation memory) {\r\n        require(quotations[_projectId].length > 0, \"No quotations for this project\");\r\n        return quotations[_projectId][quotations[_projectId].length - 1];\r\n    }\r\n\r\n    function isProjectAssigned(uint _projectId) public view returns (bool) {\r\n        return assignedFreelancer[_projectId] != address(0);\r\n    }\r\n}\r\n\r\n",
  "sourcePath": "D:\\Maj_proj\\Lance-With-quote\\truffle_project\\contracts\\RequestManager.sol",
  "compiler": {
    "name": "solc",
    "version": "0.8.35+commit.47b9dedd.Emscripten.clang"
  },
  "schemaVersion": "3.4.16",
  "updatedAt": "2026-04-30T19:28:24.209Z",
  "networkType": "ethereum",
  "devdoc": {
    "kind": "dev",
    "methods": {},
    "version": 1
  },
  "userdoc": {
    "kind": "user",
    "methods": {
      "proposeQuotation(uint256,uint256,string)": {
        "notice": "Quotation Functions"
      }
    },
    "version": 1
  }
}