{
  "contractName": "Projects",
  "abi": [
    {
      "anonymous": false,
      "inputs": [
        {
          "indexed": false,
          "internalType": "uint256",
          "name": "projectId",
          "type": "uint256"
        },
        {
          "indexed": false,
          "internalType": "uint256",
          "name": "milestoneId",
          "type": "uint256"
        },
        {
          "indexed": false,
          "internalType": "string",
          "name": "name",
          "type": "string"
        },
        {
          "indexed": false,
          "internalType": "uint256",
          "name": "percentage",
          "type": "uint256"
        }
      ],
      "name": "MilestoneAdded",
      "type": "event"
    },
    {
      "anonymous": false,
      "inputs": [
        {
          "indexed": false,
          "internalType": "uint256",
          "name": "id",
          "type": "uint256"
        },
        {
          "indexed": false,
          "internalType": "string",
          "name": "name",
          "type": "string"
        },
        {
          "indexed": false,
          "internalType": "address",
          "name": "employer",
          "type": "address"
        }
      ],
      "name": "ProjectAdded",
      "type": "event"
    },
    {
      "inputs": [],
      "name": "milestoneCount",
      "outputs": [
        {
          "internalType": "uint256",
          "name": "",
          "type": "uint256"
        }
      ],
      "stateMutability": "view",
      "type": "function",
      "constant": true
    },
    {
      "inputs": [
        {
          "internalType": "uint256",
          "name": "",
          "type": "uint256"
        },
        {
          "internalType": "uint256",
          "name": "",
          "type": "uint256"
        }
      ],
      "name": "milestones",
      "outputs": [
        {
          "internalType": "uint256",
          "name": "id",
          "type": "uint256"
        },
        {
          "internalType": "uint256",
          "name": "projectId",
          "type": "uint256"
        },
        {
          "internalType": "string",
          "name": "name",
          "type": "string"
        },
        {
          "internalType": "string",
          "name": "description",
          "type": "string"
        },
        {
          "internalType": "uint256",
          "name": "daycount",
          "type": "uint256"
        },
        {
          "internalType": "uint256",
          "name": "percentage",
          "type": "uint256"
        },
        {
          "internalType": "enum Projects.MilestoneStatus",
          "name": "status",
          "type": "uint8"
        },
        {
          "internalType": "address",
          "name": "freelancer",
          "type": "address"
        },
        {
          "internalType": "address",
          "name": "client",
          "type": "address"
        },
        {
          "internalType": "uint256",
          "name": "amount",
          "type": "uint256"
        },
        {
          "internalType": "string",
          "name": "proofFileHash",
          "type": "string"
        }
      ],
      "stateMutability": "view",
      "type": "function",
      "constant": true
    },
    {
      "inputs": [],
      "name": "projectCount",
      "outputs": [
        {
          "internalType": "uint256",
          "name": "",
          "type": "uint256"
        }
      ],
      "stateMutability": "view",
      "type": "function",
      "constant": true
    },
    {
      "inputs": [
        {
          "internalType": "uint256",
          "name": "",
          "type": "uint256"
        }
      ],
      "name": "projects",
      "outputs": [
        {
          "internalType": "uint256",
          "name": "id",
          "type": "uint256"
        },
        {
          "internalType": "string",
          "name": "name",
          "type": "string"
        },
        {
          "internalType": "string",
          "name": "description",
          "type": "string"
        },
        {
          "internalType": "uint256",
          "name": "reward",
          "type": "uint256"
        },
        {
          "internalType": "enum Projects.Status",
          "name": "status",
          "type": "uint8"
        },
        {
          "internalType": "address",
          "name": "employer",
          "type": "address"
        },
        {
          "internalType": "address",
          "name": "assignedFreelancer",
          "type": "address"
        }
      ],
      "stateMutability": "view",
      "type": "function",
      "constant": true
    },
    {
      "inputs": [
        {
          "internalType": "string",
          "name": "_name",
          "type": "string"
        },
        {
          "internalType": "string",
          "name": "_description",
          "type": "string"
        },
        {
          "internalType": "uint256",
          "name": "_reward",
          "type": "uint256"
        }
      ],
      "name": "addProject",
      "outputs": [],
      "stateMutability": "nonpayable",
      "type": "function"
    },
    {
      "inputs": [
        {
          "internalType": "uint256",
          "name": "_projectId",
          "type": "uint256"
        },
        {
          "internalType": "string",
          "name": "_name",
          "type": "string"
        },
        {
          "internalType": "string",
          "name": "_description",
          "type": "string"
        },
        {
          "internalType": "uint256",
          "name": "_daycount",
          "type": "uint256"
        },
        {
          "internalType": "uint256",
          "name": "_percentage",
          "type": "uint256"
        }
      ],
      "name": "addMilestone",
      "outputs": [],
      "stateMutability": "nonpayable",
      "type": "function"
    },
    {
      "inputs": [
        {
          "internalType": "uint256",
          "name": "_id",
          "type": "uint256"
        }
      ],
      "name": "getProject",
      "outputs": [
        {
          "internalType": "uint256",
          "name": "",
          "type": "uint256"
        },
        {
          "internalType": "string",
          "name": "",
          "type": "string"
        },
        {
          "internalType": "string",
          "name": "",
          "type": "string"
        },
        {
          "internalType": "uint256",
          "name": "",
          "type": "uint256"
        },
        {
          "internalType": "enum Projects.Status",
          "name": "",
          "type": "uint8"
        },
        {
          "internalType": "address",
          "name": "",
          "type": "address"
        },
        {
          "internalType": "address",
          "name": "",
          "type": "address"
        }
      ],
      "stateMutability": "view",
      "type": "function",
      "constant": true
    },
    {
      "inputs": [],
      "name": "viewProjects",
      "outputs": [
        {
          "internalType": "uint256[]",
          "name": "ids",
          "type": "uint256[]"
        },
        {
          "internalType": "string[]",
          "name": "names",
          "type": "string[]"
        },
        {
          "internalType": "string[]",
          "name": "descriptions",
          "type": "string[]"
        },
        {
          "internalType": "uint256[]",
          "name": "rewards",
          "type": "uint256[]"
        },
        {
          "internalType": "enum Projects.Status[]",
          "name": "statuses",
          "type": "uint8[]"
        },
        {
          "internalType": "address[]",
          "name": "employers",
          "type": "address[]"
        },
        {
          "internalType": "address[]",
          "name": "assignedFreelancers",
          "type": "address[]"
        }
      ],
      "stateMutability": "view",
      "type": "function",
      "constant": true
    },
    {
      "inputs": [],
      "name": "viewOpenProjects",
      "outputs": [
        {
          "internalType": "uint256[]",
          "name": "ids",
          "type": "uint256[]"
        },
        {
          "internalType": "string[]",
          "name": "names",
          "type": "string[]"
        },
        {
          "internalType": "string[]",
          "name": "descriptions",
          "type": "string[]"
        },
        {
          "internalType": "uint256[]",
          "name": "rewards",
          "type": "uint256[]"
        },
        {
          "internalType": "enum Projects.Status[]",
          "name": "statuses",
          "type": "uint8[]"
        },
        {
          "internalType": "address[]",
          "name": "employers",
          "type": "address[]"
        },
        {
          "internalType": "address[]",
          "name": "assignedFreelancers",
          "type": "address[]"
        }
      ],
      "stateMutability": "view",
      "type": "function",
      "constant": true
    },
    {
      "inputs": [
        {
          "internalType": "uint256",
          "name": "_projectId",
          "type": "uint256"
        }
      ],
      "name": "getMilestones",
      "outputs": [
        {
          "internalType": "uint256[]",
          "name": "ids",
          "type": "uint256[]"
        },
        {
          "internalType": "uint256[]",
          "name": "projectIds",
          "type": "uint256[]"
        },
        {
          "internalType": "string[]",
          "name": "names",
          "type": "string[]"
        },
        {
          "internalType": "string[]",
          "name": "descriptions",
          "type": "string[]"
        },
        {
          "internalType": "uint256[]",
          "name": "daycounts",
          "type": "uint256[]"
        },
        {
          "internalType": "uint256[]",
          "name": "percentages",
          "type": "uint256[]"
        },
        {
          "internalType": "enum Projects.MilestoneStatus[]",
          "name": "statuses",
          "type": "uint8[]"
        },
        {
          "internalType": "address[]",
          "name": "freelancers",
          "type": "address[]"
        },
        {
          "internalType": "address[]",
          "name": "clients",
          "type": "address[]"
        },
        {
          "internalType": "uint256[]",
          "name": "amounts",
          "type": "uint256[]"
        },
        {
          "internalType": "string[]",
          "name": "proofFileHashes",
          "type": "string[]"
        }
      ],
      "stateMutability": "view",
      "type": "function",
      "constant": true
    },
    {
      "inputs": [
        {
          "internalType": "uint256",
          "name": "_id",
          "type": "uint256"
        }
      ],
      "name": "closeProject",
      "outputs": [],
      "stateMutability": "nonpayable",
      "type": "function"
    },
    {
      "inputs": [
        {
          "internalType": "uint256",
          "name": "_projectId",
          "type": "uint256"
        },
        {
          "internalType": "uint256",
          "name": "_milestoneId",
          "type": "uint256"
        }
      ],
      "name": "completeMilestone",
      "outputs": [],
      "stateMutability": "nonpayable",
      "type": "function"
    }
  ],
  "bytecode": "0x60808060405234601557611c71908161001b8239f35b600080fdfe608080604052600436101561001357600080fd5b7c0100000000000000000000000000000000000000000000000000000000600035049081630681ca55146116d757508063107046bd1461165e5780631c376c6314611556578063310f9411146113f957806336fbad26146113db57806342c549c0146110e357806353eef06014610f0f578063563700d5146107f65780635fd4f7581461043057806393dc12e614610362578063f0f3f2c8146102545763f326206b146100bf57600080fd5b3461024f576100cd366118b9565b9080151580610243575b6100e090611ba7565b806000526000602052600160a060020a03610100600460406000200154041633036101d6576000526001602052604060002060009160005b82548110156101ce578161012c82856118cf565b50541461013b57600101610118565b90506006925061014a916118cf565b5001805460ff1916600217905560015b1561016157005b608460405160e560020a62461bcd02815260206004820152602860248201527f4d696c6573746f6e6520646f6573206e6f7420657869737420696e207468697360448201527f2070726f6a6563740000000000000000000000000000000000000000000000006064820152fd5b50505061015a565b608460405160e560020a62461bcd02815260206004820152603260248201527f4f6e6c792074686520656d706c6f7965722063616e206d61726b206d696c657360448201527f746f6e657320617320636f6d706c6574656400000000000000000000000000006064820152fd5b506002548111156100d7565b600080fd5b3461024f57602036600319011261024f5760043580151580610356575b61027a90611ba7565b600052600060205260406000206040519061029482611730565b805482526102a46001820161176e565b90602083019182526102b86002820161176e565b926040810193845260038201549060608101918252600483015492600160a060020a03600560808401926102ef60ff881685611b9b565b8261010060a0870198041687520154169160c0810192835251945195519251905190600282101561033d57600160a060020a0380610339965116935116936040519788978861185f565b0390f35b60e060020a634e487b7102600052602160045260246000fd5b50600254811115610271565b3461024f57602036600319011261024f5760043580151580610424575b61038890611ba7565b60005260006020526004604060002001600160a060020a036101008254041633036103b757805460ff19169055005b608460405160e560020a62461bcd02815260206004820152602860248201527f4f6e6c792074686520656d706c6f7965722063616e20636c6f7365207468697360448201527f2070726f6a6563740000000000000000000000000000000000000000000000006064820152fd5b5060025481111561037f565b3461024f57606036600319011261024f5760043567ffffffffffffffff811161024f57610461903690600401611a8e565b60243567ffffffffffffffff811161024f57610481903690600401611a8e565b9061048d600254611b79565b91826002556040519061049f82611730565b83825260208201908382526040830190815260608301604435815260808401916001835260a085019333855260c086019760008952600052600060205260406000209551865560018601905180519067ffffffffffffffff82116107105761050783546116f2565b601f81116107a0575b5081602091601f82116001146107345761053f9260009183610729575b50509060080260020a60001904191690565b906002021790555b518051600286019167ffffffffffffffff82116107105761056883546116f2565b601f81116106ba575b5081602091601f821160011461064e5761059f92600091836106435750509060080260020a60001904191690565b906002021790555b516003840155600483019051600281101561033d577f0c37be42d09c868de3d7b2154026972d847472b2d254f8f2f6a8f1be3a450e6a95610604600593600160a060020a038096819560ff80198554169116178355511690611bf5565b511692019116600160a060020a03198254161790556002546106386040519283928352606060208401526060830190611811565b3360408301520390a1005b015190508b8061052d565b9050601f1983169184600052806000209260005b8181106106a257509160029391856001969410610686575b505050020190556105a7565b01516008601f84160260020a60001904191690558a808061067a565b91936020600181928787015181550195019201610662565b82811115610571578360005260206000206020601f8501049060208510610707575b601f8260209201930104039060005b8281106106f9575050610571565b6000828201556001016106eb565b600091506106dc565b60e060020a634e487b7102600052604160045260246000fd5b015190508c8061052d565b9050601f1983169184600052806000209260005b8181106107885750916002939185600196941061076c575b50505002019055610547565b01516008601f84160260020a60001904191690558b8080610760565b91936020600181928787015181550195019201610748565b82811115610510578360005260206000206020601f85010490602085106107ed575b601f8260209201930104039060005b8281106107df575050610510565b6000828201556001016107d1565b600091506107c2565b3461024f5760a036600319011261024f5760243567ffffffffffffffff811161024f57610827903690600401611a8e565b60443567ffffffffffffffff811161024f57610847903690600401611a8e565b600435151580610f01575b61085b90611ba7565b6004356000526000602052600160a060020a0361010060046040600020015404163303610e9557608435151580610e88575b15610e415761089d600354611b79565b918260035560043560005260016020526040600020916004356000526000602052600160a060020a0361010060046040600020015404169060405194610160860186811067ffffffffffffffff82111761071057604052855260043560208601528260408601526060850152606435608085015260843560a0850152600060c0850152600060e08501526101008401526000610120840152602091604051610945848261174c565b6000815261014085015280546801000000000000000081101561071057610971916001820181556118cf565b929092610e28578351835560208401516001840155604084015180519067ffffffffffffffff8211610710576109aa60028601546116f2565b601f8111610dd1575b50818391601f8211600114610d5d576109e09260009183610c895750509060080260020a60001904191690565b906002021760028401555b606084015180519067ffffffffffffffff821161071057610a0f60038601546116f2565b601f8111610d08575b50818391601f8211600114610c9457610a459260009183610c895750509060080260020a60001904191690565b906002021760038401555b6080840151600484015560a08401516005840155600683019260c085015193600485101561033d5761014091610aa560099260009760ff80198354169116178155600160a060020a0360e08a01511690611bf5565b600160a060020a0361010088015116600160a060020a03600783019116600160a060020a03198254161790556101208701516008820155019401519384519467ffffffffffffffff8611610c7257610afd82546116f2565b601f8111610c24575b508290601f8711600114610b9d578680879893610b56937fc67423104bf96f5ca8826913ae711e8c2254e1b2c04af907b2312853ed4cbed29992610b925750509060080260020a60001904191690565b906002021790555b610b84600354926040519384936004358552840152608060408401526080830190611811565b60843560608301520390a180f35b01519050898061052d565b82865283862091601f198816875b818110610c0d57509260029289927fc67423104bf96f5ca8826913ae711e8c2254e1b2c04af907b2312853ed4cbed2999a60019610610bf1575b50505002019055610b5e565b01516008601f84160260020a6000190419169055888080610be5565b919386600181928787015181550195019201610bab565b86811115610b06578286528386208480601f8a010491818a10610c6a575b82601f91019301040390865b828110610c5c575050610b06565b808860019284015501610c4e565b889250610c42565b60248560e060020a634e487b710281526041600452fd5b01519050888061052d565b905060038601600052836000209160005b85601f1986168210610cf2575050918391600293600195601f19811610610cd6575b50505002016003840155610a50565b01516008601f84160260020a6000190419169055878080610cc7565b6001839582939486015181550194019101610ca5565b82811115610a185760038601600052836000208480601f86010491818610610d54575b82601f9101930104039060005b828110610d46575050610a18565b600082820155600101610d38565b60009250610d2b565b905060028601600052836000209160005b85601f1986168210610dbb575050918391600293600195601f19811610610d9f575b505050020160028401556109eb565b01516008601f84160260020a6000190419169055878080610d90565b6001839582939486015181550194019101610d6e565b828111156109b357600286016000528360002084601f85010490858510610e1f575b60005b868381601f870104038210610e0e57505050506109b3565b506000828401820155600101610df6565b60009150610df3565b60e060020a634e487b7102600052600060045260246000fd5b606460405160e560020a62461bcd02815260206004820152601260248201527f496e76616c69642070657263656e7461676500000000000000000000000000006044820152fd5b506064608435111561088d565b608460405160e560020a62461bcd028152602060048201526024808201527f4f6e6c792074686520656d706c6f7965722063616e20616464206d696c65737460448201527f6f6e6573000000000000000000000000000000000000000000000000000000006064820152fd5b506002546004351115610852565b3461024f57600036600319011261024f57600254600060015b8281111561109a5750610f3a81611afd565b610f4382611b2f565b91610f4d81611b2f565b90610f5781611afd565b610f6082611afd565b90610f73610f6d84611afd565b93611afd565b93600060015b89811115610f945750506040519750879661033996886119d8565b80600052600060205260ff60046040600020015416600281101561033d578960018a9214610fcd575b5050610fc890611b79565b610f79565b92600160a060020a0360056110909361101d848798610fc898600052600060205260406000209361100083865492611b88565b5261100d6001850161176e565b6110178383611b88565b52611b88565b5061102a6002820161176e565b611034858a611b88565b5261103f8489611b88565b50600381015461104f858b611b88565b528261010060048301546110708d61106b8960ff851692611b88565b611b9b565b041661107c858d611b88565b5201541661108a828b611b88565b52611b79565b9190508789610fbd565b80600052600060205260ff60046040600020015416600281101561033d576001146110ce575b6110c990611b79565b610f28565b906110db6110c991611b79565b9190506110c0565b3461024f57602036600319011261024f57600435801515806113cf575b61110990611ba7565b8060005260016020526040600020549061112282611afd565b9061112c83611afd565b9261113681611b2f565b9361114082611b2f565b9461114a83611afd565b61115384611afd565b61115c85611ae5565b9161116a604051938461174c565b85835261117686611ae5565b602084019990601f1901368b3761118c87611afd565b9461119688611afd565b966111a089611afd565b986111aa81611b2f565b9a8c60005b8381106112b157505050506040519a6101608c526101608c016111d191611911565b8b810360208d01526111e291611911565b8a810360408c01526111f391611945565b89810360608b015261120491611945565b88810360808a015261121591611911565b87810360a089015261122691611911565b9086820360c08801525190818152602001969060005b81811061129257505050916112746112839261126588610339979689809b0360e08b015261199b565b9087820361010089015261199b565b90858203610120870152611911565b90838203610140850152611945565b909197602080826112a66001948d51611904565b01990192910161123c565b8260005260016020526112c88160406000206118cf565b50916112d682845492611b88565b52826112e28287611b88565b526112ef6002830161176e565b6112f98288611b88565b526113048187611b88565b506113116003830161176e565b61131b8289611b88565b526113268188611b88565b506004820154611336828a611b88565b526005820154611346828b611b88565b52600682015491611357828c611b88565b600460ff8516101561033d578f8f8f8f9461100d926009926113c6976113968a600160a060020a036101008e60019f9c60ff859e169052041692611b88565b526113af87600160a060020a0360078601541692611b88565b526113bf86600884015492611b88565b520161176e565b50018d906111af565b50600254811115611100565b3461024f57600036600319011261024f576020600254604051908152f35b3461024f57600036600319011261024f5760025461141681611afd565b61141f82611b2f565b9061142983611b2f565b9261143381611afd565b9361143d82611afd565b9461144783611afd565b9161145184611afd565b9360015b818111156114735750509061033994959691604051978897886119d8565b80600052600060205260406000209081549160001982019282841161153d5783600160a060020a03600589948f8f908f9161108a976114b86115389c61151895611b88565b526114cc8760009261100d6001880161176e565b50508b6114e5876114df6002870161176e565b92611b88565b526114f0868d611b88565b5060038301546115028760009a611b88565b526004830154975061106b8660ff8a1692611b88565b8b61152c858561010060009a041692611b88565b52015416925089611b88565b611455565b60e060020a634e487b7102600052601160045260246000fd5b3461024f57611564366118b9565b906000526001602052604060002090815481101561024f57611585916118cf565b50805460018201549161159a6002820161176e565b906115a76003820161176e565b9060048101549160058201546006830154906007840154600160a060020a0316926008850154946009016115da9061176e565b96604051998a998a5260208a015260408901610160905261016089016115ff91611811565b88810360608a015261161091611811565b94608088015260a087015260c0860160ff82169061162d91611904565b6101009004600160a060020a031660e086015261010085015261012084015282810361014084015261033991611811565b3461024f57602036600319011261024f576004356000526000602052604060002080546103396116906001840161176e565b9161169d6002850161176e565b93600381015491600160a060020a0360056004840154930154169260405196879660ff600160a060020a036101008704169516938861185f565b3461024f57600036600319011261024f576020906003548152f35b9060016002830492168015611726575b602083101461170d57565b60e060020a634e487b7102600052602260045260246000fd5b91607f1691611702565b60e0810190811067ffffffffffffffff82111761071057604052565b90601f8019910116810190811067ffffffffffffffff82111761071057604052565b9060405191826000825492611782846116f2565b80845293600181169081156117f057506001146117a9575b506117a79250038361174c565b565b90506000929192526020600020906000915b8183106117d45750509060206117a7928201013861179a565b60209193508060019154838589010152019101909184926117bb565b9050602092506117a794915060ff191682840152151581028201013861179a565b919082519283825260005b84811061183d575050826000602080949584010152601f8019910116010190565b8060208092840101518282860101520161181c565b90600282101561033d5752565b959060c09561189d600160a060020a03969a999561188f88966118ad958c5260e060208d015260e08c0190611811565b908a820360408c0152611811565b9960608901526080880190611852565b1660a085015216910152565b604090600319011261024f576004359060243590565b80548210156118eb57600052600a602060002091020190600090565b60e060020a634e487b7102600052603260045260246000fd5b90600482101561033d5752565b906020808351928381520192019060005b81811061192f5750505090565b8251845260209384019390920191600101611922565b805180835260208181028401810193928101926000918101905b83831061196e57505050505090565b909192939460208061198c600193601f198682030187528951611811565b9701930193019193929061195f565b906020808351928381520192019060005b8181106119b95750505090565b8251600160a060020a03168452602093840193909201916001016119ac565b95939192611a0a611a26946119fc611a18949b9a989b60e08b5260e08b0190611911565b9089820360208b0152611945565b908782036040890152611945565b908582036060870152611911565b83810360808501526020808751928381520196019060005b818110611a6f5750505084611a5e9184611a6c96970360a086015261199b565b9160c081840391015261199b565b90565b90919660208082611a836001948c51611852565b019801929101611a3e565b81601f8201121561024f5780359067ffffffffffffffff82116107105760405192611ac3601f8401601f19166020018561174c565b8284526020838301011161024f57816000926020809301838601378301015290565b67ffffffffffffffff81116107105760208091020190565b90611b0782611ae5565b611b14604051918261174c565b8281528092611b25601f1991611ae5565b0190602036910137565b90611b3982611ae5565b611b46604051918261174c565b8281528092611b57601f1991611ae5565b019060005b828110611b6857505050565b806060602080938501015201611b5c565b600019811461153d5760010190565b80518210156118eb576020809202010190565b600282101561033d5752565b15611bae57565b606460405160e560020a62461bcd02815260206004820152601660248201527f50726f6a65637420646f6573206e6f74206578697374000000000000000000006044820152fd5b9074ffffffffffffffffffffffffffffffffffffffff00610100600160a060020a038454931602169074ffffffffffffffffffffffffffffffffffffffff00191617905556fea264697066735822122039c113b0fbbf08c4ff51e5533fa8b609266de34068abdcc88d4bcff449caae6864736f6c63430008230033",
  "immutableReferences": {},
  "source": "// SPDX-License-Identifier: MIT\r\npragma solidity >=0.8.7;\r\n\r\ncontract Projects {\r\n    \r\n    enum Status { Closed, Open }\r\n\r\n    enum MilestoneStatus { Pending, InProgress, Completed, Rejected }\r\n\r\n    struct Project {\r\n        uint id;\r\n        string name;\r\n        string description;\r\n        uint reward;\r\n        Status status;\r\n        address employer;\r\n        address assignedFreelancer;\r\n    }\r\n\r\n    struct Milestone {\r\n        uint id;\r\n        uint projectId;\r\n        string name;\r\n        string description;\r\n        uint daycount;\r\n        uint percentage;\r\n        MilestoneStatus status;\r\n        address freelancer;\r\n        address client;\r\n        uint amount;\r\n        string proofFileHash;\r\n    }\r\n\r\n    mapping(uint => Project) public projects;\r\n    mapping(uint => Milestone[]) public milestones;\r\n\r\n    uint public projectCount;\r\n    uint public milestoneCount;\r\n\r\n    event ProjectAdded(uint id, string name, address employer);\r\n    event MilestoneAdded(uint projectId, uint milestoneId, string name, uint percentage);\r\n\r\n    function addProject(string memory _name, string memory _description, uint _reward) public {\r\n        projectCount++;\r\n        projects[projectCount] = Project({\r\n            id: projectCount,\r\n            name: _name,\r\n            description: _description,\r\n            reward: _reward,\r\n            status: Status.Open,\r\n            employer: msg.sender,\r\n            assignedFreelancer: address(0)\r\n        });\r\n\r\n        emit ProjectAdded(projectCount, _name, msg.sender);\r\n    }\r\n\r\n    function addMilestone(uint _projectId, string memory _name, string memory _description, uint _daycount, uint _percentage) public {\r\n        require(_projectId > 0 && _projectId <= projectCount, \"Project does not exist\");\r\n        require(msg.sender == projects[_projectId].employer, \"Only the employer can add milestones\");\r\n        require(_percentage > 0 && _percentage <= 100, \"Invalid percentage\");\r\n\r\n        milestoneCount++;\r\n        milestones[_projectId].push(Milestone({\r\n            id: milestoneCount,\r\n            projectId: _projectId,\r\n            name: _name,\r\n            description: _description,\r\n            daycount: _daycount,\r\n            percentage: _percentage,\r\n            status: MilestoneStatus.Pending,\r\n            freelancer: address(0),\r\n            client: projects[_projectId].employer,\r\n            amount: 0,\r\n            proofFileHash: \"\"\r\n        }));\r\n\r\n        emit MilestoneAdded(_projectId, milestoneCount, _name, _percentage);\r\n    }\r\n\r\n    function getProject(uint _id) public view returns (uint, string memory, string memory, uint, Status, address, address) {\r\n        require(_id > 0 && _id <= projectCount, \"Project does not exist\");\r\n        Project memory proj = projects[_id];\r\n        return (proj.id, proj.name, proj.description, proj.reward, proj.status, proj.employer, proj.assignedFreelancer);\r\n    }\r\n\r\n    function viewProjects() public view returns (\r\n        uint[] memory ids, \r\n        string[] memory names, \r\n        string[] memory descriptions, \r\n        uint[] memory rewards, \r\n        Status[] memory statuses, \r\n        address[] memory employers,\r\n        address[] memory assignedFreelancers\r\n    ) {\r\n        ids = new uint[](projectCount);\r\n        names = new string[](projectCount);\r\n        descriptions = new string[](projectCount);\r\n        rewards = new uint[](projectCount);\r\n        statuses = new Status[](projectCount);\r\n        employers = new address[](projectCount);\r\n        assignedFreelancers = new address[](projectCount);\r\n\r\n        for (uint i = 1; i <= projectCount; i++) {\r\n            Project storage proj = projects[i];\r\n            ids[i - 1] = proj.id;\r\n            names[i - 1] = proj.name;\r\n            descriptions[i - 1] = proj.description;\r\n            rewards[i - 1] = proj.reward;\r\n            statuses[i - 1] = proj.status;\r\n            employers[i - 1] = proj.employer;\r\n            assignedFreelancers[i - 1] = proj.assignedFreelancer;\r\n        }\r\n\r\n        return (ids, names, descriptions, rewards, statuses, employers, assignedFreelancers);\r\n    }\r\n\r\n    function viewOpenProjects() public view returns (\r\n        uint[] memory ids, \r\n        string[] memory names, \r\n        string[] memory descriptions, \r\n        uint[] memory rewards, \r\n        Status[] memory statuses, \r\n        address[] memory employers,\r\n        address[] memory assignedFreelancers\r\n    ) {\r\n        uint openCount = 0;\r\n        for (uint i = 1; i <= projectCount; i++) {\r\n            if (projects[i].status == Status.Open) {\r\n                openCount++;\r\n            }\r\n        }\r\n\r\n        ids = new uint[](openCount);\r\n        names = new string[](openCount);\r\n        descriptions = new string[](openCount);\r\n        rewards = new uint[](openCount);\r\n        statuses = new Status[](openCount);\r\n        employers = new address[](openCount);\r\n        assignedFreelancers = new address[](openCount);\r\n\r\n        uint index = 0;\r\n        for (uint i = 1; i <= projectCount; i++) {\r\n            if (projects[i].status == Status.Open) {\r\n                Project storage proj = projects[i];\r\n                ids[index] = proj.id;\r\n                names[index] = proj.name;\r\n                descriptions[index] = proj.description;\r\n                rewards[index] = proj.reward;\r\n                statuses[index] = proj.status;\r\n                employers[index] = proj.employer;\r\n                assignedFreelancers[index] = proj.assignedFreelancer;\r\n                index++;\r\n            }\r\n        }\r\n\r\n        return (ids, names, descriptions, rewards, statuses, employers, assignedFreelancers);\r\n    }\r\n\r\nfunction getMilestones(uint _projectId) public view returns (\r\n    uint[] memory ids,\r\n    uint[] memory projectIds,\r\n    string[] memory names,\r\n    string[] memory descriptions,\r\n    uint[] memory daycounts,\r\n    uint[] memory percentages,\r\n    MilestoneStatus[] memory statuses,\r\n    address[] memory freelancers,\r\n    address[] memory clients,\r\n    uint[] memory amounts,\r\n    string[] memory proofFileHashes\r\n) {\r\n    require(_projectId > 0 && _projectId <= projectCount, \"Project does not exist\");\r\n    uint milestoneLength = milestones[_projectId].length;\r\n\r\n    ids = new uint[](milestoneLength);\r\n    projectIds = new uint[](milestoneLength);\r\n    names = new string[](milestoneLength);\r\n    descriptions = new string[](milestoneLength);\r\n    daycounts = new uint[](milestoneLength);\r\n    percentages = new uint[](milestoneLength);\r\n    statuses = new MilestoneStatus[](milestoneLength);\r\n    freelancers = new address[](milestoneLength);\r\n    clients = new address[](milestoneLength);\r\n    amounts = new uint[](milestoneLength);\r\n    proofFileHashes = new string[](milestoneLength);\r\n\r\n    for (uint i = 0; i < milestoneLength; i++) {\r\n        Milestone storage milestone = milestones[_projectId][i];\r\n        ids[i] = milestone.id;\r\n        projectIds[i] = _projectId;\r\n        names[i] = milestone.name;\r\n        descriptions[i] = milestone.description;\r\n        daycounts[i] = milestone.daycount;\r\n        percentages[i] = milestone.percentage;\r\n        statuses[i] = milestone.status;\r\n        freelancers[i] = milestone.freelancer;\r\n        clients[i] = milestone.client;\r\n        amounts[i] = milestone.amount;\r\n        proofFileHashes[i] = milestone.proofFileHash;\r\n    }\r\n}\r\n\r\n\r\n    function closeProject(uint _id) public {\r\n        require(_id > 0 && _id <= projectCount, \"Project does not exist\");\r\n        Project storage proj = projects[_id];\r\n        require(msg.sender == proj.employer, \"Only the employer can close this project\");\r\n        proj.status = Status.Closed;\r\n    }\r\n\r\n    function completeMilestone(uint _projectId, uint _milestoneId) public {\r\n        require(_projectId > 0 && _projectId <= projectCount, \"Project does not exist\");\r\n        require(msg.sender == projects[_projectId].employer, \"Only the employer can mark milestones as completed\");\r\n\r\n        Milestone[] storage projectMilestones = milestones[_projectId];\r\n        bool found = false;\r\n\r\n        for (uint i = 0; i < projectMilestones.length; i++) {\r\n            if (projectMilestones[i].id == _milestoneId) {\r\n                projectMilestones[i].status = MilestoneStatus.Completed;\r\n                found = true;\r\n                break;\r\n            }\r\n        }\r\n\r\n        require(found, \"Milestone does not exist in this project\");\r\n    }\r\n}\r\n",
  "sourcePath": "D:\\Maj_proj\\Lance-With-quote\\contracts\\Projects.sol",
  "compiler": {
    "name": "solc",
    "version": "0.8.35+commit.47b9dedd.Emscripten.clang"
  },
  "schemaVersion": "3.4.16",
  "updatedAt": "2026-05-02T18:47:33.886Z",
  "networkType": "ethereum",
  "devdoc": {
    "kind": "dev",
    "methods": {},
    "version": 1
  },
  "userdoc": {
    "kind": "user",
    "methods": {},
    "version": 1
  }
}