{
  "contractName": "RequestManager",
  "abi": [
    {
      "inputs": [
        {
          "internalType": "address",
          "name": "_projectsContract",
          "type": "address"
        }
      ],
      "stateMutability": "nonpayable",
      "type": "constructor"
    },
    {
      "anonymous": false,
      "inputs": [
        {
          "indexed": false,
          "internalType": "uint256",
          "name": "projectId",
          "type": "uint256"
        },
        {
          "indexed": false,
          "internalType": "uint256",
          "name": "newAmount",
          "type": "uint256"
        }
      ],
      "name": "QuotationAccepted",
      "type": "event"
    },
    {
      "anonymous": false,
      "inputs": [
        {
          "indexed": false,
          "internalType": "uint256",
          "name": "projectId",
          "type": "uint256"
        },
        {
          "indexed": false,
          "internalType": "address",
          "name": "proposedBy",
          "type": "address"
        },
        {
          "indexed": false,
          "internalType": "uint256",
          "name": "amount",
          "type": "uint256"
        },
        {
          "indexed": false,
          "internalType": "string",
          "name": "notes",
          "type": "string"
        }
      ],
      "name": "QuotationCounterProposed",
      "type": "event"
    },
    {
      "anonymous": false,
      "inputs": [
        {
          "indexed": false,
          "internalType": "uint256",
          "name": "projectId",
          "type": "uint256"
        },
        {
          "indexed": false,
          "internalType": "address",
          "name": "proposedBy",
          "type": "address"
        },
        {
          "indexed": false,
          "internalType": "uint256",
          "name": "amount",
          "type": "uint256"
        }
      ],
      "name": "QuotationProposed",
      "type": "event"
    },
    {
      "anonymous": false,
      "inputs": [
        {
          "indexed": false,
          "internalType": "uint256",
          "name": "projectId",
          "type": "uint256"
        }
      ],
      "name": "QuotationRejected",
      "type": "event"
    },
    {
      "anonymous": false,
      "inputs": [
        {
          "indexed": false,
          "internalType": "uint256",
          "name": "projectId",
          "type": "uint256"
        },
        {
          "indexed": false,
          "internalType": "address",
          "name": "freelancer",
          "type": "address"
        },
        {
          "indexed": false,
          "internalType": "address",
          "name": "escrowContract",
          "type": "address"
        }
      ],
      "name": "RequestAccepted",
      "type": "event"
    },
    {
      "anonymous": false,
      "inputs": [
        {
          "indexed": false,
          "internalType": "uint256",
          "name": "projectId",
          "type": "uint256"
        },
        {
          "indexed": false,
          "internalType": "address",
          "name": "freelancer",
          "type": "address"
        }
      ],
      "name": "RequestRejected",
      "type": "event"
    },
    {
      "anonymous": false,
      "inputs": [
        {
          "indexed": false,
          "internalType": "uint256",
          "name": "projectId",
          "type": "uint256"
        },
        {
          "indexed": false,
          "internalType": "address",
          "name": "freelancer",
          "type": "address"
        }
      ],
      "name": "RequestSent",
      "type": "event"
    },
    {
      "inputs": [
        {
          "internalType": "uint256",
          "name": "",
          "type": "uint256"
        }
      ],
      "name": "assignedFreelancer",
      "outputs": [
        {
          "internalType": "address",
          "name": "",
          "type": "address"
        }
      ],
      "stateMutability": "view",
      "type": "function",
      "constant": true
    },
    {
      "inputs": [],
      "name": "projectsContract",
      "outputs": [
        {
          "internalType": "contract Projects",
          "name": "",
          "type": "address"
        }
      ],
      "stateMutability": "view",
      "type": "function",
      "constant": true
    },
    {
      "inputs": [
        {
          "internalType": "uint256",
          "name": "",
          "type": "uint256"
        },
        {
          "internalType": "uint256",
          "name": "",
          "type": "uint256"
        }
      ],
      "name": "quotations",
      "outputs": [
        {
          "internalType": "uint256",
          "name": "projectId",
          "type": "uint256"
        },
        {
          "internalType": "address",
          "name": "proposedBy",
          "type": "address"
        },
        {
          "internalType": "uint256",
          "name": "proposedAmount",
          "type": "uint256"
        },
        {
          "internalType": "string",
          "name": "description",
          "type": "string"
        },
        {
          "internalType": "string",
          "name": "negotiationNotes",
          "type": "string"
        },
        {
          "internalType": "enum RequestManager.QuotationStatus",
          "name": "status",
          "type": "uint8"
        },
        {
          "internalType": "uint256",
          "name": "timestamp",
          "type": "uint256"
        }
      ],
      "stateMutability": "view",
      "type": "function",
      "constant": true
    },
    {
      "inputs": [
        {
          "internalType": "uint256",
          "name": "",
          "type": "uint256"
        }
      ],
      "name": "requests",
      "outputs": [
        {
          "internalType": "uint256",
          "name": "projectId",
          "type": "uint256"
        },
        {
          "internalType": "address",
          "name": "freelancer",
          "type": "address"
        },
        {
          "internalType": "uint256",
          "name": "freelancerRating",
          "type": "uint256"
        },
        {
          "internalType": "enum RequestManager.RequestStatus",
          "name": "status",
          "type": "uint8"
        },
        {
          "internalType": "contract Escrow",
          "name": "escrowContract",
          "type": "address"
        }
      ],
      "stateMutability": "view",
      "type": "function",
      "constant": true
    },
    {
      "inputs": [
        {
          "internalType": "uint256",
          "name": "_projectId",
          "type": "uint256"
        },
        {
          "internalType": "uint256",
          "name": "_freelancerRating",
          "type": "uint256"
        }
      ],
      "name": "sendRequest",
      "outputs": [],
      "stateMutability": "nonpayable",
      "type": "function"
    },
    {
      "inputs": [
        {
          "internalType": "uint256",
          "name": "_projectId",
          "type": "uint256"
        }
      ],
      "name": "acceptRequest",
      "outputs": [],
      "stateMutability": "payable",
      "type": "function",
      "payable": true
    },
    {
      "inputs": [
        {
          "internalType": "uint256",
          "name": "_projectId",
          "type": "uint256"
        }
      ],
      "name": "rejectRequest",
      "outputs": [],
      "stateMutability": "nonpayable",
      "type": "function"
    },
    {
      "inputs": [
        {
          "internalType": "uint256",
          "name": "_projectId",
          "type": "uint256"
        },
        {
          "internalType": "uint256",
          "name": "_proposedAmount",
          "type": "uint256"
        },
        {
          "internalType": "string",
          "name": "_description",
          "type": "string"
        }
      ],
      "name": "proposeQuotation",
      "outputs": [],
      "stateMutability": "nonpayable",
      "type": "function"
    },
    {
      "inputs": [
        {
          "internalType": "uint256",
          "name": "_projectId",
          "type": "uint256"
        },
        {
          "internalType": "uint256",
          "name": "_newAmount",
          "type": "uint256"
        },
        {
          "internalType": "string",
          "name": "_notes",
          "type": "string"
        }
      ],
      "name": "counterPropose",
      "outputs": [],
      "stateMutability": "nonpayable",
      "type": "function"
    },
    {
      "inputs": [
        {
          "internalType": "uint256",
          "name": "_projectId",
          "type": "uint256"
        },
        {
          "internalType": "uint256",
          "name": "_quotationIndex",
          "type": "uint256"
        }
      ],
      "name": "acceptQuotation",
      "outputs": [],
      "stateMutability": "payable",
      "type": "function",
      "payable": true
    },
    {
      "inputs": [
        {
          "internalType": "uint256",
          "name": "_projectId",
          "type": "uint256"
        },
        {
          "internalType": "uint256",
          "name": "_quotationIndex",
          "type": "uint256"
        }
      ],
      "name": "rejectQuotation",
      "outputs": [],
      "stateMutability": "nonpayable",
      "type": "function"
    },
    {
      "inputs": [
        {
          "internalType": "uint256",
          "name": "_projectId",
          "type": "uint256"
        }
      ],
      "name": "getQuotations",
      "outputs": [
        {
          "components": [
            {
              "internalType": "uint256",
              "name": "projectId",
              "type": "uint256"
            },
            {
              "internalType": "address",
              "name": "proposedBy",
              "type": "address"
            },
            {
              "internalType": "uint256",
              "name": "proposedAmount",
              "type": "uint256"
            },
            {
              "internalType": "string",
              "name": "description",
              "type": "string"
            },
            {
              "internalType": "string",
              "name": "negotiationNotes",
              "type": "string"
            },
            {
              "internalType": "enum RequestManager.QuotationStatus",
              "name": "status",
              "type": "uint8"
            },
            {
              "internalType": "uint256",
              "name": "timestamp",
              "type": "uint256"
            }
          ],
          "internalType": "struct RequestManager.Quotation[]",
          "name": "",
          "type": "tuple[]"
        }
      ],
      "stateMutability": "view",
      "type": "function",
      "constant": true
    },
    {
      "inputs": [
        {
          "internalType": "uint256",
          "name": "_projectId",
          "type": "uint256"
        }
      ],
      "name": "getLatestQuotation",
      "outputs": [
        {
          "components": [
            {
              "internalType": "uint256",
              "name": "projectId",
              "type": "uint256"
            },
            {
              "internalType": "address",
              "name": "proposedBy",
              "type": "address"
            },
            {
              "internalType": "uint256",
              "name": "proposedAmount",
              "type": "uint256"
            },
            {
              "internalType": "string",
              "name": "description",
              "type": "string"
            },
            {
              "internalType": "string",
              "name": "negotiationNotes",
              "type": "string"
            },
            {
              "internalType": "enum RequestManager.QuotationStatus",
              "name": "status",
              "type": "uint8"
            },
            {
              "internalType": "uint256",
              "name": "timestamp",
              "type": "uint256"
            }
          ],
          "internalType": "struct RequestManager.Quotation",
          "name": "",
          "type": "tuple"
        }
      ],
      "stateMutability": "view",
      "type": "function",
      "constant": true
    },
    {
      "inputs": [
        {
          "internalType": "uint256",
          "name": "_projectId",
          "type": "uint256"
        }
      ],
      "name": "isProjectAssigned",
      "outputs": [
        {
          "internalType": "bool",
          "name": "",
          "type": "bool"
        }
      ],
      "stateMutability": "view",
      "type": "function",
      "constant": true
    },
    {
      "inputs": [
        {
          "internalType": "uint256",
          "name": "_projectId",
          "type": "uint256"
        }
      ],
      "name": "getRequest",
      "outputs": [
        {
          "components": [
            {
              "internalType": "uint256",
              "name": "projectId",
              "type": "uint256"
            },
            {
              "internalType": "address",
              "name": "freelancer",
              "type": "address"
            },
            {
              "internalType": "uint256",
              "name": "freelancerRating",
              "type": "uint256"
            },
            {
              "internalType": "enum RequestManager.RequestStatus",
              "name": "status",
              "type": "uint8"
            },
            {
              "internalType": "contract Escrow",
              "name": "escrowContract",
              "type": "address"
            }
          ],
          "internalType": "struct RequestManager.Request",
          "name": "",
          "type": "tuple"
        }
      ],
      "stateMutability": "view",
      "type": "function",
      "constant": true
    }
  ],
  "bytecode": "0x6080346070576126a380380390601f19601f83011683019183831067ffffffffffffffff84111760755780849260209460405283398101031260705751600160a060020a0381169081900360705760008054600160a060020a0319169190911790556040516125fe90816100a58239f35b600080fd5b7f4e487b7100000000000000000000000000000000000000000000000000000000600052604160045260246000fdfe608080604052600436101561001357600080fd5b7c0100000000000000000000000000000000000000000000000000000000600035049081631301586c14611a235750806322a7fd07146119ee5780632d7788db1461183757806339028dec1461132157806341ff9d1114610f4f5780634ba1f09814610ca45780634bd335b814610c7d5780634c2fb25514610bc25780637d9effef1461067a57806381d12c581461060d57806383f5f230146105d6578063857b5548146104d657806397302bc8146103d0578063b3db5c94146101d65763c58343ef146100e057600080fd5b346101d15760203660031901126101d1576000608060405161010181611c47565b82815282602082015282604082015282606082015201526004356000526001602052604060002060405161013481611c47565b81548152600160a060020a0360018301541660208201908152600360028401549360408401948552015460ff8116916060840160038410156101b85760a095600160a060020a036101af93819684528161010060808a0197041686526040519751885251166020870152516040860152516060850190611e7d565b51166080820152f35b60e060020a634e487b7102600052602160045260246000fd5b600080fd5b346101d1576101e436611c15565b908015158061035d575b6101f790611ef8565b60246000600160a060020a038154166040519283809260e360020a631e1e7e590282528660048301525afa90811561035157600091610327575b5060028110156101b8576001610247911461206a565b6040519061025482611c47565b8082526003602083019233845260408101948552606081019460008652600160a060020a036080830195600087528560005260016020526040600020935184555116600160a060020a03600184019116600160a060020a03198254161790555160028201550192519160038310156101b8577f48b98ad7a8a8dbe21cc82bf98710ad4d2cdd949ccac393692e4d9a1722c162c793600160a060020a0361030c926103229560ff80198554169116178355511690612216565b6040805191825233602083015290918291820190565b0390a1005b61034491503d806000833e61033c8183611c63565b810190611fed565b5050935050505083610231565b6040513d6000823e3d90fd5b5060046020600160a060020a03600054166040519283809260e160020a631b7dd6930282525afa80156103515760009061039c575b82111590506101ee565b506020813d6020116103c8575b816103b660209383611c63565b810103126101d1576101f79051610392565b3d91506103a9565b346101d15760203660031901126101d157600435600060c06040516103f481611c2b565b828152826020820152826040820152606080820152606060808201528260a082015201528060005260026020526040600020541561048f576000908152600260205260409020805460001981019081116104765761045861045e9161047293611d12565b5061225c565b604051918291602083526020830190611e8a565b0390f35b60e060020a634e487b7102600052601160045260246000fd5b606460405160e560020a62461bcd02815260206004820152601e60248201527f4e6f2071756f746174696f6e7320666f7220746869732070726f6a65637400006044820152fd5b346101d15760203660031901126101d1576004356000526002602052604060002080549067ffffffffffffffff82116105bd576040519161051c60208083020184611c63565b80835260208301809260005260206000206000915b83831061059f57848660405191829160208301906020845251809152604083019060406020820285010192916000905b82821061057057505050500390f35b9193600191939550602061058f8192603f198a82030186528851611e8a565b9601920192018594939192610561565b600760206001926105af8561225c565b815201920192019190610531565b60e060020a634e487b7102600052604160045260246000fd5b346101d15760203660031901126101d15760043560005260036020526020600160a060020a03604060002054161515604051908152f35b346101d15760203660031901126101d157600435600052600160205260a06040600020600160a060020a0361010082549282600182015416906003600282015491015491604051958652602086015260408501526106716060850160ff8316611e7d565b04166080820152f35b346101d15761068836611ca1565b909180151580610b4f575b61069c90611ef8565b6106a78315156121c8565b815115610b085760246000600160a060020a038154166040519283809260e360020a631e1e7e590282528660048301525afa90811561035157600091610ae6575b5060028110156101b857600103610a79576040519261070684611c2b565b8184526020840192338452604085019382855260608601918252602091604051906107318483611c63565b600082526080880191825260a08801966001885260c0890198428a52876000526002865260406000208054680100000000000000008110156105bd5761077c91600182018155611d12565b959095610a6057600160a060020a03915186555116600160a060020a03600186019116600160a060020a031982541617905551600284015560038301905180519067ffffffffffffffff82116105bd576107d68354611d47565b601f8111610a0e575b50818691601f82116001146109a25761080d9260009183610997575b50509060080260020a60001904191690565b906002021790555b518051600483019167ffffffffffffffff82116105bd576108368354611d47565b601f8111610945575b50818591601f82116001146108d95761086c92600091836108ce5750509060080260020a60001904191690565b906002021790555b60058101945160058110156101b8577faf24b5c95c71d4afa309bff2d28e48f37eb326d372f70e7020680835383f3fde9660609660069260ff801983541691161790555191015560405192835233908301526040820152a1005b015190508b806107fb565b9050601f1983169184600052866000209260005b8882821061092f5750509160029391856001969410610913575b50505002019055610874565b01516008601f84160260020a60001904191690558a8080610907565b60018496829395870151815501950192016108ed565b8281111561083f5783600052856000208680601f8601049181861061098e575b82601f9101930104039060005b82811061098057505061083f565b600082820155600101610972565b60009250610965565b015190508c806107fb565b9050601f1983169184600052876000209260005b898282106109f857505091600293918560019694106109dc575b50505002019055610815565b01516008601f84160260020a60001904191690558b80806109d0565b60018496829395870151815501950192016109b6565b828111156107df5783600052866000208780601f86010491818610610a57575b82601f9101930104039060005b828110610a495750506107df565b600082820155600101610a3b565b60009250610a2e565b60e060020a634e487b7102600052600060045260246000fd5b608460405160e560020a62461bcd02815260206004820152602260248201527f50726f6a656374206973206e6f74206f70656e20666f722071756f746174696f60448201527f6e730000000000000000000000000000000000000000000000000000000000006064820152fd5b610afb91503d806000833e61033c8183611c63565b50509350505050846106e8565b606460405160e560020a62461bcd02815260206004820152601b60248201527f4465736372697074696f6e2063616e6e6f7420626520656d70747900000000006044820152fd5b5060046020600160a060020a03600054166040519283809260e160020a631b7dd6930282525afa801561035157600090610b8e575b8211159050610693565b506020813d602011610bba575b81610ba860209383611c63565b810103126101d15761069c9051610b84565b3d9150610b9b565b346101d157610bd036611c15565b90600052600260205260406000209081548110156101d157610bf191611d12565b508054600160a060020a03600183015416916002810154610c74610c69610c1a60038501611d85565b610c5b610c2960048701611d85565b91600660ff60058901541697015495604051998a998a5260208a0152604089015260e0606089015260e0880190611e4b565b908682036080880152611e4b565b9260a0850190611e70565b60c08301520390f35b346101d15760003660031901126101d1576020600160a060020a0360005416604051908152f35b60203660031901126101d157600435806000526001602052610cd8600160a060020a036001604060002001541615156120b8565b80600052600160205260ff6003604060002001541660038110156101b857610d00901561212c565b60246000600160a060020a038154166040519283809260e360020a631e1e7e590282528660048301525afa80156103515760009182908392610f2b575b5060028110156101b8576001610d53911461217a565b600160a060020a0381163303610ebe57813403610e7757826000526001602052600160a060020a0360016040600020015416604051916102f78084019184831067ffffffffffffffff8411176105bd578493610dd19387936122d28739600160a060020a036040929594938160608401971683521660208201520152565b0391f080156103515781600160a060020a036060927fac8064fea85b95641f19e230ba9da498102d474473fe4b103466cb224daf5e01946000526001602052610e21816003604060002001612216565b60008381526001602081815260408084206003818101805460ff191686179055908401805491845294829020805488191691881691909117905591815291548151958652841691850191909152911690820152a1005b606460405160e560020a62461bcd02815260206004820152601c60248201527f496e636f72726563742072657761726420616d6f756e742073656e74000000006044820152fd5b608460405160e560020a62461bcd02815260206004820152602960248201527f4f6e6c792074686520656d706c6f7965722063616e206163636570742074686960448201527f73207265717565737400000000000000000000000000000000000000000000006064820152fd5b915050610f41913d8091833e61033c8183611c63565b509350935090509184610d3d565b610f5836611c15565b9080151591826112a9575b610f6e602493611ef8565b816000526002602052610f876040600020548210611f46565b6000600160a060020a038154166040519485809260e360020a631e1e7e590282528660048301525afa92831561035157600090600094611283575b5060028110156101b8576001610fd8911461206a565b600160a060020a038316330361121657610fff908260005260026020526040600020611d12565b5091600583019260ff84541660058110156101b8576001811490811561120b575b50156111c457600201928354340361115757600360ff19825416179055825490826000526001602052600160a060020a0360016040600020015416604051916102f78084019184831067ffffffffffffffff8411176105bd5784936110a79387936122d28739600160a060020a036040929594938160608401971683521660208201520152565b0391f0908115610351577f30981c9cd8c9ae5e869821a79087b12d5bd6fc4aeaabf85fbf091cfff2f36797926110ee60409383600052600160205260038560002001612216565b81600052600160205260038360002001600160ff19825416179055816000526001602052600160a060020a03600184600020015416826000526003602052600160a060020a03846000209116600160a060020a03198254161790555482519182526020820152a1005b608460405160e560020a62461bcd02815260206004820152602660248201527f53656e7420616d6f756e74206d757374206d617463682070726f706f7365642060448201527f616d6f756e7400000000000000000000000000000000000000000000000000006064820152fd5b606460405160e560020a62461bcd02815260206004820152601c60248201527f51756f746174696f6e2063616e6e6f74206265206163636570746564000000006044820152fd5b600291501485611020565b608460405160e560020a62461bcd02815260206004820152602260248201527f4f6e6c7920656d706c6f7965722063616e206163636570742071756f7461746960448201527f6f6e0000000000000000000000000000000000000000000000000000000000006064820152fd5b905061129b9193503d806000833e61033c8183611c63565b509694509250505084610fc2565b600492506020600160a060020a03600054166040519485809260e160020a631b7dd6930282525afa928315610351576000936112eb575b509181111591610f63565b92506020833d602011611319575b8161130660209383611c63565b810103126101d157915191610f6e6112e0565b3d91506112f9565b346101d15761132f36611ca1565b91801515806117c4575b61134290611ef8565b61134d8215156121c8565b806000526002602052604060002054156117585760246000600160a060020a038154166040519283809260e360020a631e1e7e590282528660048301525afa90811561035157600090600092611734575b5060028110156101b8576001036116c757816000526002602052604060002080546000198101908111610476576113d491611d12565b5090600160a060020a03600183015416836000526001602052600160a060020a03600160406000200154161460001461163057600160a060020a031633036115c3576004905b60058101600260ff1982541617905583600282015501835167ffffffffffffffff81116105bd5761144b8254611d47565b601f811161156d575b506020601f82116001146114df5791816114a8817f7041399863d3c4321ae1532f5491889c4d2d545fe190c428f5fd525f5b68c5af9894610322966000916114d4575b509060080260020a60001904191690565b906002021790555b60405193849384523360208501526040840152608060608401526080830190611e4b565b90508501518a611497565b601f1982169083600052806000209160005b81811061155557508361032295936001937f7041399863d3c4321ae1532f5491889c4d2d545fe190c428f5fd525f5b68c5af9a9660029410611539575b5050020190556114b0565b8601516008601f84160260020a6000190419169055898061152e565b9192602060018192868c0151815501940192016114f1565b81811115611454578260005260206000206020601f84010490602084106115ba575b601f8260209201930104039060005b8281106115ac575050611454565b60008282015560010161159e565b6000915061158f565b608460405160e560020a62461bcd02815260206004820152603860248201527f4f6e6c7920656d706c6f7965722063616e20636f756e7465722d6f666665722060448201527f6f6e20667265656c616e63657227732070726f706f73616c00000000000000006064820152fd5b50816000526001602052600160a060020a0360016040600020015416330361165a5760049061141a565b608460405160e560020a62461bcd02815260206004820152603860248201527f4f6e6c7920667265656c616e6365722063616e20636f756e7465722d6f66666560448201527f72206f6e20656d706c6f79657227732070726f706f73616c00000000000000006064820152fd5b608460405160e560020a62461bcd02815260206004820152602360248201527f50726f6a656374206973206e6f74206f70656e20666f72206e65676f7469617460448201527f696f6e00000000000000000000000000000000000000000000000000000000006064820152fd5b905061174b91503d806000833e61033c8183611c63565b509450925050508561139e565b608460405160e560020a62461bcd028152602060048201526024808201527f4e6f2071756f746174696f6e7320657869737420666f7220746869732070726f60448201527f6a656374000000000000000000000000000000000000000000000000000000006064820152fd5b5060046020600160a060020a03600054166040519283809260e160020a631b7dd6930282525afa801561035157600090611803575b8211159050611339565b506020813d60201161182f575b8161181d60209383611c63565b810103126101d15761134290516117f9565b3d9150611810565b346101d15760203660031901126101d157600435806000526001602052611870600160a060020a036001604060002001541615156120b8565b80600052600160205260ff6003604060002001541660038110156101b857611898901561212c565b60246000600160a060020a038154166040519283809260e360020a631e1e7e590282528660048301525afa8015610351576000916000916119c9575b5060028210156101b8576118f26001600160a060020a03931461217a565b16330361195c5760008181526001602081815260409283902060038101805460ff19166002179055909101548251938452600160a060020a0316908301527f490ad67e4c8b3b9c1d11dfcd7f02e155190b8f6feff3a9d9e9df3721f0f74e57919081908101610322565b608460405160e560020a62461bcd02815260206004820152602960248201527f4f6e6c792074686520656d706c6f7965722063616e2072656a6563742074686960448201527f73207265717565737400000000000000000000000000000000000000000000006064820152fd5b90506119e091503d806000833e61033c8183611c63565b5094509250505090836118d4565b346101d15760203660031901126101d15760043560005260036020526020600160a060020a0360406000205416604051908152f35b346101d157611a3136611c15565b909182151580611ba4575b611a469150611ef8565b816000526002602052611a5f6040600020548210611f46565b60246000600160a060020a038154166040519283809260e360020a631e1e7e590282528760048301525afa801561035157600091600091611b7f575b5060028210156101b857611ab96001600160a060020a03931461206a565b163303611b1257816005611afc6020937f6ba13ccf38e1630058b978f3457e3c065946df004bbd348544427653ab81f68b95600052600285526040600020611d12565b5001805460ff19166004179055604051908152a1005b608460405160e560020a62461bcd02815260206004820152602260248201527f4f6e6c7920656d706c6f7965722063616e2072656a6563742071756f7461746960448201527f6f6e0000000000000000000000000000000000000000000000000000000000006064820152fd5b9050611b9691503d806000833e61033c8183611c63565b509450925050509084611a9b565b50602081600481600160a060020a036000541660e160020a631b7dd6930282525afa801561035157600090611be1575b611a469150831115611a3c565b506020813d602011611c0d575b81611bfb60209383611c63565b810103126101d157611a469051611bd4565b3d9150611bee565b60409060031901126101d1576004359060243590565b60e0810190811067ffffffffffffffff8211176105bd57604052565b60a0810190811067ffffffffffffffff8211176105bd57604052565b90601f8019910116810190811067ffffffffffffffff8211176105bd57604052565b67ffffffffffffffff81116105bd57601f01601f191660200190565b60606003198201126101d157600435916024359160443567ffffffffffffffff81116101d157816023820112156101d157806004013590611ce182611c85565b92611cef6040519485611c63565b828452602483830101116101d15781600092602460209301838601378301015290565b8054821015611d2e576000526007602060002091020190600090565b60e060020a634e487b7102600052603260045260246000fd5b9060016002830492168015611d7b575b6020831014611d6257565b60e060020a634e487b7102600052602260045260246000fd5b91607f1691611d57565b9060405191826000825492611d9984611d47565b8084529360018116908115611e075750600114611dc0575b50611dbe92500383611c63565b565b90506000929192526020600020906000915b818310611deb575050906020611dbe9282010138611db1565b6020919350806001915483858901015201910190918492611dd2565b905060209250611dbe94915060ff1916828401521515810282010138611db1565b60005b838110611e3b5750506000910152565b8181015183820152602001611e2b565b90602091611e6481518092818552858086019101611e28565b601f01601f1916010190565b9060058210156101b85752565b9060038210156101b85752565b9081518152600160a060020a0360208301511660208201526040820151604082015260c080611edd611ecb606086015160e0606087015260e0860190611e4b565b60808601518582036080870152611e4b565b93611ef060a082015160a0860190611e70565b015191015290565b15611eff57565b606460405160e560020a62461bcd02815260206004820152601260248201527f496e76616c69642070726f6a65637420494400000000000000000000000000006044820152fd5b15611f4d57565b606460405160e560020a62461bcd02815260206004820152601760248201527f496e76616c69642071756f746174696f6e20696e6465780000000000000000006044820152fd5b81601f820112156101d1578051611faa81611c85565b92611fb86040519485611c63565b818452602082840101116101d157611fd69160208085019101611e28565b90565b5190600160a060020a03821682036101d157565b9160e0838303126101d157825192602081015167ffffffffffffffff81116101d1578361201b918301611f94565b9260408201519067ffffffffffffffff82116101d15761203c918301611f94565b91606082015191608081015160028110156101d15791611fd660c061206360a08501611fd9565b9301611fd9565b1561207157565b606460405160e560020a62461bcd02815260206004820152601360248201527f50726f6a656374206973206e6f74206f70656e000000000000000000000000006044820152fd5b156120bf57565b608460405160e560020a62461bcd02815260206004820152602260248201527f4e6f20726571756573742065786973747320666f7220746869732070726f6a6560448201527f63740000000000000000000000000000000000000000000000000000000000006064820152fd5b1561213357565b606460405160e560020a62461bcd02815260206004820152601960248201527f5265717565737420616c72656164792070726f636573736564000000000000006044820152fd5b1561218157565b606460405160e560020a62461bcd02815260206004820152601460248201527f50726f6a656374206d757374206265206f70656e0000000000000000000000006044820152fd5b156121cf57565b606460405160e560020a62461bcd02815260206004820152601d60248201527f416d6f756e74206d7573742062652067726561746572207468616e20300000006044820152fd5b9074ffffffffffffffffffffffffffffffffffffffff00610100600160a060020a038454931602169074ffffffffffffffffffffffffffffffffffffffff001916179055565b9060405161226981611c2b565b809280548252600160a060020a0360018201541660208301526002810154604083015261229860038201611d85565b60608301526122a960048201611d85565b608083015260ff60058201541660058110156101b85760c09160069160a0850152015491015256fe60806102f780380390601f19601f83011683019183831067ffffffffffffffff841117609457808492606094604052833981010312608f57603e8160c3565b906040604b6020830160c3565b91015160008054600160a060020a03948516600160a060020a0319918216179091556001805494909316931692909217905560025560405161022090816100d78239f35b600080fd5b7f4e487b7100000000000000000000000000000000000000000000000000000000600052604160045260246000fd5b5190600160a060020a0382168203608f5756fe608080604052600436101561001357600080fd5b7c01000000000000000000000000000000000000000000000000000000006000350490816369d89575146100f257508063a37dda2c146100be578063aa8c217c146100a05763ae200e791461006757600080fd5b3461009b57600036600319011261009b57602073ffffffffffffffffffffffffffffffffffffffff60015416604051908152f35b600080fd5b3461009b57600036600319011261009b576020600254604051908152f35b3461009b57600036600319011261009b57602073ffffffffffffffffffffffffffffffffffffffff60005416604051908152f35b3461009b57600036600319011261009b5773ffffffffffffffffffffffffffffffffffffffff60015416330361016857600080808073ffffffffffffffffffffffffffffffffffffffff8154166002549082821561015f575bf11561015357005b6040513d6000823e3d90fd5b506108fc61014b565b807f08c379a0000000000000000000000000000000000000000000000000000000006084925260206004820152602360248201527f4f6e6c792074686520656d706c6f7965722063616e2072656c6561736520667560448201527f6e647300000000000000000000000000000000000000000000000000000000006064820152fdfea2646970667358221220ac9f8d6cd88bc7483ba1ed8d2807ef29367ff2ba83e797ef5d7fa4738963cef364736f6c63430008230033a2646970667358221220d4ce33fa084fe46b8562dbebffdc57c742b4cf4beac12477e4e57276c981bfd364736f6c63430008230033",
  "immutableReferences": {},
  "source": "// SPDX-License-Identifier: MIT\r\npragma solidity ^0.8.0;\r\n\r\nimport \"./Projects.sol\";\r\n\r\ncontract Escrow {\r\n    address public freelancer;\r\n    address public employer;\r\n    uint public amount;\r\n\r\n    constructor(address _freelancer, address _employer, uint _amount) payable {\r\n        freelancer = _freelancer;\r\n        employer = _employer;\r\n        amount = _amount;\r\n    }\r\n\r\n    function releaseFunds() external {\r\n        require(msg.sender == employer, \"Only the employer can release funds\");\r\n        payable(freelancer).transfer(amount);\r\n    }\r\n}\r\n\r\ncontract RequestManager {\r\n\r\n    Projects public projectsContract;\r\n\r\n    enum RequestStatus { Pending, Accepted, Rejected }\r\n    enum QuotationStatus { Pending, Proposed, Negotiating, Accepted, Rejected }\r\n\r\n    struct Request {\r\n        uint projectId;\r\n        address freelancer;\r\n        uint freelancerRating;\r\n        RequestStatus status;\r\n        Escrow escrowContract;\r\n    }\r\n\r\n    struct Quotation {\r\n        uint projectId;\r\n        address proposedBy; // freelancer or employer address\r\n        uint proposedAmount;\r\n        string description;\r\n        string negotiationNotes;\r\n        QuotationStatus status;\r\n        uint timestamp;\r\n    }\r\n\r\n    mapping(uint => Request) public requests;\r\n    mapping(uint => Quotation[]) public quotations; // projectId => array of quotations\r\n    mapping(uint => address) public assignedFreelancer; // projectId => freelancer address (for quick lookup)\r\n\r\n    event RequestSent(uint projectId, address freelancer);\r\n    event RequestAccepted(uint projectId, address freelancer, address escrowContract);\r\n    event RequestRejected(uint projectId, address freelancer);\r\n    event QuotationProposed(uint projectId, address proposedBy, uint amount);\r\n    event QuotationCounterProposed(uint projectId, address proposedBy, uint amount, string notes);\r\n    event QuotationAccepted(uint projectId, uint newAmount);\r\n    event QuotationRejected(uint projectId);\r\n\r\n    constructor(address _projectsContract) {\r\n        projectsContract = Projects(_projectsContract);\r\n    }\r\n\r\n    function sendRequest(uint _projectId, uint _freelancerRating) public {\r\n        require(_projectId > 0 && _projectId <= projectsContract.projectCount(), \"Invalid project ID\");\r\n        (,, , , Projects.Status status, , ) = projectsContract.getProject(_projectId);\r\n        require(status == Projects.Status.Open, \"Project is not open\");\r\n\r\n        requests[_projectId] = Request({\r\n            projectId: _projectId,\r\n            freelancer: msg.sender,\r\n            freelancerRating: _freelancerRating,\r\n            status: RequestStatus.Pending,\r\n            escrowContract: Escrow(address(0))\r\n        });\r\n\r\n        emit RequestSent(_projectId, msg.sender);\r\n    }\r\n\r\n    function acceptRequest(uint _projectId) public payable {\r\n        require(requests[_projectId].freelancer != address(0), \"No request exists for this project\");\r\n        require(requests[_projectId].status == RequestStatus.Pending, \"Request already processed\");\r\n\r\n        (, , , uint reward, Projects.Status status, address employer, ) = projectsContract.getProject(_projectId);\r\n        require(status == Projects.Status.Open, \"Project must be open\");\r\n        require(msg.sender == employer, \"Only the employer can accept this request\");\r\n        require(msg.value == reward, \"Incorrect reward amount sent\");\r\n\r\n        // Create new escrow contract instance with freelancer and employer details\r\n        Escrow escrow = new Escrow{value: reward}(requests[_projectId].freelancer, employer, reward);\r\n        requests[_projectId].escrowContract = escrow;\r\n\r\n        requests[_projectId].status = RequestStatus.Accepted;\r\n        \r\n        // Mark freelancer as assigned\r\n        assignedFreelancer[_projectId] = requests[_projectId].freelancer;\r\n        \r\n        // NOTE: Removed projectsContract.closeProject() call due to authorization issues\r\n        // The project status should be managed separately or the contract should be redesigned\r\n        \r\n        emit RequestAccepted(_projectId, requests[_projectId].freelancer, address(escrow));\r\n    }\r\n\r\n    function rejectRequest(uint _projectId) public {\r\n        require(requests[_projectId].freelancer != address(0), \"No request exists for this project\");\r\n        require(requests[_projectId].status == RequestStatus.Pending, \"Request already processed\");\r\n\r\n        (, , , , Projects.Status status, address employer, ) = projectsContract.getProject(_projectId);\r\n        require(status == Projects.Status.Open, \"Project must be open\");\r\n        require(msg.sender == employer, \"Only the employer can reject this request\");\r\n\r\n        requests[_projectId].status = RequestStatus.Rejected;\r\n        emit RequestRejected(_projectId, requests[_projectId].freelancer);\r\n    }\r\n\r\n    function proposeQuotation(uint _projectId, uint _proposedAmount, string memory _description) public {\r\n        require(_projectId > 0 && _projectId <= projectsContract.projectCount(), \"Invalid project ID\");\r\n        require(_proposedAmount > 0, \"Amount must be greater than 0\");\r\n        require(bytes(_description).length > 0, \"Description cannot be empty\");\r\n        \r\n        (,,,, Projects.Status status, address employer, ) = projectsContract.getProject(_projectId);\r\n        require(status == Projects.Status.Open, \"Project is not open for quotations\");\r\n        \r\n        // New workflow: Any freelancer can propose, employer can counter-offer\r\n        // Removed restriction on who can propose since system now allows direct proposals\r\n\r\n        Quotation memory newQuotation = Quotation({\r\n            projectId: _projectId,\r\n            proposedBy: msg.sender,\r\n            proposedAmount: _proposedAmount,\r\n            description: _description,\r\n            negotiationNotes: \"\",\r\n            status: QuotationStatus.Proposed,\r\n            timestamp: block.timestamp\r\n        });\r\n\r\n        quotations[_projectId].push(newQuotation);\r\n        emit QuotationProposed(_projectId, msg.sender, _proposedAmount);\r\n    }\r\n\r\n    function counterPropose(uint _projectId, uint _newAmount, string memory _notes) public {\r\n        require(_projectId > 0 && _projectId <= projectsContract.projectCount(), \"Invalid project ID\");\r\n        require(_newAmount > 0, \"Amount must be greater than 0\");\r\n        require(quotations[_projectId].length > 0, \"No quotations exist for this project\");\r\n        \r\n        (,,,uint reward, Projects.Status status, address employer, ) = projectsContract.getProject(_projectId);\r\n        require(status == Projects.Status.Open, \"Project is not open for negotiation\");\r\n        \r\n        Quotation[] storage projQuotations = quotations[_projectId];\r\n        uint lastIdx = projQuotations.length - 1;\r\n        Quotation storage lastQuotation = projQuotations[lastIdx];\r\n        \r\n        // Counter offer must come from the other party\r\n        if (lastQuotation.proposedBy == requests[_projectId].freelancer) {\r\n            require(msg.sender == employer, \"Only employer can counter-offer on freelancer's proposal\");\r\n        } else {\r\n            require(msg.sender == requests[_projectId].freelancer, \"Only freelancer can counter-offer on employer's proposal\");\r\n        }\r\n        \r\n        lastQuotation.status = QuotationStatus.Negotiating;\r\n        lastQuotation.proposedAmount = _newAmount;\r\n        lastQuotation.negotiationNotes = _notes;\r\n        \r\n        emit QuotationCounterProposed(_projectId, msg.sender, _newAmount, _notes);\r\n    }\r\n\r\n    function acceptQuotation(uint _projectId, uint _quotationIndex) public payable {\r\n        require(_projectId > 0 && _projectId <= projectsContract.projectCount(), \"Invalid project ID\");\r\n        require(_quotationIndex < quotations[_projectId].length, \"Invalid quotation index\");\r\n        \r\n        (,,,uint originalReward, Projects.Status status, address employer, ) = projectsContract.getProject(_projectId);\r\n        require(status == Projects.Status.Open, \"Project is not open\");\r\n        require(msg.sender == employer, \"Only employer can accept quotation\");\r\n        \r\n        Quotation storage quotation = quotations[_projectId][_quotationIndex];\r\n        require(quotation.status == QuotationStatus.Proposed || quotation.status == QuotationStatus.Negotiating, \"Quotation cannot be accepted\");\r\n        require(msg.value == quotation.proposedAmount, \"Sent amount must match proposed amount\");\r\n        \r\n        quotation.status = QuotationStatus.Accepted;\r\n        \r\n        // Create escrow with new amount\r\n        Escrow escrow = new Escrow{value: quotation.proposedAmount}(requests[_projectId].freelancer, employer, quotation.proposedAmount);\r\n        requests[_projectId].escrowContract = escrow;\r\n        requests[_projectId].status = RequestStatus.Accepted;\r\n        \r\n        assignedFreelancer[_projectId] = requests[_projectId].freelancer;\r\n        \r\n        // NOTE: Removed projectsContract.closeProject() call due to authorization issues\r\n        // The project status should be managed separately or the contract should be redesigned\r\n        // to allow RequestManager to close projects on behalf of the employer\r\n        \r\n        emit QuotationAccepted(_projectId, quotation.proposedAmount);\r\n    }\r\n\r\n    function rejectQuotation(uint _projectId, uint _quotationIndex) public {\r\n        require(_projectId > 0 && _projectId <= projectsContract.projectCount(), \"Invalid project ID\");\r\n        require(_quotationIndex < quotations[_projectId].length, \"Invalid quotation index\");\r\n        \r\n        (,,,, Projects.Status status, address employer, ) = projectsContract.getProject(_projectId);\r\n        require(status == Projects.Status.Open, \"Project is not open\");\r\n        require(msg.sender == employer, \"Only employer can reject quotation\");\r\n        \r\n        Quotation storage quotation = quotations[_projectId][_quotationIndex];\r\n        quotation.status = QuotationStatus.Rejected;\r\n        \r\n        emit QuotationRejected(_projectId);\r\n    }\r\n\r\n    function getQuotations(uint _projectId) public view returns (Quotation[] memory) {\r\n        return quotations[_projectId];\r\n    }\r\n\r\n    function getLatestQuotation(uint _projectId) public view returns (Quotation memory) {\r\n        require(quotations[_projectId].length > 0, \"No quotations for this project\");\r\n        return quotations[_projectId][quotations[_projectId].length - 1];\r\n    }\r\n\r\n    function isProjectAssigned(uint _projectId) public view returns (bool) {\r\n        return assignedFreelancer[_projectId] != address(0);\r\n    }\r\n\r\n    function getRequest(uint _projectId) public view returns (Request memory) {\r\n        return requests[_projectId];\r\n    }\r\n}\r\n",
  "sourcePath": "D:\\Maj_proj\\Lance-With-quote\\contracts\\RequestManager.sol",
  "compiler": {
    "name": "solc",
    "version": "0.8.35+commit.47b9dedd.Emscripten.clang"
  },
  "schemaVersion": "3.4.16",
  "updatedAt": "2026-05-02T18:47:33.897Z",
  "networkType": "ethereum",
  "devdoc": {
    "kind": "dev",
    "methods": {},
    "version": 1
  },
  "userdoc": {
    "kind": "user",
    "methods": {},
    "version": 1
  }
}